:1000000010308A0000280000FF00030E8301A100C9
:100010000A08A0008A010408A2007708A300780853
:10002000A4007908A5007A08A600831383128B1D0B
:100030001B280B183C288C308400801E21288C1A29
:100040003F288C308400001C27280C1842288B1E67
:100050002B280B194528220884002308F7002408C0
:10006000F8002508F9002608FA0020088A00210E69
:100070008300FF0E7F0E09008A150A122C298A11AF
:100080000A128A2F8A110A12812C8A110A12742AE2
:100090000A108A100A114F3E03188A0A820000349F
:1000A0000034003400340034003400345F34003451
:1000B00000340034033400340334003414343E3448
:1000C00014343E34143424342A347F342A34123421
:1000D0004334333408346634613436344934553467
:1000E00022345034003405340334003400340034F6
:1000F0001C342234413400340034413422341C3462
:100100000034143408343E340834143408340834C9
:100110003E34083408340034503430340034003471
:100120000834083408340834083400346034603447
:1001300000340034203410340834043402343E34A3
:100140005134493445343E340034043402347F346D
:100150000034423461345134493446342234413419
:100160004934493436341834143412347F3410345A
:10017000273445344534453439343E3449344934E0
:10018000493432340134013471340934073436349B
:1001900049344934493436342634493449344934AD
:1001A0003E340034363436340034003400345634AF
:1001B00036340034003408341434223441340034EA
:1001C00014341434143414341434003441342234C8
:1001D00014340834023401345134093406343E34C2
:1001E0004134593455345E347E3409340934093489
:1001F0007E347F3449344934493436343E344134D2
:100200004134413422347F344134413441343E342A
:100210007F3449344934493441347F340934093412
:10022000093401343E344134413449343A347F3462
:100230000834083408347F34003441347F34413486
:10024000003430344034403440343F347F34083458
:100250001434223441347F34403440344034403408
:100260007F3402340C3402347F347F34023404345B
:1002700008347F343E344134413441343E347F3499
:1002800009340934093406341E342134213421342C
:100290005E347F3409340934093476340A148A1000
:1002A0000A11553E03188A0A82002634493449341B
:1002B00049343234013401347F34013401343F3461
:1002C0004034403440343F341F34203440342034F0
:1002D0001F347F342034103420347F3441342234AE
:1002E0001C34223441340734083470340834073461
:1002F0006134513449344534433400347F3441341B
:10030000003400340234043408341034203400340F
:10031000003441347F340034043402340134023474
:1003200004344034403440344034403400340134E8
:100330000234043400342034543454345434783483
:100340007F344434443444343834383444344434CA
:100350004434443438344434443444347F343834BA
:100360005434543454341834043404347E3405344E
:10037000053408345434543454343C347F34083411
:10038000043404347834003444347D34403400344C
:100390002034403444343D3400347F341034283425
:1003A00044340034003441347F34403400347C34ED
:1003B00004347834043478347C3408340434043419
:1003C0007834383444344434443438347C34143449
:1003D00014341434083408341434143414347C348D
:1003E00000347C34083404340434483454345434F1
:1003F00054342034043404343F34443444343C34DE
:100400004034403420347C341C3420344034203494
:100410001C343C344034303440343C34443428348C
:100420001034283444340C345034503450343C3478
:100430004434643454344C34443400340834363452
:1004400041344134003400347F34003400344134CA
:100450004134363408340034023401340234043474
:1004600002340A108A140A1182074334613470344A
:1004700074347534723461346E3464346F340034DF
:100480000A108A140A1182074C3469346D347034AE
:10049000693461346E3464346F3400340A108A1461
:1004A0000A118207543465346D3470346534723403
:1004B000613474347534723461343A340034473002
:1004C0008400831700080319732A0130F800F7012C
:1004D000F70B682AF80B672A4A30F700F70B6E2AE9
:1004E000712A800B652A0800B40B852A0A30B400F3
:1004F000831686118312861132300317C700031347
:100500005F228316861183128615403081000B11FD
:100510008A110A122B288316031718080319FD2ABB
:10052000A0001C080319FD2AA00703189E2A7F308B
:10053000A002031CFD2A0319FD2AA22A8130A0076C
:100540000318FD2A2008F700F801F901FA0119083B
:10055000A400A4171A08A3001B08A2001830A000CA
:10056000A101221CCB2A1F08FA07031CBD2AF90A85
:10057000031DBD2AF80A0319A1171E08F907031C59
:10058000C42AF80A0319A1171D089A009A171A0815
:10059000F8070318A117A10DF80CF90CFA0CA40C1C
:1005A000A30CA20C0310A00BB02A0130F70703180C
:1005B000FD2AF81BE22AA40DFA0DF90DF80DF70338
:1005C0000319FD2AA41FF32AFA0A031DF32AF90AC4
:1005D000031DF32AF80A031DF32AF80CF90CFA0C90
:1005E000F70A0319FD2A1908A1001D08A106A11F79
:1005F000FB2AF817012BF813012BF701F801F90179
:10060000FA01831203130800831603171808B63C77
:100610009800FA0119089C0099170310990C9A0C7C
:100620009B0CFA0CF90CF80CF70C980B0D2B9C1F7B
:10063000242BF709F809F909FA09F70A0319F80A46
:100640000319F90A0319FA0A83120313080083181D
:100650002C2BA03084008317F701F801F901FA016F
:1006600083160317A001A101A201A3011F081E0404
:100670001D041C0403196C2B2030A4000310980DDA
:10068000990D9A0D9B0DA00DA10DA20DA30D1F0894
:100690002302031D552B1E082202031D552B1D0886
:1006A0002102031D552B1C082002031C662B1C086D
:1006B000A0021D08031C1D0FA1021E08031C1E0F13
:1006C000A2021F08031C1F0FA3020314F70DF80D4D
:1006D000F90DFA0DA40B3E2B20088000840A210896
:1006E0008000840A22088000840A23088000831284
:1006F0000313080004080317D2005108D40003199B
:10070000A42B500883169B0083124F0883169A006F
:1007100083124E088316990083124D0883169800A1
:100720009F019E0120309D0082309C0083120313A4
:100730008B227A080317D0007908CF007808CE0002
:100740007708CD00D40B812B500883169B008312B1
:100750004F0883169A0083124E088316990083125D
:100760004D08831698008312031304237A08031795
:10077000D0007908CF007808CE007708CD00D01FD0
:10078000CE2BD203D216CD09CE09CF09D009CD0A7E
:100790000319CE0A0319CF0A0319D00A3B30D90036
:1007A0009A30D800CA30D700D6010A30D400510898
:1007B0000319D20A83144D3084008317500883161E
:1007C0009B0083124F0883169A0083124E088316EB
:1007D000990083124D0883169800831259088316D6
:1007E0009F008312580883169E00831257088316B1
:1007F0009D008312560883169C008312031327233F
:100800007808F708031D1B2C0317510A5402031D17
:100810000B2C03131B2C520803191E2C0F395402E6
:100820000319142C03185A2CD21B5A2C521B1E2CA1
:100830002030532C031320300317D205D21E2F2C47
:10084000D2125108031DD2037708D2002D300313B2
:100850000C1E282C990003175208F700D2015108EA
:100860005402031D402C7708D2002E3003130C1EB7
:10087000372C990003175208F7002030D2050030BA
:100880003030D21E532CD2125108031DD2037708E8
:10089000D2002D3003130C1E4B2C99000317520865
:1008A000F700D2013030F707770803130C1E562CDF
:1008B000990003178310590883169B008312580868
:1008C00083169A00831257088316990083125608DC
:1008D000831698009F019E019D010A309C0083129F
:1008E000031327237A080317D9007908D80078085A
:1008F000D7007708D600D40BDA2B03138A110A121B
:10090000022DB50B0A2D0630B5000317C7014708A5
:10091000123C031CC92C470DF700F70DFC30F705FE
:100920007708A03EF800FA010318FA0A7808C9000F
:100930007A08CA0001304707F700F70DF70DFC30C1
:10094000F7057708A03E840083130008F700840AA7
:100950000008F800840A0008F900840A0008FA0078
:10096000CE007908CD007808CC007708CB00490884
:10097000840083134A1883174B088000840A4C08AC
:100980008000840A4D088000840A4E088000C70A4F
:10099000872C031331088316EF0083123008831667
:1009A000EE0083122F088316ED0083122E088316A3
:1009B000EC0083120317C8014808133C031C092DDF
:1009C000480DF700F70DFC30F7057708A03E8400CE
:1009D00083130008C900840A0008CA00840A0008BA
:1009E000CB00840A0008CC00033084004C08D000FF
:1009F0004B08CF004A08CE004908CD000230D10094
:100A000003137A2B20300C1E032D99000317C80AFC
:100A1000DC2C03138E010B308F00DC308E000C10A9
:100A20008A110A122B28F701F801831603171808F8
:100A300003101918F707F70CF80C9918F707F70CBB
:100A4000F80C1919F707F70CF80C9919F707F70CB8
:100A5000F80C191AF707F70CF80C991AF707F70CA6
:100A6000F80C191BF707F70CF80C991BF707F70C94
:100A7000F80C831203130800003083168800061256
:100A800083120612831603179F0803194E2D0313B2
:100A9000861083128614522D831603170313061033
:100AA000831206140000831688010317200883129E
:100AB0000313880000008316861283128616000036
:100AC000831686128312861283160610831206106E
:100AD00083168610831286100800FF308316880064
:100AE000061283120616831603179E0803197F2D1C
:100AF0000313861083128614832D831603170313A2
:100B000006108312061400008316861283128616BE
:100B10000000FF308316880083120808831603172D
:100B20009F00031386128312861283160610831207
:100B300006108316861083128610831603171F086B
:100B4000F800831203130800831603171C101808FB
:100B50003F3C0318AE2D403098021C1403130611BD
:100B600083120611831603179813181700301C18E8
:100B700001309D009F001808A000831203133C253C
:100B80000030831603171C1801309D00190CF70064
:100B9000F70CF70C1F30F7057708BF39B8389E00FF
:100BA0001D089F001E08A000831203133C25831616
:100BB0000611831206150030831603171C18013026
:100BC0009D009E00831203136D25003083160317CA
:100BD0001C1801309D009E00831203136D257808B8
:100BE000831603179B001A0B052E190807399D0061
:100BF0000130F7001D08F8000319022E0310F70D4D
:100C0000F80BFE2D77089B04152E190807399D0057
:100C10000130F7001D08F8000319122E0310F70D1C
:100C2000F80B0E2E7708FF3A9B050313061183126B
:100C300006110030831603171C1801309D009F0019
:100C40001808A000831203133C2583160611831293
:100C500006150030831603171C1801309D009F00F5
:100C60001B08A000831203133C25080003176A0821
:100C7000FA006908840083137A188317800803191F
:100C8000562F6A08FA006908840083137A188317BC
:100C90000008523C031C762E6A08FA00690884009A
:100CA00083137A1883172030000283169700980068
:100CB0000530990083120313132578088316031750
:100CC0009600F8000530F70091308400831778080B
:100CD0008312031348208000F80A840AF70B712E50
:100CE000742E83160317672EB32E03176A08FA00B3
:100CF0006908840083137A18831700087E3C031C5C
:100D0000AB2E6A08FA006908840083137A188317E7
:100D10005330000283169700980005309900831223
:100D2000031313257808831603179600F80005307F
:100D3000F7009130840083177808831203134E2143
:100D40008000F80A840AF70BA62EA92E8316031733
:100D50009C2EB32E031783169101920193019401E7
:100D600095018312031303176A08FA0069088400C7
:100D700083137A18831700080A3A03130319C42E41
:100D8000073A0319D52ED92E07308316031798007A
:100D900083126B0883169900831203131325013005
:100DA00078070317E807512F03130317E701512FA3
:100DB0000313053083160317980083126B088316FC
:100DC00099008312031313257808031767077F3CE4
:100DD0000318F92EE70107308316980083126B0879
:100DE0008316990083120313132501307807031724
:100DF000E807ED016D08043C031C512FEE016E085D
:100E0000063C031C4D2F91306D07840083170008AA
:100E100083169600F70083126E08F8000319142F4A
:100E20000310F70CF80B102F771C4B2FEF016B08FA
:100E30006F0203184B2F8316900183126B088316E1
:100E400010020318482F10088312670783169600B4
:100E500083126E088316980083126B08831699001C
:100E60008312031313257808031768076F07831687
:100E70009700160898001708990083126C088316CB
:100E80009A0083120313A42583160317900A1D2FBB
:100E90008312EF0A172FEE0AFF2EED0A6B08E70701
:100EA000FA2EE90A0319EA0AE70A372E03130800A3
:100EB000360884008313371883178316031718081E
:100EC0008000840A800183120313B60A0319B70A4B
:100ED000080003176508E900670865076902031839
:100EE000882F6608EA00680866076A020318862FDA
:100EF00069088316980083126A08831699009A017C
:100F000083120313A4250317EA0A732FE90A6C2F2F
:100F1000031308008C1E8A2F1A08B3003308613CA3
:100F2000031DA52F42300317C7005430C800C90164
:100F30006E30E700E8010130EA004730E900013097
:100F4000EB00EC0003133626BB2F3308623C031D75
:100F5000BB2F42300317C7005430C800C9016E30A0
:100F6000E700E8010130EA004730E9000130EB001A
:100F7000EC01031336268C128A110A122B288E30AC
:100F8000F70003172808F8002708F900FA01F80805
:100F9000031DD42F7908F800F9010830F702F8088A
:100FA000031DD42FF701DC2F0310F81BDB2FF90DE5
:100FB000F80DF703D42FF813031308008E30F70051
:100FC00003172D08F7022E08F9002F08F800F9176B
:100FD000F7080319F62F0310F908031DF22FF8087C
:100FE0000319F62FF90CF80CF70BEB2FAE1FFD2FA2
:0E0FF000F809F909F80A0319F90A03130800B1
:101000000408831603179000831269088316920060
:10101000031931288312680883169B00831267081E
:1010200083169A0083126608831699008312650856
:10103000831698009F019E0120309D0082309C0005
:101040008A11831203138B228A157A080317E8008A
:101050007908E7007808E6007708E5008316920B28
:101060000A288312680883169B0083126708831678
:101070009A00831266088316990083126508831606
:1010800098008A118312031304238A157A08031720
:10109000E8007908E7007808E6007708E500E81F2F
:1010A00060288316900390168312E509E609E70984
:1010B000E809E50A0319E60A0319E70A0319E80A29
:1010C0003B30831697009A309600CA309500940101
:1010D0000A30920083126908031D71288316900A52
:1010E00083128314653084008317680883169B007D
:1010F0008312670883169A00831266088316990084
:10110000831265088316980017089F0016089E0032
:1011100015089D0014089C008A11831203132723CD
:101120008A157808F708031DAF280317690A831684
:101130001202031D9E2883120313AF2810080319FF
:10114000B3280F3912020319A72803180729901B87
:101150000729101BB3282030FD28831203132030E9
:10116000831603179005901ECC28901283126908ED
:101170000319BD2883169003831277088316900005
:101180002D3098008A118312031358278A1583166D
:1011900003171008F70090018312690883161202E2
:1011A000031DE228770890002E3098008A118312E0
:1011B000031358278A15831603171008F7002030E9
:1011C000900500303030901EFD289012831269087F
:1011D0000319ED2883169003831277088316900075
:1011E0002D3098008A118312031358278A1583160D
:1011F00003171008F70090013030F70777089800C0
:101200008A118312031358278A1583160317831034
:1012100017089B0016089A001508990014089800F2
:101220009F019E019D010A309C008A1183120313C5
:1012300027238A157A0883160317970079089600E2
:101240007808950077089400920B272929298312A2
:101250007128831203130800831606178312061FD2
:101260003D2A0130B2068B12321C9829F8010B304E
:10127000F7004F308400831778088A1131228A15CD
:101280008000F80A840AF70B3C2922300317E70094
:10129000E8010130EA004F30E9000130EB00EC00DA
:1012A0008A11031336268A150130B7004730B6007D
:1012B000033084002D080317E80003132C080317DC
:1012C000E70003132B080317E60003132A0803178C
:1012D000E5000230E90003130020B0308316031745
:1012E00098008A118312031358278A1543308316F6
:1012F000031798008A118312031358278A15483060
:101300000317E7000A30E8000130EA004730E9003F
:101310000130EB00EC008A11031336268A15831680
:101320000C1483128E010B308F00DC308E003D2AAE
:10133000F8010B30F7005A308400831778088A11BF
:1013400031228A158000F80A840AF70B9E29223080
:101350000317E700E8010130EA005A30E9000130E4
:10136000EB00EC018A11031336268A15F8010A30C6
:10137000F7005A308400831778088A1140228A15B2
:101380008000F80A840AF70BBC2922300317E70013
:10139000E8010130EA005A30E9000130EB00EC00CE
:1013A0008A11031336268A150317E5011430E60067
:1013B0008030E7002C30E8008A11031369278A1572
:1013C000F8010A30F7005A308400831778088A1130
:1013D00040228A158000F80A840AF70BE629223099
:1013E0000317E700E8010130EA005A30E900013054
:1013F000EB00EC018A11031336268A150130B70081
:101400004730B6000330840031080317E8000313A7
:1014100030080317E70003132F080317E600031330
:101420002E080317E5000230E90003130020B03056
:101430008316031798008A118312031358278A15FD
:1014400043308316031798008A1183120313582719
:101450008A1548300317E7000A30E8000130EA0037
:101460004730E9000130EB00EC018A110313362606
:101470008A15A90183160C1083120B108A110A1207
:101480002B28281028088316870083120714831638
:101490008612831286128316061083120610831694
:1014A0008610831286108316061183120611A70177
:1014B0008B1BA7178B13831603179F01C030A00047
:1014C0008A11831203133C258A15A71B8B17A701CA
:1014D0008B1BA7178B130130831603179F00C03097
:1014E000A0008A11831203133C258A15A71B8B17B2
:1014F000A7018B1BA7178B13831603179F0140307F
:10150000A0008A11831203133C258A15A71B8B1791
:10151000A7018B1BA7178B130130831603179F009E
:101520004030A0008A11831203133C258A15A71BA3
:101530008B17A7018B1BA7178B13831603179F010C
:10154000B830A0008A11831203133C258A15A71B0B
:101550008B17A7018B1BA7178B130130831603175B
:101560009F00B830A0008A11831203133C258A150E
:10157000A71B8B170317270BE12A0313A7018B1B4C
:10158000A7178B13831603179F013F30A0008A1102
:10159000831203133C258A15A71B8B17A7018B1BEE
:1015A000A7178B130130831603179F003F30A0004D
:1015B0008A11831203133C258A15A71B8B17032B53
:1015C00003170313A7018B1BA7178B13831603178E
:1015D0009F013E30A0008A11831203133C258A1517
:1015E000A71B8B17A7018B1BA7178B130130831623
:1015F00003179F003E30A0008A11831203133C257D
:101600008A15A71B8B170317A801A9012908073CF6
:10161000031CC22B83160313061183120611A701A4
:101620008B1BA7178B13831603179F014030A00055
:101630008A11831203133C258A15A71B8B17A70158
:101640008B1BA7178B130130831603179F004030A5
:10165000A0008A11831203133C258A15A71B8B1740
:1016600003172908B838AB000313A7018B1BA71772
:101670008B13831603179F0183122B088316A00078
:101680008A11831203133C258A15A71B8B17031796
:101690002908B838AB000313A7018B1BA7178B13BE
:1016A0000130831603179F0083122B088316A000B6
:1016B0008A11831203133C258A15A71B8B178316E7
:1016C0000611831206150317AA012A083F3C031CC2
:1016D000C02B0313A7018B1BA7178B13FF30831697
:1016E0000317980083122808831699008A11831221
:1016F000031313258A15A71B8B1778080317AB0054
:101700000313A7018B1BA7178B13831603179F01C6
:1017100083122B088316A0008A11831203133C2521
:101720008A15A71B8B17A7018B1BA7178B13FF30DD
:1017300083160317980083122808831699008A11CC
:101740008312031313258A15A71B8B177808031719
:10175000AB000313A7018B1BA7178B130130831654
:1017600003179F0083122B088316A0008A1183128F
:1017700003133C258A15A71B8B170317AA0A652B91
:10178000A90A062B03138A110A163F2801300317F2
:10179000B700B800BD012E083002BE003E08BE1FD3
:1017A000D32B3E08003CFA01B5007A08B6002F089A
:1017B0003102BE003E08BE1FDF2B3E08003CFA018E
:1017C000B3007A08B4002E0830020318E92BFF306A
:1017D000B7002F0831020318EF2BFF30B800340890
:1017E0003602031C4D2C031DF92B33083502031C54
:1017F0004D2C0310B30DB40D35083302F700340837
:10180000FA003608031C360FFA027708B9007A0886
:10181000BA0035083902BB003A08BC003608031C80
:10182000360FBC02B608031D192C3D083502031CF7
:101830004C2C0313A7018B1BA7178B1303172E0820
:101840008316980083122F0883169900831232089A
:1018500083169A008A1183120313A4258A15A71BE5
:101860008B170317BA1F3E2C3308B9073408031827
:10187000340FBA0737082E07AE004A2C3B08B907C9
:101880003C0803183C0FBA0737082E07AE0038088B
:101890002F07AF00BD0A122CA02C0310B50DB60DFA
:1018A00033083502F7003608FA003408031C340FF9
:1018B000FA027708B9007A08BA0033083902BB0087
:1018C0003A08BC003408031C340FBC02B408031DE2
:1018D0006D2C3D083302031CA02C0313A7018B1BA6
:1018E000A7178B1303172E088316980083122F084F
:1018F000831699008312320883169A008A11831284
:101900000313A4258A15A71B8B170317BA1F922C44
:101910003508B90736080318360FBA0738082F07F5
:10192000AF009E2C3B08B9073C0803183C0FBA07D0
:1019300037082E07AE0038082F07AF00BD0A662C07
:101940000313080003172B080319682DB7002F088D
:101950000319682DB702031CB22C7F30B707031898
:10196000682DB82C8130B702031C682D0319682D2F
:101970003708F700F801F901FA01B6012C08B500A3
:10198000B5172D08B4002E08B3001930B70032087F
:10199000B3020318DB2C0130B4020318DB2CB502B0
:1019A0000318DB2CB6020318DB2CB60AB50AB40AFE
:1019B0003208B3070D2D3108B4020318F62C01309C
:1019C000B5020318F62CB6020318F62CB60AB50AAF
:1019D0003108B4073208B307031C0D2DB40A031DE8
:1019E0000D2DB50A031D0D2DB60A0D2D30088038BA
:1019F000B50203180C2D0130B60203180C2DB60ADF
:101A000030088038B5073108B407031CEA2CB50A42
:101A1000031DEA2CB60AEA2C7A14B70B102D1B2DE5
:101A20000310B30DB40DB50DB60D0310FA0DF90D7D
:101A3000F80DB80DC72C381C232D0310F80CF90C29
:101A4000FA0CB80C262DF7030319682DB81B4F2D7F
:101A50000310B30DB40DB50DB60D3208B302031863
:101A60003B2D0130B40203183B2DB50203183B2D6A
:101A7000B602031C5E2D3108B4020318462D013056
:101A8000B5020318462DB602031C5E2D30088038BF
:101A9000B50203184F2D0130B602031C5E2DFA0A61
:101AA000031D5E2DF90A031D5E2DF80A031D5E2D30
:101AB000F70A0319682DF80CF90CFA0C2C08B7007A
:101AC0003008B706B71F662DF8176C2DF8136C2D6C
:101AD000F701F801F901FA010313080003172808B8
:101AE000AF002C08AF06AF1F7A2D03110310A81BFF
:101AF0000314AD2D2808AF002B08B0002708B00252
:101B00000319882DAF1FAD2D0308013A8300AD2DB9
:101B10002C08B0002808B0020319942DAF1FAD2D7A
:101B20000308013A8300AD2D2D08B0002908B0024A
:101B30000319A02DAF1FAD2D0308013A8300AD2D71
:101B40002E08B0002A08B0020319AC2DAF1FAD2D2E
:101B50000308013A8300AD2D031003130800803001
:101B6000831CB52D0317B60603130317BB01BC0175
:101B70003208BA003608BA0631080319A32EB90094
:101B8000F70035080319AC2EB9020319482E031CBF
:101B9000062E3608BF00BF173708BE003808BD0044
:101BA000BC010310BF0CBE0CBD0CBC0CB90BD02D7E
:101BB000BA1FDD2D3B14C02E3B1039103B163430BC
:101BC00084008317D52E3B12BA1BF02D391CFB2D38
:101BD000BF0CBE0CBD0CBC0CF70A0319BB2EFB2DB1
:101BE000BF1BFE2D0310BC0DBD0DBE0DBF0DF703B9
:101BF0000319BB2EF02D3B17682E3B133208BA0099
:101C0000BA1F042EBF17B42EBF13B42E3508B90067
:101C1000F7003108B9023208BF00BF173308BE0011
:101C20003408BD00BC010310BF0CBE0CBD0CBC0CC5
:101C3000B90B122EBA1F1F2EBB14C02EBB103910A9
:101C4000BB16383084008317D52EBB12BA1B322E38
:101C5000391C3D2EBF0CBE0CBD0CBC0CF70A031981
:101C6000BB2E3D2EBF1B402E0310BC0DBD0DBE0D67
:101C7000BF0DF7030319BB2E322EBB17682EBB1303
:101C80003608BA00BA1F462EBF17B42EBF13B42EA3
:101C90003608BF00BF173708BE003808BD00BA1F9E
:101CA000552EBF133B15C02E3B11BC0139103430EB
:101CB00084008317D52EBA1B7E2E3208BA00391C39
:101CC000682EBF0CBE0CBD0CBC0CF70A0319BB2E52
:101CD000BC1F792EBD0A031D792EBE0A031D792E65
:101CE000BF0A031D792EBF0CBE0CBD0CF70A0319E9
:101CF000BB2E3B1BFD2DBB1B3F2E9D2E8030BF06F8
:101D0000BF1F862EC02E3608BA00932E3208BA00A6
:101D1000BF08031D932EBE08031D932EBD08031D8F
:101D2000932EF701B42EBF1B9D2E0310BC0DBD0DCD
:101D3000BE0DBF0DF70B932EBB2EBA1FA12EBF17E2
:101D4000B42EBF13B42E3508F7003608BF0037088D
:101D5000BE003808BD00B42E3108F7003208BF00BD
:101D60003308BE003408BD003F08F8003E08F90003
:101D70003D08FA00F32EF701F801F901FA01F32EFC
:101D8000BC01BD09BE09BF09BC09BC0A031DCE2E9A
:101D9000BD0A031DCE2EBE0A0319BF0A3B18DC2D57
:101DA000BB181E2E3B19542E832E0008BD07031CA2
:101DB000DF2EBE0A031DDF2EBF0A03193914840368
:101DC0000008BE07031CE72EBF0A03193914840359
:101DD0000008801F803ABF07031839143B1AE32D0F
:101DE000BB1A252E5B2E03130800013029070317A9
:101DF000AB002B087F3C0318142F0313A7018B1B88
:101E0000A7178B130317E5011430E6008030E700B5
:101E10002C30E8008A11031369278A15A71B8B173A
:101E2000A90101300317AB000313A7018B1BA717F0
:101E30008B132D08831603179B00831203132C08A2
:101E4000831603179A00831203132B0883160317B4
:101E50009900831203132A088316031798009F0121
:101E60009E0180309D009C008A11831203138B22F7
:101E70008A15A71B8B177A080317AF007908AE00E5
:101E80007808AD007708AC0083102F08B4002E0846
:101E9000B3002D08B2002C08B100B801B7017030B2
:101EA000B6008530B5000313AF257A080317B000DC
:101EB0007908AF007808AE007708AD008A110313E7
:101EC000DE278A1578080317AC000313A7018B1BC4
:101ED000A7178B1303172A0883169B008312290860
:101EE00083169A0083122808831699008312270804
:101EF000831698009F019E0180309D009C008A11EE
:101F0000831203138B228A15A71B8B177A080317DA
:101F1000B0007908AF007808AE007708AD008310F4
:101F20003008B4002F08B3002E08B2002D08B1000D
:101F3000B801B7017030B6008530B5000313AF2586
:101F40007A080317B0007908AF007808AE00770868
:101F5000AD008A110313DE278A1578080317AD0038
:101F6000031329080317AE002C08AF002B08B0009C
:101F70002D08B1000130B2000313C62303172A084D
:101F80000313AD00031729080313AC000317280837
:101F90000313AB00031727080313AA0003172B082A
:101FA0000313A9008A110A16512B80080319F22F76
:101FB0000317A8010408A7002810831B2814000891
:101FC00003130C1EE12F99000317270884008313C5
:101FD00028188317840A031DF02F0313850A03179B
:0A1FE0000313D52F8A110A16482CAE
:1020000003081F398300193083169900A630980001
:10201000903083129800FF30A800A9013210B3015C
:102020000A30B4000630B500B701B60183161F149C
:102030009F141F159F118313403086001F109F149B
:102040001F159F1583121F179F1783169F17831243
:102050001F1483160108C03907388100B530831278
:102060009000403081008E010B308F00DC308E00FC
:1020700001300317A7000A128A150313412A0A1612
:102080008A118B1583168C16C03083128B04F801CD
:102090000D30F7001A308400831778080A124E2298
:1020A0000A168000F80A840AF70B4D28A7018B1B3B
:1020B000A7178B130317E7010A30E8000130EA0085
:1020C0001A30E9000130EB00EC000A120313362647
:1020D0000A16A71B8B170317AE010830AF0080301C
:1020E000B0000830B1000130B2000A128A150313A3
:1020F000C6230A168A110317AE011330AF008030D1
:10210000B0001330B1000130B2000A128A15031377
:10211000C6230A168A110030F8001F08C739780450
:102120009F000630F700F70B932800001F151F19BA
:1021300097281E08FA0083161E08831203179000C2
:102140007A0891001108A8001008A7000A120313CA
:10215000BF270A16A7018B1BA7178B13831603171C
:102160009B019A0120309900813098007A089F00E5
:1021700079089E0078089D0077089C000A12831257
:1021800003138B220A16A71B8B177A080317AA00C2
:102190007908A9007808A8007708A7000313A70109
:1021A0008B1BA7178B1303172A0883169B00831218
:1021B000290883169A00831228088316990083122F
:1021C0002708831698009F019E0148309D008530A6
:1021D0009C000A12831203138B220A16A71B8B176B
:1021E0007A080317AA007908A9007808A8007708D8
:1021F000A7002A08AE002908AD002808AC0027086F
:10220000AB00B201B101B0018930AF000A128A15EA
:102210000313A2240A168A117A08AD007908AC00CB
:102220007808AB007708AA00A7018B1BA7178B13B0
:10223000FA300317C7000A1203135F220A16A71BFE
:102240008B17321C5F2C0030F8001F08C739780448
:102250009F000330F700F70B2B291F151F192E299C
:102260001E08FA0083161E088312031790007A08CE
:1022700091001108A8001008A7000A120313BF2735
:102280000A16A7018B1BA7178B13831603179B0135
:102290009A0120309900813098007A089F007908CF
:1022A0009E0078089D0077089C000A128312031391
:1022B0008B220A16A71B8B177A080317AA00790826
:1022C000A9007808A8007708A7000313A7018B1BB3
:1022D000A7178B1303172A0883169B00831229085C
:1022E00083169A0083122808831699008312270800
:1022F000831698009F019E0148309D0085309C0008
:102300000A12831203138B220A16A71B8B177A0853
:102310000317AA007908A9007808A8007708A70081
:102320002A08AE002908AD002808AC002708AB0039
:10233000B201B101B0018930AF000A128A1503134E
:10234000A2240A168A117A08B1007908B000780828
:10235000AF007708AE0031080317AA000313300856
:102360000317A90003132F080317A80003132E084F
:102370000317A70003132D080317AE0003132C083F
:102380000317AD0003132B080317AC0003132A082F
:102390000317AB000A128A1503136E250A168A1159
:1023A0000319802A0130B7001230B60003308400D0
:1023B000A7018B1BA7178B132D080317E800031326
:1023C0002C080317E70003132B080317E600031379
:1023D0002A080317E5000230E9000A128A150313E0
:1023E00000200A168A11A71B8B17A7018B1BA717A2
:1023F0008B13B0308316031798000A12831203134D
:1024000058270A16A71B8B17A7018B1BA7178B131F
:1024100043308316031798000A12831203135827B8
:102420000A16A71B8B17A7018B1BA7178B13483006
:102430000317E7000A30E8000130EA001230E90033
:102440000130EB00EC010A12031336260A16A71B13
:102450008B170130B7001230B60003308400A7019B
:102460008B1BA7178B1331080317E80003133008E1
:102470000317E70003132F080317E60003132E08C2
:102480000317E5000230E9000A128A150313002041
:102490000A168A11A71B8B17A7018B1BA7178B1373
:1024A000B0308316031798000A12831203135827BB
:1024B0000A16A71B8B17A7018B1BA7178B1343307B
:1024C0008316031798000A128312031358270A165B
:1024D000A71B8B17A7018B1BA7178B13483003175C
:1024E000E7000A30E8000130EA001230E90001306C
:1024F000EB00EC000A12031336260A16A71B8B17F3
:1025000031080317AA00031330080317A9000313A7
:102510002F080317A80003132E080317A700AE0106
:10252000AD012030AC008430AB000A128A150313D1
:102530006E250A168A1103189F2A031DC12A031744
:10254000AA01A9010C30A8008430A70003133108A8
:102550000317AE00031330080317AD0003132F0851
:102560000317AC0003132E080317AB000A128A15D9
:1025700003136E250A168A110318C02A031DC12AE7
:102580008B120317AA01A9012030A8008430A700EC
:10259000031331080317AE00031330080317AD000F
:1025A00003132F080317AC0003132E080317AB0007
:1025B0000A128A1503136E250A168A110318FD2ABA
:1025C00031080317AA00031330080317A9000313E7
:1025D0002F080317A80003132E080317A700AE0146
:1025E000AD010C30AC008430AB000A128A15031325
:1025F0006E250A168A11031CFE2A8B163108031752
:10260000AA00031330080317A90003132F080317A8
:10261000A80003132E080317A700AE01AD01483030
:10262000AC008430AB000A128A1503136E250A161B
:102630008A1103181D2B031D932B0317AA01A9014F
:102640006030A8008330A700031331080317AE00E1
:10265000031330080317AD0003132F080317AC0052
:1026600003132E080317AB000A128A1503136E25F5
:102670000A168A1103183E2B031D932B31080317EA
:10268000AA00031330080317A90003132F08031728
:10269000A80003132E080317A7000A128A150313B4
:1026A000F52E0A168A11543003179A003E309B000B
:1026B00035309C0030309D009E010313A7018B1B19
:1026C000A7178B1303300317E700E8010130EA0076
:1026D0001A30E9000130EB00EC010A120313362630
:1026E0000A16A71B8B17543003179A003C309B0027
:1026F00032309C0038309D009E010313A7018B1BD4
:10270000A7178B1303300317E700E8010130EA0035
:102710001A30E9000130EB00EC010A1203133626EF
:102720000A16A71B8B170317AA01A9014830A80096
:102730008430A700031331080317AE0003133008D9
:102740000317AD0003132F080317AC0003132E0863
:102750000317AB000A128A1503136E250A168A1195
:10276000031CDA2B543003179A003E309B0035309F
:102770009C0030309D009E010313A7018B1BA717FF
:102780008B1303300317E700E8010130EA001A3029
:10279000E9000130EB00EC000A12031336260A169A
:1027A000A71B8B173108AD003008AC002F08AB0019
:1027B0002E08AA0031080317AA00031330080317D4
:1027C000A90003132F080317A80003132E080317EB
:1027D000A700AE01AD016030AC008330AB000A123F
:1027E0008A1503136E250A168A11031C1F2C5430F8
:1027F00003179A003C309B0032309C0038309D001B
:102800009E010313A7018B1BA7178B13033003171C
:10281000E700E8010130EA001A30E9000130EB007E
:10282000EC000A12031336260A16A71B8B17310871
:10283000AD003008AC002F08AB002E08AA00013014
:10284000B7001230B60003308400A7018B1BA71716
:102850008B1331080317E800031330080317E70050
:1028600003132F080317E60003132E080317E500D0
:102870000230E9000A128A15031300200A168A1191
:10288000A71B8B171230840083170A128A15D52FC5
:102890000A168A110D300C1E4B2C99000A300C1EA2
:1028A0004F2C9900A7018B1BA7178B13FA30031726
:1028B000C7000A1203135F220A16A71B8B172129D0
:0228C0006300B3
:02400E00713F00
:00000001FF
;PIC16F877
;CRC=4B97  CREATED="13-nov.-20 12:38"
