:100000000A308A00552A00000A108A100A110B3E95
:1000100003188A0A820000340034003400340034AB
:10002000003400345F3400340034003403340034CE
:100030000334003414343E3414343E341434243441
:100040002A347F342A341234433433340834663447
:100050006134363449345534223450340034053454
:1000600003340034003400341C342234413400346E
:100070000034413422341C340034143408343E3407
:1000800008341434083408343E3408340834003456
:100090005034303400340034083408340834083420
:1000A00008340034603460340034003420341034B8
:1000B0000834043402343E345134493445343E3437
:1000C0000034043402347F34003442346134513417
:1000D00049344634223441344934493436341834AE
:1000E000143412347F3410342734453445344534C5
:1000F00039343E34493449344934323401340134DA
:100100007134093407343634493449344934363487
:1001100026344934493449343E3400343634363494
:10012000003400340034563436340034003408349B
:100130001434223441340034143414341434143458
:100140001434003441342234143408340234013479
:100150005134093406343E344134593455345E3414
:100160007E340934093409347E347F3449344934C7
:10017000493436343E3441344134413422347F34BE
:100180004134413441343E347F3449344934493474
:1001900041347F3409340934093401343E34413464
:1001A000413449343A347F340834083408347F34D5
:1001B000003441347F3441340034303440344034EE
:1001C00040343F347F3408341434223441347F3493
:1001D00040344034403440347F3402340C340234F0
:1001E0007F347F340234043408347F343E34413465
:1001F000413441343E347F340934093409340634FF
:100200001E342134213421345E347F3409340934DE
:10021000093476340A148A100A11820726344934C4
:10022000493449343234013401347F3401340134E7
:100230003F344034403440343F341F342034403461
:1002400020341F347F342034103420347F34413440
:1002500022341C34223441340734083470340834D6
:1002600007346134513449344534433400347F34E5
:10027000413400340034023404340834103420345F
:100280000034003441347F34003404340234013407
:100290000234043440344034403440344034003478
:1002A000013402340434003420345434543454348B
:1002B00078347F3444344434443438343834443427
:1002C00044344434443438344434443444347F343F
:1002D00038345434543454341834043404347E34AC
:1002E0000534053408345434543454343C347F34A5
:1002F0000834043404347834003444347D344034D5
:1003000000342034403444343D3400347F341034DD
:10031000283444340034003441347F3440340034D1
:100320007C3404347834043478347C340834043431
:1003300004347834383444344434443438347C34E9
:100340001434143414340834083414341434143485
:100350007C3400347C340834043404344834543459
:10036000543454342034043404343F344434443456
:100370003C344034403420347C341C342034403409
:1003800020341C343C344034303440343C34443425
:1003900028341034283444340C345034503450341D
:1003A0003C344434643454344C34443400340834DD
:1003B000363441344134003400347F340034003466
:1003C00041344134363408340034023401340234C8
:1003D0000434023400308316880006128312061299
:1003E0008316A2080319F929861083128614FC29A2
:1003F0008316061083120614FD298316880123082C
:1004000083128800032A8316861283128616082A0E
:100410008316861283128612831606108312061024
:1004200083168610831286100800F701F801700801
:1004300003107118F707F70CF80CF118F707F70C11
:10044000F80C7119F707F70CF80CF119F707F70C0E
:10045000F80C711AF707F70CF80CF11AF707F70CFC
:10046000F80C711BF707F70CF80CF11BF707F70CEA
:10047000F80C080022102208831687008312071444
:1004800083168612831286128316061083120610B4
:1004900083168610831286108316061183120611A6
:1004A0008316A201C030A3008312EA210130831613
:1004B000A200C030A3008312EA218316A2014030BB
:1004C000A3008312EA2101308316A2004030A3006A
:1004D0008312EA218316A201B830A3008312EA2115
:1004E00001308316A200B830A3008312EA215A0B10
:1004F000872A8316A2013F30A3008312EA2101302C
:100500008316A2003F30A3008312EA21942A8316A7
:10051000A2013E30A3008312EA2101308316A2001B
:100520003E30A3008312EA21DB01DC015C08073CBA
:10053000031CEE2A83160611831206118316A201EC
:100540004030A3008312EA2101308316A20040301C
:10055000A3008312EA215C08B838DE008316A201EA
:1005600083125E088316A3008312EA215C08B83860
:10057000DE0001308316A20083125E088316A300FA
:100580008312EA218316061183120615DD015D0828
:100590003F3C031CEC2AFF30F0005B08F100152201
:1005A0007808DE008316A201831278088316A30060
:1005B0008312EA21FF30F0005B08F1001522780871
:1005C000DE0001308316A200831278088316A30090
:1005D0008312EA21DD0AC72ADC0A962A8A150A1242
:1005E000AC2AFF3083168800061283120616831683
:1005F000A1080319002B861083128614032B83167F
:10060000061083120614042B831686128312861694
:10061000092BFF3083168800831208088316A20076
:100620008612831286128316061083120610831612
:1006300086108312861083162208F80083120800A1
:100640007D1075083F3C0318282B4030F5027D14BF
:100650008316061183120611F513751700307D18E5
:1006600001308316A000A2007508A3008312EA21BE
:1006700000307D1801308316A000760CF700F70CCF
:10068000F70C1F30F7057708BF39B838A1002008EC
:10069000A2002108A3008312EA2183160611831207
:1006A000061500307D1801308316A000A1008312CA
:1006B000F12200307D1801308316A000A1008312C2
:1006C000F1227808FC007B0B772B7608073983161C
:1006D000A0000130F7002008F8000319732B031065
:1006E000F70DF80B6F2B7708FC04882B8312760824
:1006F00007398316A0000130F7002008F80003191D
:10070000852B0310F70DF80B812B7708FF3AFC05BA
:1007100006118312061100307D1801308316A000E7
:10072000A2007508A3008312EA2183160611831222
:10073000061500307D1801308316A000A2007C0849
:10074000A3008312EA2108006208FA00610884000D
:1007500083137A18831780080319792C6208FA002A
:100760006108840083137A1883170008523C031C25
:10077000D72B6208FA006108840083137A18831764
:1007800020300002EF00F0000530F100152278085B
:10079000EE00F8000530F700693084008313780814
:1007A00004208000F80A840AF70BCF2B052C62087E
:1007B000FA006108840083137A18831700087E3CCE
:1007C000031C002C6208FA006108840083137A1865
:1007D000831753300002EF00F0000530F1001522BE
:1007E0007808EE00F8000530F700693084008313C4
:1007F00078080A218000F80A840AF70BF82B052CE8
:10080000E901EA01EB01EC01ED016208FA0061087F
:10081000840083137A18831700080A3A0319142CEA
:10082000073A03191D2C1F2C0730F0006308F10054
:10083000152201307807E007742CDF01742C053095
:10084000F0006308F100152278085F077F3C031869
:10085000322CDF010730F0006308F100152201306F
:100860007807E007E5016508043C031C742CE601E9
:100870006608063C031C702C6930650784008313EE
:100880000008EE00F7006608F80003194B2C03106F
:10089000F70CF80B472C771C6E2CE70163086702F6
:1008A00003186E2CE8016308680203186C2C6808B2
:1008B0005F07EE006608F0006308F1001522780873
:1008C00060076707EF006E08F5006F08F600640820
:1008D000FB002023E80A532CE70A4E2CE60A382CAA
:1008E000E50A6308DF07332CE10A0319E20ADF0A8D
:1008F000A42B08000130EE00EF00F4016508670248
:10090000F5007508F51F862C7508003CFA01EC000F
:100910007A08ED0066086802F5007508F51F922C4C
:100920007508003CFA01EA007A08EB0065086702E6
:1009300003189C2CFF30EE00660868020318A22CF6
:10094000FF30EF006B086D02031CEE2C031DAC2C76
:100950006A086C02031CEE2C0310EA0DEB0D6C0808
:100960006A02F7006B08FA006D08031C6D0FFA02AB
:100970007708F0007A08F1006C087002F200710844
:10098000F3006D08031C6D0FF302ED08031DCC2C62
:1009900074086C02031CED2C6508F5006608F6006F
:1009A0006908FB002023F11FDF2C6A08F0076B08A1
:1009B00003186B0FF1076E086507E500EB2C720852
:1009C000F00773080318730FF1076E086507E50059
:1009D0006F086607E600F40AC52C2F2D0310EC0DF6
:1009E000ED0D6A086C02F7006D08FA006B08031C35
:1009F0006B0FFA027708F0007A08F1006A087002BB
:100A0000F2007108F3006B08031C6B0FF302EB0894
:100A1000031D0E2D74086A02031C2F2D6508F500B6
:100A20006608F6006908FB002023F11F212D6C08E1
:100A3000F0076D0803186D0FF1076F086607E600F1
:100A40002D2D7208F00773080318730FF1076E0855
:100A50006507E5006F086607E600F40A072D080041
:100A60006B080319BC2D8316A00083126F080319AD
:100A7000BC2D8316A0070318482D7F30A002031851
:100A8000432D8312BC2D031D472D8312BC2D4E2DEB
:100A90008130A007031C4E2D8312BC2D2008F700C7
:100AA000F801F901FA0183126C088316A400A41757
:100AB00083126D088316A30083126E088316A200AA
:100AC0001830A000A101221C822D7208FA07031C15
:100AD0006F2DF90A031D6F2DF80A0319A11771086C
:100AE000F907031C762DF80A0319A1177008831261
:100AF000ED00ED176D08F807031C812D8316A11773
:100B000083128316A10DF80CF90CFA0CA40CA30C9B
:100B1000A20C0310A00B622D0130F707031C922DCD
:100B20008312BC2DF81B9C2DA40DFA0DF90DF80DA8
:100B3000F70B9C2D8312BC2DA41FAF2DFA0A031DA9
:100B4000AF2DF90A031DAF2DF80A031DAF2DF80CC8
:100B5000F90CFA0CF70A031DAF2D8312BC2D83127A
:100B60006C088316A1007008A106A11FB92DF81703
:100B7000C12DF813C12D8312F701F801F901FA0113
:100B80008316831208008318C82DA03084008313B5
:100B9000F701F801F901FA018316A001A101A201F0
:100BA000A30172087104700483126F040319102EDC
:100BB00020308316A40003108312EB0DEC0DED0D15
:100BC000EE0D8316A00DA10DA20DA30D7208230238
:100BD000031DF62D71082202031DF62D7008210257
:100BE000031DF62D83126F0883162002031C092EA5
:100BF00083126F088316A0027008031C700FA102F5
:100C00007108031C710FA2027208031C720FA30269
:100C10000314F70DF80DF90DFA0DA40BDB2D83125B
:100C2000831620088000840A21088000840A220894
:100C30008000840A230880008312080027088400AB
:100C40008313281883176B088000840A8001A70A81
:100C50000319A80A08000408E3006208E500031964
:100C60004A2E6108EE006008ED005F08EC005E08A7
:100C7000EB00F201F1012030F0008230EF0030256E
:100C80007A08E1007908E0007808DF007708DE00E4
:100C9000E50B312E6108EE006008ED005F08EC0006
:100CA0005E08EB006B08B63CEB00FA016C08EF0045
:100CB000EC170310EC0CED0CEE0CFA0CF90CF80C24
:100CC000F70CEB0B592EEF1F702EF709F809F909F5
:100CD000FA09F70A0319F80A0319F90A0319FA0AB3
:100CE0007A08E1007908E0007808DF007708DE0084
:100CF000E11F872EE303E316DE09DF09E009E109BE
:100D0000DE0A0319DF0A0319E00A0319E10A3B307E
:100D1000EA009A30E900CA30E800E7010A30E5004D
:100D200062080319E30A83145E30840083136108A8
:100D3000EE006008ED005F08EC005E08EB006A085A
:100D4000F2006908F1006808F0006708EF00C325A9
:100D50007808F708031DBF2E620A65020319BF2E2B
:100D600063080319C12E0F3965020319B92E031840
:100D7000F12EE31BF12E631BC12E2030ED2E20300F
:100D8000E305E31ECF2EE3126208031DE303770899
:100D9000E3002D30EB001E266308F700E301620834
:100DA0006502031DDD2E7708E3002E30EB001E26C2
:100DB0006308F7002030E30500303030E31EED2EED
:100DC000E3126208031DE3037708E3002D30EB0014
:100DD0001E266308F700E3013030F7077708EB00C1
:100DE0001E2683106A08EE006908ED006808EC0012
:100DF0006708EB00F201F101F0010A30EF00C325B2
:100E00007A08EA007908E9007808E8007708E7003E
:100E1000E50B932E8A150A12FB2A5B08DD005A089F
:100E2000DC005D08FA005C08840083137A188317DD
:100E3000800803191F2FDC0A0319DD0A112F5A0835
:100E40005C02F7005D08FA005B08031C5B0FFA0206
:100E50007708F80008006308E70065086307670281
:100E60000318432F6408E800660864076802031843
:100E7000412F6708F5006808F600FB012023E80A07
:100E8000342FE70A2D2F08008E30F7006908F8008C
:100E90006808F900FA01F808031D582F7908F800CE
:100EA000F9010830F702F808031D582FF701602FE9
:100EB0000310F81B5F2FF90DF80DF703582FF813E7
:100EC00008008E30F7006408F7026508F90066082C
:100ED000F800F917F7080319782F0310F908031D14
:100EE000742FF8080319782FF90CF80CF70B6D2FF5
:100EF000E51F7F2FF809F909F80A0319F90A080014
:100F00005B308400831300080319932F0230F8002C
:100F1000F701F70B892FF80B882F9730F700F70BA5
:100F20008F2F800B862F08004230DC005430DD000C
:100F3000DE016E30DF00E001E2015C30E1000130F3
:0E0F4000E3005B08E400A4238A150A12752B57
:1010000080308318ED068316A201A30183126908BC
:101010008316A10083126D088316A1068312680847
:1010200003191B298316A000F70083126C0803190B
:101030002A298316A0020319B3280318202865283B
:1010400083126D088316A600A61783126E088316F6
:10105000A50083126F088316A400A3010310A60C39
:10106000A50CA40CA30CA00B2D28A11F3A28221418
:1010700043292210201022166B3084008313592933
:101080002212A11B4D28201C5828A60CA50CA40C2C
:10109000A30CF70A03193E295828A61B5B28031046
:1010A000A30DA40DA50DA60DF70303193E294D2888
:1010B0002217DB282213831269088316A100A11FBF
:1010C0006328A6173729A613372983126C088316BD
:1010D000A000F700831268088316A0028312690833
:1010E0008316A600A61783126A088316A50083122A
:1010F0006B088316A400A3010310A60CA50CA40C76
:10110000A30CA00B7B28A11F8828A2144329A2109E
:101110002010A2166F30840083135929A212A11B3C
:101120009B28201CA628A60CA50CA40CA30CF70A2F
:1011300003193E29A628A61BA9280310A30DA40D58
:10114000A50DA60DF70303193E299B28A217DB283E
:10115000A21383126D088316A100A11FB128A61740
:101160003729A613372983126D088316A600A61700
:1011700083126E088316A50083126F088316A400DD
:10118000A11FC628A613221543292211A30120104E
:101190006B30840083135929A11BF128831269083D
:1011A0008316A100201CDB28A60CA50CA40CA30C04
:1011B000F70A03193E29A31FEC28A40A031DEC28F3
:1011C000A50A031DEC28A60A031DEC28A60CA50CF5
:1011D000A40CF70A03193E29221B5A28A21BA8288F
:1011E00014298030A606A61FFB28432983126D0808
:1011F0008316A1000A29831269088316A100A60894
:10120000031D0A29A508031D0A29A408031D0A298C
:10121000F7013729A61B14290310A30DA40DA50D52
:10122000A60DF70B0A293E29A11F1829A617372951
:10123000A613372983126C08F7006D088316A600E1
:1012400083126E088316A50083126F088316A4000C
:10125000372983126808F70069088316A6008312ED
:101260006A088316A50083126B088316A40026085B
:10127000F8002508F9002408FA007829F701F80198
:10128000F901FA017829A301A409A509A609A3096E
:10129000A30A031D5229A40A031D5229A50A031DEE
:1012A0005229A60A22183928A21887282219C528E7
:1012B000F6280008A407031C6329A50A031D632957
:1012C000A60A0319201484030008A507031C6B2930
:1012D000A60A0319201484030008801B7029803A91
:1012E000A60703182014221A4028A21A8E28CC28F8
:1012F0008312080002302307E2006208803C0318D2
:101300008E29E3011430E4008030E5002C30E60043
:101310008A112B278A15A3010230E2002508E40078
:101320002408E3008E30F7006408F8006308F90031
:10133000FA01E41FA029F809F909F90A0319F80AC2
:10134000F808031DAD297908F800F9010830F70203
:10135000F808031DAD29F701B6290310F81BB429BD
:10136000F90DF80DF703AD29E41FF8137A08EE0024
:101370007908ED007808EC007708EB00CD30F2003A
:10138000CC30F100F0007C30EF008A1130258A1556
:101390007A08E6007908E5007808E4007708E300B9
:1013A000E9012608E8008A1144278A158310660897
:1013B000EB006508EA006408E9006308E8007A08C1
:1013C000EF007908EE007808ED007708EC000020C7
:1013D0007A08E7007908E6007808E5007708E40075
:1013E0008A1161278A157808E3006108EE00600819
:1013F000ED005F08EC005E08EB00CD30F200CC3071
:10140000F100F0007C30EF008A1130258A157A084F
:10141000E7007908E6007808E5007708E400E901CC
:101420002608E8008A1144278A1583106708EB0014
:101430006608EA006508E9006408E8007A08EF0039
:101440007908EE007808ED007708EC0000207A08B3
:10145000E7007908E6007808E5007708E4008A11DB
:1014600061278A157808E4002308E5006308E60090
:101470006208E7006408E8000130E9008A117A2474
:101480008A156108E7006008E6005F08E5005E086D
:10149000E4008A1161278A157908A5007808A4005C
:1014A0006208A3008A150A12562B03081F3983000D
:1014B000FF30A200A301A501A4013430A600A801B9
:1014C000A70183161F149F141F159F1183138312E6
:1014D000A001A10129105430B4006530B5006D3071
:1014E000B6007030B7006530B8007230B9006130B6
:1014F000BA007430BB007530BC007230BD00613082
:10150000BE003A30BF00C0018430C1001430C200B8
:10151000C301C4018430C5001230C600C701C80130
:101520008430C9001830CA00CB01CC018430CD0012
:10153000DC30CE00CF01D0018630D1001630D20091
:10154000D301D4018330D5007030D600D701D80143
:101550000130DA008A113A2A8A15DF010A30E000E8
:10156000E2013430E1000130E300E4008A11A423F9
:101570008A15E5010830E6008030E7000830E80011
:101580000130E9008A117A248A15E5011330E6005A
:101590008030E7001330E8000130E9008A117A2436
:1015A0008A15D9015908053C031C5D2B590DF7001C
:1015B000F70DFC30F7057708413E840083130008DF
:1015C000DA00840A0008DB00840A0008DC00840AD0
:1015D0000008DD00A8012A30A700033084005D0860
:1015E000E1005C08E0005B08DF005A08DE00023022
:1015F000E2008A112B2E8A15B030EB008A111E26CC
:101600008A154330EB008A111E268A15DB0134301F
:10161000DA008A110D278A157808F0000630F100EB
:101620008A1115228A157808DA00E3000A30E400EE
:101630003630E5000730E6008A112B278A15DB01DA
:101640003430DA008A110D278A157808F000063048
:10165000F1008A1115228A157808DA00DF000A30B5
:10166000E000E2012A30E1000130E300E4008A11E9
:10167000A4238A15590DF700F70DFC30F7057708FC
:10168000413E840083130008DA00840A0008DB006E
:10169000840A0008DC00840A0008DD00E1005C0820
:1016A000E0005B08DF005A08DE007A29C830DB0062
:1016B0008A1180278A15D90AD22A8316061586151B
:1016C0008312861D762B0230DA009630DB008A11F9
:1016D00080278A15DA0B652B0130A90600302918FE
:1016E0000130DA00DB008A11942F8A155D2B63002C
:02400E00713F00
:00000001FF
;PIC16F877
;CRC=B416  CREATED="28-oct.-20 17:38"
