:1000000018308A0000280000FF00030E8301A100C1
:100010000A08A0008A010408A2007708A300780853
:10002000A4007908A5007A08A600831383128B1D0B
:100030001B280B183C288C308400801E21288C1A29
:100040003F288C308400001C27280C1842288B1E67
:100050002B280B194528220884002308F7002408C0
:10006000F8002508F9002608FA0020088A00210E69
:100070008300FF0E7F0E09008A110A1600288A15D8
:100080000A122D2D8A110A12992A8A110A12822A1D
:100090000A108A100A114F3E03188A0A820000349F
:1000A0000034003400340034003400345F34003451
:1000B00000340034033400340334003414343E3448
:1000C00014343E34143424342A347F342A34123421
:1000D0004334333408346634613436344934553467
:1000E00022345034003405340334003400340034F6
:1000F0001C342234413400340034413422341C3462
:100100000034143408343E340834143408340834C9
:100110003E34083408340034503430340034003471
:100120000834083408340834083400346034603447
:1001300000340034203410340834043402343E34A3
:100140005134493445343E340034043402347F346D
:100150000034423461345134493446342234413419
:100160004934493436341834143412347F3410345A
:10017000273445344534453439343E3449344934E0
:10018000493432340134013471340934073436349B
:1001900049344934493436342634493449344934AD
:1001A0003E340034363436340034003400345634AF
:1001B00036340034003408341434223441340034EA
:1001C00014341434143414341434003441342234C8
:1001D00014340834023401345134093406343E34C2
:1001E0004134593455345E347E3409340934093489
:1001F0007E347F3449344934493436343E344134D2
:100200004134413422347F344134413441343E342A
:100210007F3449344934493441347F340934093412
:10022000093401343E344134413449343A347F3462
:100230000834083408347F34003441347F34413486
:10024000003430344034403440343F347F34083458
:100250001434223441347F34403440344034403408
:100260007F3402340C3402347F347F34023404345B
:1002700008347F343E344134413441343E347F3499
:1002800009340934093406341E342134213421342C
:100290005E347F3409340934093476340A148A1000
:1002A0000A11553E03188A0A82002634493449341B
:1002B00049343234013401347F34013401343F3461
:1002C0004034403440343F341F34203440342034F0
:1002D0001F347F342034103420347F3441342234AE
:1002E0001C34223441340734083470340834073461
:1002F0006134513449344534433400347F3441341B
:10030000003400340234043408341034203400340F
:10031000003441347F340034043402340134023474
:1003200004344034403440344034403400340134E8
:100330000234043400342034543454345434783483
:100340007F344434443444343834383444344434CA
:100350004434443438344434443444347F343834BA
:100360005434543454341834043404347E3405344E
:10037000053408345434543454343C347F34083411
:10038000043404347834003444347D34403400344C
:100390002034403444343D3400347F341034283425
:1003A00044340034003441347F34403400347C34ED
:1003B00004347834043478347C3408340434043419
:1003C0007834383444344434443438347C34143449
:1003D00014341434083408341434143414347C348D
:1003E00000347C34083404340434483454345434F1
:1003F00054342034043404343F34443444343C34DE
:100400004034403420347C341C3420344034203494
:100410001C343C344034303440343C34443428348C
:100420001034283444340C345034503450343C3478
:100430004434643454344C34443400340834363452
:1004400041344134003400347F34003400344134CA
:100450004134363408340034023401340234043474
:1004600002340A108A140A1182074334613470344A
:1004700074347534723461346E3464346F340034DF
:100480000A108A140A1182074C3469346D347034AE
:10049000693461346E3464346F3400340A108A1461
:1004A0000A1182074734753461347234643461341C
:1004B0006E3464346F3400340A108A140A118207CF
:1004C000543465346D34703465347234613474344A
:1004D0007534723461343A3400343D30840083170B
:1004E00000080319812A0130F800F701F70B762A7A
:1004F000F80B752A4A30F700F70B7C2A7F2A800B0D
:10050000732A0800C60B932A0A30C6008316861188
:100510008312861132300317BD0003136D22831638
:10052000861183128615403081000B118A110A1240
:100530002B28C70BC22A0630C7000317BD013D0890
:100540004E3C031CBD2AA0303D07F800FA010318F9
:10055000FA0A7808BE007A08BF0001303D07A03EC5
:10056000840083130008C0003E08840083133F18F2
:10057000831740088000BD0A9F2A0313430883168F
:10058000EF0083128E010B308F00DC308E000C10D8
:100590008A110A122B28F701F8018316031719088C
:1005A00003101A18F707F70CF80C9A18F707F70C4E
:1005B000F80C1A19F707F70CF80C9A19F707F70C4B
:1005C000F80C1A1AF707F70CF80C9A1AF707F70C39
:1005D000F80C1A1BF707F70CF80C9A1BF707F70C27
:1005E000F80C8312031308000030831688000612EB
:1005F0008312061283160317A4080319062B03138C
:100600008610831286140A2B831603170313061011
:10061000831206140000831688010317250883122D
:1006200003138800000083168612831286160000CA
:100630008316861283128612831606108312061002
:100640008316861083128610080083160317211064
:100650001D083F3C03182F2B40309D02211403132B
:10066000061183120611831603179D131D17003000
:1006700021180130A200A4001D08A5008312031355
:10068000F42200308316031721180130A2001E0C3B
:10069000F700F70CF70C1F30F7057708BF39B838AB
:1006A000A3002208A4002308A50083120313F42248
:1006B00083160611831206150030831603172118BE
:1006C0000130A2002208A300FF30031388000612A5
:1006D0008312061683160317A3080319762B031338
:1006E0008610831286147A2B8316031703130610C1
:1006F00083120614000083168612831286160000E9
:10070000FF30831688008312080883160317A4009D
:1007100003138612831286128316061083120610A4
:100720008316861083128610831603172408F80098
:10073000003021180130A2002208A300FF3003136B
:10074000880006128312061683160317A3080319DE
:10075000B02B0313861083128614B42B8316031751
:1007600003130610831206140000831686128312E8
:1007700086160000FF30831688008312080883164F
:100780000317A40003138612831286128316061021
:1007900083120610831686108312861083160317A1
:1007A0002408F8007808A0001F0BE62B1E08073964
:1007B000A2000130F7002208F8000319E32B031010
:1007C000F70DF80BDF2B7708A004F62B1E0807396E
:1007D000A2000130F7002208F8000319F32B0310E0
:1007E000F70DF80BEF2B7708FF3AA005031306115E
:1007F0008312061100308316031721180130A2005E
:10080000A4001D08A50083120313F4228316061109
:100810008312061500308316031721180130A20039
:10082000A4002008A50083120313F4220800031774
:100830006A08FA006908840083137A18831780080D
:100840000319372D6A08FA006908840083137A189F
:1008500083170008523C031C572C6A08FA006908E9
:10086000840083137A1883172030000283169700C0
:10087000990005309A0083120313CB22780883165F
:1008800003179600F8000530F700913084008317B5
:1008900078088312031348208000F80A840AF70BB3
:1008A000522C552C83160317482C942C03176A08D6
:1008B000FA006908840083137A18831700087E3CC5
:1008C000031C8C2C6A08FA006908840083137A18C8
:1008D00083175330000283169700990005309A0061
:1008E00083120313CB227808831603179600F800AF
:1008F0000530F700913084008317780883120313C2
:100900004E218000F80A840AF70B872C8A2C831664
:1009100003177D2C942C03178316910192019301E8
:10092000940195018312031303176A08FA006908FA
:10093000840083137A18831700080A3A03130319F3
:10094000A52C073A0319B62CBA2C073083160317C7
:10095000990083126B0883169A0083120313CB222B
:10096000013078070317E807322D03130317E70157
:10097000322D0313053083160317990083126B0879
:1009800083169A0083120313CB2278080317670794
:100990007F3C0318DA2CE701073083169900831295
:1009A0006B0883169A0083120313CB220130780759
:1009B0000317E807ED016D08043C031C322DEE011E
:1009C0006E08063C031C2E2D91306D0784008317A2
:1009D000000883169600F70083126E08F8000319CA
:1009E000F52C0310F70CF80BF12C771C2C2DEF01D4
:1009F0006B086F0203182C2D8316900183126B086D
:100A0000831610020318292D100883126707831616
:100A1000960083126E088316990083126B08831662
:100A20009A0083120313CB227808031768076F0715
:100A30008316970016089D0017089E0083126C0805
:100A400083169F0083120313252383160317900A2E
:100A5000FE2C8312EF0AF82CEE0AE02CED0A6B084C
:100A6000E707DB2CE90A0319EA0AE70A182C031343
:100A700008008316031719080319AB2DA1001D08E0
:100A80000319AB2DA10703184C2D7F30A102031CC5
:100A9000AB2D0319AB2D502D8130A1070318AB2DC1
:100AA0002108F700F801F901FA011A08A500A517B5
:100AB0001B08A4001C08A3001830A100A201231CDD
:100AC000792D2008FA07031C6B2DF90A031D6B2DE5
:100AD000F80A0319A2171F08F907031C722DF80A58
:100AE0000319A2171E089B009B171B08F807031881
:100AF000A217A20DF80CF90CFA0CA50CA40CA30C6F
:100B00000310A10B5E2D0130F7070318AB2DF81B66
:100B1000902DA50DFA0DF90DF80DF7030319AB2D66
:100B2000A51FA12DFA0A031DA12DF90A031DA12D50
:100B3000F80A031DA12DF80CF90CFA0CF70A031999
:100B4000AB2D1A08A2001E08A206A21FA92DF81795
:100B5000AF2DF813AF2DF701F801F901FA01831257
:100B600003130800831603171908B63C9900FA010D
:100B70001A089D009A1703109A0C9B0C9C0CFA0CF7
:100B8000F90CF80CF70C990BBB2D9D1FD22DF70912
:100B9000F809F909FA09F70A0319F80A0319F90A11
:100BA0000319FA0A8312031308008318DA2DA130FF
:100BB00084008317F701F801F901FA01831603177E
:100BC000A101A201A301A40120081F041E041D0409
:100BD00003191A2E2030A5000310990D9A0D9B0DB4
:100BE0009C0DA10DA20DA30DA40D20082402031D30
:100BF000032E1F082302031D032E1E082202031DBD
:100C0000032E1D082102031C142E1D08A1021E081C
:100C1000031C1E0FA2021F08031C1F0FA3022008A3
:100C2000031C200FA4020314F70DF80DF90DFA0DA3
:100C3000A50BEC2D21088000840A22088000840A7C
:100C400023088000840A240880008312031308000C
:100C5000380884008313391883178316031719087B
:100C60008000840A800183120313B80A0319B90AA9
:100C7000080004088316031790008312690883167E
:100C800092000319682E8312680883169C00831251
:100C9000670883169B008312660883169A008312E6
:100CA000650883169900A0019F0120309E008230C4
:100CB0009D008312031339257A080317E800790889
:100CC000E7007808E6007708E5008316920B432ECC
:100CD0008312680883169C008312670883169B00A2
:100CE0008312660883169A0083126508831699009A
:100CF00083120313B2257A080317E8007908E70086
:100D00007808E6007708E500E81F952E8316900323
:100D100090168312E509E609E709E809E50A0319CF
:100D2000E60A0319E70A0319E80A3B30831697001D
:100D30009A309600CA30950094010A3092008312CE
:100D40006908031DA62E8316900A8312831465304A
:100D500084008317680883169C0083126708831633
:100D60009B008312660883169A0083126508831617
:100D700099001708A00016089F0015089E00140887
:100D80009D0083120313D5257808F708031DE22E72
:100D90000317690A83161202031DD12E831203134F
:100DA000E22E10080319E62E0F3912020319DA2E6B
:100DB0000318322F901B322F101BE62E20302A2FC3
:100DC000831203132030831603179005901EFD2E07
:100DD0009012831269080319F02E83169003831270
:100DE0007708831690002D3099008312031328266C
:100DF000831603171008F700900183126908831601
:100E00001202031D112F770890002E3099008312D3
:100E100003132826831603171008F70020309005C7
:100E200000303030901E2A2F901283126908031967
:100E30001C2F8316900383127708831690002D30A1
:100E40009900831203132826831603171008F7004E
:100E500090013030F7077708990083120313282692
:100E600083160317831017089C0016089B001508AB
:100E70009A0014089900A0019F019E010A309D006C
:100E800083120313D5257A08831603179700790870
:100E900096007808950077089400920B502F522FF7
:100EA0008312A62E8312031308008E30F700031757
:100EB0006608F8006508F900FA01F808031D6A2FB2
:100EC0007908F800F9010830F702F808031D6A2FC5
:100ED000F701722F0310F81B712FF90DF80DF703AE
:100EE0006A2FF8130313080003176608ED006A0859
:100EF000ED06ED1F802F03110310E61B0314B32F23
:100F00006608ED006908EE006508EE0203198E2FF1
:100F1000ED1FB32F0308013A8300B32F6A08EE00D8
:100F20006608EE0203199A2FED1FB32F0308013A4A
:100F30008300B32F6B08EE006708EE020319A62F9B
:100F4000ED1FB32F0308013A8300B32F6C08EE00A6
:100F50006808EE020319B22FED1FB32F0308013A00
:100F60008300B32F0310031308008E30F70003171C
:100F70006B08F7026C08F9006D08F800F917F7081C
:100F80000319CD2F0310F908031DC92FF808031901
:100F9000CD2FF90CF80CF70BC22FEC1FD42FF8094A
:100FA000F909F80A0319F90A0313080003172608B8
:100FB0008400831327188317280880000313080070
:100FC00003172808F80127020318E92F2708F7005C
:100FD000F52FF7010830A900A70DF70D28087702B3
:0E0FE0000318F700F80DA90BEC2F03130800FF
:10100000031769080319DC28831698001008031DCC
:101010000B288312DC28980203180F2816287F302B
:101020009807031C15288312DC2820288130980299
:1010300003181C288312DC28031D20288312DC28B7
:101040001808F700F801F901FA01970183126A08FC
:1010500083169600961783126B08831695008312E9
:101060006C08831694001930980013089402031832
:101070004928013095020318492896020318492887
:10108000970203184928970A960A950A13089407A5
:101090007B28120895020318642801309602031871
:1010A0006428970203186428970A960A120895077D
:1010B00013089407031C7B28950A031D7B28960AB6
:1010C000031D7B28970A7B28110880389602031895
:1010D0007A280130970203187A28970A1108803875
:1010E000960712089507031C5828960A031D5828CE
:1010F000970A58287A14980B7E2889280310940D93
:10110000950D960D970D0310FA0DF90DF80D990D2B
:101110003528191C91280310F80CF90CFA0C990CBD
:101120009528F70B95288312DC28991BBE280310FD
:10113000940D950D960D970D130894020318AA2887
:10114000013095020318AA2896020318AA289702CC
:10115000031CCF28120895020318B5280130960207
:101160000318B5289702031CCF281108803896026F
:101170000318BE2801309702031CCF28FA0A031D6A
:10118000CF28F90A031DCF28F80A031DCF28F70A34
:10119000031DCC288312DC28F80CF90CFA0C8312FE
:1011A0006A088316980011089806981FD928F8171E
:1011B000E128F813E1288312F701F801F901FA0197
:1011C0008316831203130800040883160317900084
:1011D000831269088316920003191529831268087F
:1011E00083169C008312670883169B00831266088F
:1011F00083169A008312650883169900A0019F0147
:1012000020309E0082309D008A11831203133925FD
:101210008A157A080317E8007908E7007808E600DD
:101220007708E5008316920BEE2883126808831670
:101230009C008312670883169B008312660883163E
:101240009A0083126508831699008A11831203138A
:10125000B2258A157A080317E8007908E7007808AC
:10126000E6007708E500E81F4429831690039016EE
:101270008312E509E609E709E809E50A0319E60A20
:101280000319E70A0319E80A3B30831697009A30DE
:101290009600CA30950094010A30920083126908C2
:1012A000031D55298316900A831283146530840028
:1012B0008317680883169C008312670883169B00B7
:1012C0008312660883169A008312650883169900B4
:1012D0001708A00016089F0015089E0014089D001E
:1012E0008A1183120313D5258A157808F708031D80
:1012F00093290317690A83161202031D8229831298
:10130000031393291008031997290F39120203199F
:101310008B290318E729901BE729101B97292030F8
:10132000DE29831203132030831603179005901EC5
:10133000AF299012831269080319A129831690031B
:1013400083127708831690002D30831203130C1E2E
:10135000A7299900831603171008F700900183123C
:10136000690883161202031DC429770890002E30E5
:10137000831203130C1EBA29990083160317100851
:10138000F7002030900500303030901EDE2990129A
:10139000831269080319CF298316900383127708F3
:1013A000831690002D30831203130C1ED52999004B
:1013B000831603171008F70090013030F7077708FD
:1013C000831203130C1EE22999008316031783105E
:1013D00017089C0016089B0015089A00140899002D
:1013E000A0019F019E010A309D008A118312031300
:1013F000D5258A157A088316031797007908960071
:101400007808950077089400920B072A092A83121E
:101410005529031383128A110A163D2A8030831C32
:10142000162A8316031795068312031383160317D0
:101430009A019B01110899001508990610080319D3
:10144000052B9800F700140803190E2B98020319B6
:10145000AA2A031C682A15089E009E1716089D00DC
:1014600017089C009B0103109E0C9D0C9C0C9B0C70
:10147000980B322A991F3F2A1A14222B1A1018107F
:101480001A16933084008317372B1A12991B522A8D
:10149000181C5D2A9E0C9D0C9C0C9B0CF70A0319D2
:1014A0001D2B5D2A9E1B602A03109B0D9C0D9D0D1C
:1014B0009E0DF70303191D2B522A1A17CA2A1A1355
:1014C00011089900991F662A9E17162B9E13162B3A
:1014D00014089800F7001008980211089E009E1743
:1014E00012089D0013089C009B0103109E0C9D0C8C
:1014F0009C0C9B0C980B742A991F812A9A14222BFE
:101500009A1018109A16973084008317372B9A1266
:10151000991B942A181C9F2A9E0C9D0C9C0C9B0CBA
:10152000F70A03191D2B9F2A9E1BA22A03109B0D4D
:101530009C0D9D0D9E0DF70303191D2B942A9A17E0
:10154000CA2A9A1315089900991FA82A9E17162BC4
:101550009E13162B15089E009E1716089D0017084F
:101560009C00991FB72A9E131A15222B1A119B0152
:101570001810933084008317372B991BE02A110829
:101580009900181CCA2A9E0C9D0C9C0C9B0CF70AF7
:1015900003191D2B9B1FDB2A9C0A031DDB2A9D0AB6
:1015A000031DDB2A9E0A031DDB2A9E0C9D0C9C0C4E
:1015B000F70A03191D2B1A1B5F2A9A1BA12AFF2A5F
:1015C00080309E069E1FE82A222B15089900F52AD6
:1015D000110899009E08031DF52A9D08031DF52A90
:1015E0009C08031DF52AF701162B9E1BFF2A0310EA
:1015F0009B0D9C0D9D0D9E0DF70BF52A1D2B991F24
:10160000032B9E17162B9E13162B1408F700150894
:101610009E0016089D0017089C00162B1008F70066
:1016200011089E0012089D0013089C001E08F80077
:101630001D08F9001C08FA00552BF701F801F90103
:10164000FA01552B9B019C099D099E099B099B0A48
:10165000031D302B9C0A031D302B9D0A03199E0A83
:101660001A183E2A9A18802A1A19B62AE52A00085A
:101670009C07031C412B9D0A031D412B9E0A031945
:101680001814840300089D07031C492B9E0A0319A4
:10169000181484030008801F803A9E07031818144A
:1016A0001A1A452A9A1A872ABD2A83120313080098
:1016B000013083160317950096009B0183126C0876
:1016C0006E0283169C001C089C1F682B1C08003CA3
:1016D000FA0193007A08940083126D086F02831652
:1016E0009C001C089C1F762B1C08003CFA019100F2
:1016F0007A08920083126C086E020318832BFF3065
:101700008316950083126D086F0203188B2BFF3030
:10171000831696008312831612081402031CE52B0D
:10172000031D962B11081302031CE52B0310910DCA
:10173000920D13081102F7001208FA001408031C96
:10174000140FFA02770897007A0898001308170216
:10175000990018089A001408031C140F9A029408A0
:10176000031DB62B1B081302031CE42B83126C0809
:1017700083169D0083126D0883169E0010089F003B
:101780008A118312031325238A1583160317981FC2
:10179000D42B1108970712080318120F9807150881
:1017A0008312EC07E12B8316190897071A08031810
:1017B0001A0F980715088312EC0783161608831270
:1017C000ED0783169B0AAF2B332C0310930D940D5A
:1017D00011081302F7001408FA001208031C120F74
:1017E000FA02770897007A08980011081702990002
:1017F00018089A001208031C120F9A029208031D7F
:10180000052C1B081102031C332C83126C08831651
:101810009D0083126D0883169E0010089F008A1198
:101820008312031325238A1583160317981F232C6D
:101830001308970714080318140F98071608831243
:10184000ED07302C8316190897071A0803181A0F8A
:10185000980715088312EC07831616088312ED0704
:1018600083169B0AFE2B83120313080001303A07EC
:101870000317E90069087F3C03186A2CEA01143059
:10188000EB008030EC002C30ED006A08EE006C08B4
:101890006A076E020318652C6B08EF006D086B0772
:1018A0006F020318632C6E0883169D0083126F0865
:1018B00083169E009F018A118312031325238A1524
:1018C0000317EF0A4E2CEE0A472C0313BA0101301E
:1018D0000317E90003133E08831603179C008312C5
:1018E00003133D08831603179B00831203133C0860
:1018F000831603179A00831203133B0883160317FA
:101900009900A0019F0180309E009D008A118312E2
:10191000031339258A157A080317ED007908EC00BE
:101920007808EB007708EA0083106D0883169300AF
:1019300083126C088316920083126B088316910041
:1019400083126A0883169000970196017030950003
:1019500085309400831203130E227A080317EE00D9
:101960007908ED007808EC007708EB008A11031382
:10197000B5278A1578080317EA00680883169C00C3
:101980008312670883169B008312660883169A00E9
:101990008312650883169900A0019F0180309E0084
:1019A0009D008A118312031339258A157A080317BB
:1019B000EE007908ED007808EC007708EB00831062
:1019C0006E088316930083126D08831692008312AB
:1019D0006C088316910083126B08831690009701A0
:1019E00096017030950085309400831203130E2207
:1019F0007A080317EE007908ED007808EC00770804
:101A0000EB008A110313B5278A1578080317EB003A
:101A100003133A080317EC006A08ED006908EE00AA
:101A20006B08EF00013083169000831203135823D4
:101A3000031768080313BE00031767080313BD00EC
:101A4000031766080313BC00031765080313BB00E4
:101A5000031769080313BA0008008C1E2D2D1A08FD
:101A6000C80048080317BD003D08613C031D502D08
:101A70000313C51042300317BE005430BF00C0012D
:101A80006E30E700E8010130EA003E30E900013045
:101A9000EB00EC008A11031317248A15662D031737
:101AA0000313C51442300317C1005430C200C301F0
:101AB0006E30E700E8010130EA004130E900013012
:101AC000EB00EC018A11031317248A158C128A117A
:101AD0000A122B282810280883168700831207145F
:101AE000831686128312861283160610831206103E
:101AF0008316861083128610831606118312061130
:101B0000A7018B1BA7178B1383160317A401C030E3
:101B1000A5008A1183120313F4228A15A71B8B17C1
:101B2000A7018B1BA7178B13013083160317A40083
:101B3000C030A5008A1183120313F4228A15A71B53
:101B40008B17A7018B1BA7178B1383160317A401F1
:101B50004030A5008A1183120313F4228A15A71BB3
:101B60008B17A7018B1BA7178B1301308316031745
:101B7000A4004030A5008A1183120313F4228A15B1
:101B8000A71B8B17A7018B1BA7178B138316031794
:101B9000A401B830A5008A1183120313F4228A1518
:101BA000A71B8B17A7018B1BA7178B13013083165D
:101BB0000317A400B830A5008A1183120313F4227E
:101BC0008A15A71B8B1703171D0B0A2E0313A701DA
:101BD0008B1BA7178B1383160317A4013F30A50097
:101BE0008A1183120313F4228A15A71B8B17A701EE
:101BF0008B1BA7178B13013083160317A4003F30EC
:101C0000A5008A1183120313F4228A15A71B8B17D0
:101C10002C2E03170313A7018B1BA7178B138316F7
:101C20000317A4013E30A5008A1183120313F42286
:101C30008A15A71B8B17A7018B1BA7178B130130C6
:101C400083160317A4003E30A5008A1183120313E4
:101C5000F4228A15A71B8B1703179E019F011F08EB
:101C6000073C031CEB2E8316031306118312061187
:101C7000A7018B1BA7178B1383160317A4014030F2
:101C8000A5008A1183120313F4228A15A71B8B1750
:101C9000A7018B1BA7178B13013083160317A40012
:101CA0004030A5008A1183120313F4228A15A71B62
:101CB0008B1703171F08B838A1000313A7018B1B4C
:101CC000A7178B1383160317A40183122108831609
:101CD000A5008A1183120313F4228A15A71B8B1700
:101CE00003171F08B838A1000313A7018B1BA71700
:101CF0008B13013083160317A40083122108831667
:101D0000A5008A1183120313F4228A15A71B8B17CF
:101D100083160611831206150317A00120083F3C05
:101D2000031CE92E0313A7018B1BA7178B13FF308E
:101D300083160317990083121E0883169A008A11CE
:101D400083120313CB228A15A71B8B17780803175E
:101D5000A1000313A7018B1BA7178B13831603176F
:101D6000A401831221088316A5008A11831203138C
:101D7000F4228A15A71B8B17A7018B1BA7178B13A0
:101D8000FF3083160317990083121E0883169A00EA
:101D90008A1183120313CB228A15A71B8B1778088D
:101DA0000317A1000313A7018B1BA7178B13013087
:101DB00083160317A400831221088316A5008A1135
:101DC00083120313F4228A15A71B8B170317A00A8B
:101DD0008E2E9F0A2F2E03138A150A165528B90135
:101DE0002F30B800A7018B1BA7178B1303171D08F3
:101DF000831699008A118312031328268A15A71BBC
:101E00008B1703171E08A1001830A2002030221ED5
:101E10003030A3002108F700A11F162FF709F70A99
:101E20007708A1002D30A300A21722142108A700D3
:101E30006430A8008A110313E0278A157708031776
:101E4000A10030307807A4002108A7000A30A800BC
:101E50008A110313E0278A15303077070317A6008D
:101E600030307807A5002308F7003030240203192A
:101E70003D2FA214A21B2215512F2308A4002030AD
:101E8000A300303025020319492F2214A21BA214EB
:101E9000512F031D2214031D512F2408A5002030AB
:101EA000A4002219582FA218692F22187A2F8B2FDD
:101EB0000313A7018B1BA7178B1303172308831684
:101EC00099008A118312031328268A15A71B8B17E2
:101ED00003170313A7018B1BA7178B1303172408E2
:101EE000831699008A118312031328268A15A71BCB
:101EF0008B1703170313A7018B1BA7178B1303174C
:101F00002508831699008A118312031328268A153F
:101F1000A71B8B1703170313A7018B1BA7178B1383
:101F200003172608831699008A11831203132826A3
:101F30008A15A71B8B17A7018B1BA7178B130317DA
:101F40001F08831699008A118312031328268A1505
:101F5000A71B8B170317A0012F30200784008313C2
:101F60001F0800020319C12F2F302007840083139C
:101F70000008A10003130C1EBB2F99000317A00A31
:101F8000AC2F1F0803130C1EC32F99008A150A16C5
:021F9000152A10
:10200000831606178312061F89290130C5068B1215
:10201000451C6328F8010B30F7003D30840083171E
:1020200078080A1231220A168000F80A840AF70B8F
:10203000102822300317E700E8010130EA003D30A4
:10204000E9000130EB00EC000A12031317240A1612
:10205000B9012F30B800023084003E080317E800B1
:1020600003133D080317E70003133C080317E600BA
:1020700003133B080317E5000230E9000A120313BB
:1020800039260A1643308316031799000A12831261
:10209000031328260A1648300317E7000A30E80021
:1020A000EA012F30E9000130EB00EC000A120313C3
:1020B00017240A1683160C1483128E010B308F001E
:1020C000DC308E008929F8010B30F700483084009D
:1020D000831778080A1231220A168000F80A840A47
:1020E000F70B692822300317E700E8010130EA0006
:1020F0004830E9000130EB00EC010A120313172409
:102100000A16F8010A30F70048308400831778086F
:102110000A1240220A168000F80A840AF70B872860
:1021200022300317E700E8010130EA004830E900F7
:102130000130EB00EC000A12031317240A160317F0
:10214000EA011430EB008030EC002C30ED006A081E
:10215000EE006C086A076E020318C7286B08EF00D0
:102160006D086B076F020318C5286E0883169D0063
:1021700083126F0883169E009F010A1283120313B5
:1021800025230A160317EF0AB028EE0AA928F8013A
:102190000A30F70048308400831778080A120313C6
:1021A00040220A168000F80A840AF70BD828DA2899
:1021B0000317CD2822300317E700E8010130EA00B9
:1021C0004830E9000130EB00EC010A120313172438
:1021D0000A16B9012F30B8000230840042080317F4
:1021E000E800031341080317E7000313400803172F
:1021F000E60003133F080317E5000230E9000A1266
:10220000031339260A1643308316031799000A125E
:102210008312031328260A1648300317E7000A30F2
:10222000E800EA012F30E9000130EB00EC010A126E
:10223000031317240A16BA0183160C10F8010A308A
:10224000F70048308400831778080A1283124E2260
:102250000A168000F80A840AF70B2F293129831601
:10226000242922300317E700E8010130EA00483052
:10227000E9000130EB00EC000A12031317240A16E0
:102280000317D30153084F3C031C6729A0305307A1
:10229000840083130008E50003130B08F7008B1379
:1022A000031753088D0065088C0083168C130C15DA
:1022B00055308D00AA308D008C148C185D290C11BE
:1022C0007708831203138B040317D30A4229F801FA
:1022D0000A30F70048308400831778080A12031385
:1022E0004E220A168000F80A840AF70B78297A2908
:1022F00003176D2922300317E700E8010130EA00D7
:102300004830E9000130EB00EC010A1203131724F6
:102310000A16831686178312861F372B4510F8017D
:102320000B30F70054308400831778080A123122EA
:102330000A168000F80A840AF70B95292230031741
:10234000E700E8010130EA005430E9000130EB0019
:10235000EC010A12031317240A1683160C108312B9
:102360008B120317DF015F084F3C031CCC2AA030FF
:102370005F07840083135F088D0083168C130C1491
:1023800083120C088000A0305F07840083130008CC
:10239000E601E5000A12031355270A1683160317F0
:1023A0009C019B0120309A00813099007A08A0009E
:1023B00079089F0078089E0077089D000A12831212
:1023C000031339250A167A080317E8007908E7008D
:1023D0007808E6007708E500680883169C008312F9
:1023E000670883169B008312660883169A0083127F
:1023F000650883169900A0019F0148309E00853032
:102400009D000A128312031339250A167A0803174E
:10241000E8007908E7007808E6007708E500680832
:10242000EC006708EB006608EA006508E90083161F
:10243000930192019101893090000A128A1583124A
:10244000031300200A168A117A080317E30079089B
:10245000E2007808E1007708E000033084006308B8
:10246000E8006208E7006108E6006008E500023065
:10247000E9000A128A150313E4280A168A1120308B
:102480000C1E402A99000317E801E7016030E600BE
:102490008330E5006308EC006208EB006108EA00A5
:1024A0006008E9000A12031374270A1603185A2A4F
:1024B000031D802A03176308E8006208E70061082B
:1024C000E6006008E500EC01EB014830EA008430EA
:1024D000E9000A12031374270A160318712A031D50
:1024E000802A03176308E8006208E7006108E60035
:1024F0006008E5000A128A15031336240A168A11A9
:1025000003176308E8006208E7006108E600600856
:10251000E500EC01EB016030EA008330E9000A12CB
:10252000031374270A16031CA22A0317E801E70104
:102530006830E6008330E5000A128A15031336245A
:102540000A168A110317E801E7014830E6008430D3
:10255000E5006308EC006208EB006108EA0060082F
:10256000E9000A12031374270A16031CC42A03176E
:10257000E801E7014830E6008430E5000A128A15D8
:10258000031336240A168A11A03003175F0784004C
:1025900083138001DF0AB329F8010A30F7005430B1
:1025A0008400831778080A1203134E220A1680004B
:1025B000F80A840AF70BDD2ADF2A0317D22A223011
:1025C0000317E700E8010130EA005430E900013068
:1025D000EB00EC000A12031317240A160317E40198
:1025E00064084F3C031C152BA03064078400831340
:1025F0000008E50003130B08F7008B1303176408AA
:102600008D0065088C0083168C130C1555308D00D9
:10261000AA308D008C148C180B2B0C1177088312A8
:1026200003138B040317E40AF02AF8010A30F700B9
:1026300054308400831778080A1203134E220A16B6
:102640008000F80A840AF70B262B282B03171B2B74
:1026500022300317E700E8010130EA005430E900B6
:102660000130EB00EC010A12031317240A160B10B9
:102670008A110A122B28013003179D0003132A0820
:1026800003179F000313290803179E009E08031DCC
:102690004C2B9F080319362C1E08840083131F1827
:1026A00083170008A400A41B292C1E088400831390
:1026B0001F1883171D080002031C292C1E08840004
:1026C00083131F188317A3010008A20003301D07FE
:1026D000A308031D702B22020319142C031C142CB5
:1026E0001D082202A4002308A5000030031C0130AD
:1026F000A5020330A4020030031C0130A502033000
:102700001E07A6001F08A7000318A70A1D08A60792
:102710000318A70A2508A9002408A8002708AB0069
:102720002608AA002B08AD002A08AC002C0884005B
:1027300083132D1883172808800001302C0784008C
:1027400083132D188317840A8001840380012C08C9
:10275000F8002D08F9007908A1007808A0001F08EA
:10276000A5001E08A4002108A7002008A60001302B
:1027700024078400831325188317840A0008A900FE
:1027800084030008A800A808031DD42BA908031D72
:10279000D42B013026078400831327188317840A5B
:1027A000800184038001F82B01302607F8002708F8
:1027B000FA000318FA0A7808A8007A08A90001307C
:1027C00024078400831325188317840A0008FA005D
:1027D00084030008AA007A08AB0028088400831349
:1027E00029188317840A2B08800084032A08800094
:1027F000013024078400831325188317840A2708CF
:1028000080008403260880007F301D07A4001F0875
:10281000A7001E08A600A9012408A8000A12031395
:10282000D6270A16272C03177F302207A400230877
:10283000A5000318A50A1F08A7001E08A600250862
:10284000A9002408A8000A120313D6270A160317A2
:10285000362C01301E07840083131F188317840A47
:1028600000089F00840300089E00462B9E08031D5D
:10287000412C9F08031D412C0030F800F9004A2C20
:102880004A2C03301E07F8001F08FA000318FA0A42
:102890007A08F90079080313AE007808AD008A15AC
:0428A0000A16682983
:1030000003081F398300193083169900A6309800F1
:10301000903083129800FF30A800B901B801BA01BE
:1030200045100A30C6000630C700C51483161F14A9
:103030009F141F159F118312AA014930A9002B303C
:10304000C9000130CB00A630CA00473083160317F1
:10305000A600A801A701831203138313AB01AC01DF
:10306000AF01B0014030831686001F109F141F155A
:103070009F1583121F179F1783169F1783121F1404
:1030800083160108C03907388100B53083129000DB
:10309000403081008E010B308F00DC308E0001301B
:1030A00003179D000A1203136A2D0A168B15831647
:1030B0008C16C03083128B04F8010D30F7001030ED
:1030C0008400831778080A128A115C220A168A156E
:1030D0008000F80A840AF70B6228A7018B1BA71748
:1030E0008B130317E7010A30E8000130EA001030C3
:1030F000E9000130EB00EC000A128A1103131724D7
:103100000A168A15A71B8B17A7018B1BA7178B13F2
:103110000317EC010830ED008030EE000830EF00BE
:103120000130831690000A128312031358230A16E3
:10313000A71B8B17A7018B1BA7178B130317EC017A
:103140001330ED008030EE001330EF0001308316B5
:1031500090000A128312031358230A16A71B8B1719
:103160000030F8001F08C73978049F00A7018B1BA7
:10317000A7178B13FA300317BD000A128A11031325
:103180006D220A168A15A71B8B171F151F19C62833
:1031900083161E088312C3001E08C400A7018B1BE0
:1031A000A7178B1344080317E600031343080317FC
:1031B000E5000A128A11031355270A168A15A71B60
:1031C0008B17A7018B1BA7178B13831603179C0163
:1031D0009B0120309A00813099007A08A00079087C
:1031E0009F0078089E0077089D000A128A118312BA
:1031F000031339250A168A15A71B8B177A0803179C
:10320000A00079089F0078089E0077089D000313AE
:10321000A7018B1BA7178B130317200883169C008D
:1032200083121F0883169B0083121E0883169A00C0
:1032300083121D0883169900A0019F0148309E004B
:1032400085309D000A128A118312031339250A164C
:103250008A15A71B8B177A080317A00079089F000F
:1032600078089E0077089D000313A7018B1BA71702
:103270008B1303172008EC001F08EB001E08EA0060
:103280001D08E90083169301920191018930900095
:103290000A128312031300200A16A71B8B177A0841
:1032A000BE007908BD007808BC007708BB00A70104
:1032B0008B1BA7178B13FA300317BD000A128A1154
:1032C00003136D220A168A15A71B8B178A113B2B35
:1032D0008A15451CC12C0030F8001F08C739780436
:1032E0009F000330F700F70B73291F151F1976296C
:1032F00083161E088312C3001E08C400A7018B1B7F
:10330000A7178B1344080317E6000313430803179A
:10331000E5000A128A11031355270A168A15A71BFE
:103320008B17A7018B1BA7178B13831603179C0101
:103330009B0120309A00813099007A08A00079081A
:103340009F0078089E0077089D000A128A11831258
:10335000031339250A168A15A71B8B177A0803173A
:10336000A00079089F0078089E0077089D0003134D
:10337000A7018B1BA7178B130317200883169C002C
:1033800083121F0883169B0083121E0883169A005F
:1033900083121D0883169900A0019F0148309E00EA
:1033A00085309D000A128A118312031339250A16EB
:1033B0008A15A71B8B177A080317A00079089F00AE
:1033C00078089E0077089D000313A7018B1BA717A1
:1033D0008B1303172008EC001F08EB001E08EA00FF
:1033E0001D08E90083169301920191018930900034
:1033F0000A128312031300200A16A71B8B177A08E0
:10340000C2007908C1007808C0007708BF00C51C59
:10341000162A743003179D000313430803179E00F8
:103420000A309F000A120313EF2E0A16A7018B1B06
:10343000A7178B1342080317E8000313410803176B
:10344000E700031340080317E60003133F080317C0
:10345000E50003133E080317EC0003133D080317B0
:10346000EB0003133C080317EA0003133B080317A0
:10347000E9000A128A11031374270A168A15A71B7A
:103480008B170319D72AB9012F30B80002308400F6
:10349000A7018B1BA7178B133E080317E800031324
:1034A0003D080317E70003133C080317E600031366
:1034B0003B080317E5000230E9000A128A110313E2
:1034C00039260A168A15A71B8B17A7018B1BA7176E
:1034D0008B1343308316031799000A128A11831243
:1034E000031328260A168A15A71B8B17A7018B1B07
:1034F000A7178B1348300317E7000A30E800EA01EA
:103500002F30E9000130EB00EC010A128A1103139D
:1035100017240A168A15A71B8B17B9012F30B8007C
:1035200002308400A7018B1BA7178B1342080317D7
:10353000E800031341080317E700031340080317CB
:10354000E60003133F080317E5000230E9000A1202
:103550008A11031339260A168A15A71B8B17A70190
:103560008B1BA7178B1343308316031799000A127E
:103570008A118312031328260A168A15A71B8B1794
:10358000A7018B1BA7178B1348300317E7000A30DE
:10359000E800EA012F30E9000130EB00EC000A12EC
:1035A0008A11031317240A168A15A71B8B17A70164
:1035B0008B1BA7178B1342080317E800031341085E
:1035C0000317E700031340080317E60003133F083F
:1035D0000317E500EC01EB012030EA008430E9003C
:1035E0000A128A11031374270A168A15A71B8B1750
:1035F0000318FC2A031D242BA7018B1BA7178B1371
:103600000317E801E7010C30E6008430E5000313FE
:1036100042080317EC00031341080317EB000313E0
:1036200040080317EA0003133F080317E9000A12D2
:103630008A11031374270A168A15A71B8B17031800
:10364000232B031D242B8B12A7018B1BA7178B1376
:103650000317E801E7012030E6008430E50003139A
:1036600042080317EC00031341080317EB00031390
:1036700040080317EA0003133F080317E9000A1282
:103680008A11031374270A168A15A71B8B170318B0
:103690006C2BA7018B1BA7178B1342080317E8009D
:1036A000031341080317E700031340080317E6005C
:1036B00003133F080317E500EC01EB010C30EA00AF
:1036C0008430E9000A128A11031374270A168A1536
:1036D000A71B8B17031C6D2B8B16A7018B1BA71722
:1036E0008B1342080317E800031341080317E70090
:1036F000031340080317E60003133F080317E50010
:10370000EC01EB014830EA008430E9000A128A112A
:10371000031374270A168A15A71B8B170318922BFD
:10372000031D162CA7018B1BA7178B130317E8018A
:10373000E7016030E6008330E50003134208031719
:10374000EC00031341080317EB00031340080317B1
:10375000EA0003133F080317E9000A128A11031352
:1037600074270A168A15A71B8B170318B92B031D7C
:10377000162CA7018B1BA7178B1342080317E80011
:10378000031341080317E700031340080317E6007B
:1037900003133F080317E5000A12031336240A1621
:1037A000A71B8B175430031790003E309100353023
:1037B00092003030930094010313A7018B1BA717CD
:1037C0008B1303300317E700E8010130EA001030E3
:1037D000E9000130EB00EC010A128A1103131724EF
:1037E0000A168A15A71B8B175430031790003C301C
:1037F0009100323092003830930094010313A701F6
:103800008B1BA7178B1303300317E700E801013068
:10381000EA001030E9000130EB00EC010A128A11D5
:10382000031317240A168A15A71B8B17A7018B1BD6
:10383000A7178B130317E801E7014830E60084302F
:10384000E500031342080317EC00031341080317B4
:10385000EB00031340080317EA0003133F080317A4
:10386000E9000A128A11031374270A168A15A71B86
:103870008B17031C652C5430031790003E309100C9
:10388000353092003030930094010313A7018B1B55
:10389000A7178B1303300317E700E8010130EA0094
:1038A0001030E9000130EB00EC000A128A1103131A
:1038B00017240A168A15A71B8B174208BE00410859
:1038C000BD004008BC003F08BB00A7018B1BA71729
:1038D0008B1342080317E800031341080317E7009E
:1038E000031340080317E60003133F080317E5001E
:1038F000EC01EB016030EA008330E9000A128A1122
:10390000031374270A168A15A71B8B17031CB22CE6
:103910005430031790003C30910032309200383020
:10392000930094010313A7018B1BA7178B1303307C
:103930000317E700E8010130EA001030E900013028
:10394000EB00EC000A128A11031317240A168A15D9
:10395000A71B8B174208BE004108BD004008BC00F1
:103960003F08BB00A7018B1BA7178B13FA30031767
:10397000BD000A128A1103136D220A168A15A71BAD
:063980008B1769296300AA
:02400E00713F00
:00000001FF
;PIC16F877
;CRC=E05D  CREATED="19-nov.-20 18:58"
