:100000000B308A00F82B0000FF00030E8301A100D3
:100010000A08A0008A010408A2007708A300780853
:10002000A4007908A5007A08A600831383128B1D0B
:100030001B280B1832288C308400801E21288C1A33
:100040003528220884002308F7002408F800250832
:10005000F9002608FA0020088A00210E8300FF0E0E
:100060007F0E09008A110A12572C8A110A12A02C3D
:100070000A108A100A113F3E03188A0A82000034CF
:100080000034003400340034003400345F34003471
:1000900000340034033400340334003414343E3468
:1000A00014343E34143424342A347F342A34123441
:1000B0004334333408346634613436344934553487
:1000C0002234503400340534033400340034003416
:1000D0001C342234413400340034413422341C3482
:1000E0000034143408343E340834143408340834EA
:1000F0003E34083408340034503430340034003492
:100100000834083408340834083400346034603467
:1001100000340034203410340834043402343E34C3
:100120005134493445343E340034043402347F348D
:100130000034423461345134493446342234413439
:100140004934493436341834143412347F3410347A
:10015000273445344534453439343E344934493400
:1001600049343234013401347134093407343634BB
:1001700049344934493436342634493449344934CD
:100180003E340034363436340034003400345634CF
:10019000363400340034083414342234413400340A
:1001A00014341434143414341434003441342234E8
:1001B00014340834023401345134093406343E34E2
:1001C0004134593455345E347E34093409340934A9
:1001D0007E347F3449344934493436343E344134F2
:1001E0004134413422347F344134413441343E344B
:1001F0007F3449344934493441347F340934093433
:10020000093401343E344134413449343A347F3482
:100210000834083408347F34003441347F344134A6
:10022000003430344034403440343F347F34083478
:100230001434223441347F34403440344034403428
:100240007F3402340C3402347F347F34023404347B
:1002500008347F343E344134413441343E347F34B9
:1002600009340934093406341E342134213421344C
:100270005E347F3409340934093476340A148A1020
:100280000A11453E03188A0A82002634493449344B
:1002900049343234013401347F34013401343F3481
:1002A0004034403440343F341F3420344034203410
:1002B0001F347F342034103420347F3441342234CE
:1002C0001C34223441340734083470340834073481
:1002D0006134513449344534433400347F3441343B
:1002E0000034003402340434083410342034003430
:1002F000003441347F340034043402340134023495
:100300000434403440344034403440340034013408
:1003100002340434003420345434543454347834A3
:100320007F344434443444343834383444344434EA
:100330004434443438344434443444347F343834DA
:100340005434543454341834043404347E3405346E
:10035000053408345434543454343C347F34083431
:10036000043404347834003444347D34403400346C
:100370002034403444343D3400347F341034283445
:1003800044340034003441347F34403400347C340D
:1003900004347834043478347C3408340434043439
:1003A0007834383444344434443438347C34143469
:1003B00014341434083408341434143414347C34AD
:1003C00000347C3408340434043448345434543411
:1003D00054342034043404343F34443444343C34FE
:1003E0004034403420347C341C34203440342034B5
:1003F0001C343C344034303440343C3444342834AD
:100400001034283444340C345034503450343C3498
:100410004434643454344C34443400340834363472
:1004200041344134003400347F34003400344134EA
:100430004134363408340034023401340234043494
:1004400002340A108A140A1182074334613470346A
:1004500074347534723461346E3464346F340034FF
:100460000A108A140A118207543465346D347034CA
:1004700065347234613474347534723461343A34AE
:100480000034F701F80183162F0803103018F7071E
:10049000F70CF80CB018F707F70CF80C3019F70741
:1004A000F70CF80CB019F707F70CF80C301AF7072F
:1004B000F70CF80CB01AF707F70CF80C301BF7071D
:1004C000F70CF80CB01BF707F70CF80C83120800B8
:1004D0000030831688000612831206128316B608AF
:1004E0000319772A8610831286147A2A8316061037
:1004F000831206147B2A831688013708831288002A
:10050000812A8316861283128616862A83168612FD
:100510008312861283160610831206108316861025
:10052000831286100800FF3083168800061283129B
:1005300006168316B5080319A22A8610831286149C
:10054000A52A8316061083120614A62A831686127D
:1005500083128616AB2AFF308316880083120808A0
:100560008316B60086128312861283160610831233
:100570000610831686108312861083163608F8003C
:1005800083120800831633102F083F3C0318CB2A30
:100590004030AF0233140611831206118316AF13D5
:1005A0002F17003033180130B400B6002F08B70001
:1005B000831268220030831633180130B400300CE7
:1005C000F700F70CF70C1F30F7057708BF39B8387C
:1005D000B5003408B6003508B700831268228316C8
:1005E0000611831206150030831633180130B4004B
:1005F000B500831293220030831633180130B40003
:10060000B5008312932278088316B200310B182BA1
:1006100030080739B4000130F7003408F800031936
:10062000152B0310F70DF80B112B7708B204282BAC
:1006300030080739B4000130F7003408F800031916
:10064000252B0310F70DF80B212B7708FF3AB20585
:100650000611831206110030831633180130B400DE
:10066000B6002F08B7008312682283160611831282
:1006700006150030831633180130B400B600320876
:10068000B70083126822080083162108FA002008A8
:10069000840083137A18831780080319382C2108E3
:1006A000FA002008840083137A1883170008523C4C
:1006B000031C7F2B2108FA002008840083137A187A
:1006C000831720300002AE00AF000530B000831267
:1006D000412278088316AD00F8000530F700A830F5
:1006E000840083137808831238208000F80A840A73
:1006F000F70B7B2B7D2B8316722BB52B83162108D2
:10070000FA002008840083137A18831700087E3CBF
:10071000031CAF2B2108FA002008840083137A18E9
:10072000831753300002AE00AF000530B0008312D3
:10073000412278088316AD00F8000530F700A83094
:1007400084008313780883123E218000F80A840A0B
:10075000F70BAB2BAD2B8316A22BB52B8316A80161
:10076000A901AA01AB01AC01831283162108FA008A
:100770002008840083137A18831700080A3A83122A
:100780000319C62B073A0319D12BD32B0730831635
:10079000AF002208B0008312412201307807FE0723
:1007A000322CFD01322C05308316AF002208B00038
:1007B0008312412278087D077F3C0318EA2BFD0154
:1007C00007308316AF002208B000831241220130A7
:1007D0007807FE078316A4012408043C031C312C6F
:1007E000A5012508063C031C2D2CA83024078400F5
:1007F00083130008AD00F7002508F8000319042C46
:100800000310F70CF80B002C771C2B2CA6012208E8
:10081000260203182B2CA701220827020318292CD3
:1008200027087D07AD002508AF002208B00083121D
:10083000412278087E0783162607AE002D08AF00F8
:100840002E08B0002308B1008312C2228316A70A23
:100850000C2CA60A072CA50AF12BA40A2208FD07D6
:10086000EC2B83128316A00A0319A10AFD0A452B5B
:10087000831208007B088316A0007D087B072002F6
:100880000318552C7C08A1007E087C072102031860
:10089000532C2008AF002108B000B1018312C222FE
:1008A0008316A10A442CA00A3D2C8312080083164B
:1008B00006178312061F9C2C0130AF062F1C7A2CC2
:1008C000F8010B30F7006C30840083137808212284
:1008D0008000F80A840AF70B662C2230FD00FE0126
:1008E0008316A1016C30A0000130A200A300831286
:1008F00044239C2CF8010B30F7006C3084008313E8
:10090000780821228000F80A840AF70B802C223014
:10091000FD00FE018316A1016C30A0000130A20091
:10092000A30183124423FB011430FC008030FD003E
:100930002C30FE003A24A9010B108A110A1221283A
:1009400083168C1283128C1EA32C1A08B000300858
:10095000613C031DBD2C4230EC005430ED00EE0133
:100960006E30FD00FE018316A1016C30A000013045
:10097000A200A30083124423D22C3008623C031D42
:10098000D22C4230EF005430F000F1016E30FD0007
:10099000FE018316A1016F30A0000130A200A30167
:1009A000831244238C128A110A1221282810280845
:1009B0008316870083120714831686128312861209
:1009C0008316061083120610831686108312861073
:1009D0008316061183120611A7018B1BA7178B1311
:1009E0008316B601C030B70083126822A71B8B178D
:1009F000A7018B1BA7178B1301308316B600C030DD
:100A0000B70083126822A71B8B17A7018B1BA717A0
:100A10008B138316B6014030B70083126822A71BE0
:100A20008B17A7018B1BA7178B1301308316B600FA
:100A30004030B70083126822A71B8B17A7018B1BBE
:100A4000A7178B138316B601B830B700831268223C
:100A5000A71B8B17A7018B1BA7178B1301308316BE
:100A6000B600B830B70083126822A71B8B174C0B57
:100A7000532DA7018B1BA7178B138316B6013F308D
:100A8000B70083126822A71B8B17A7018B1BA71720
:100A90008B1301308316B6003F30B70083126822F3
:100AA000A71B8B176C2DA7018B1BA7178B13831606
:100AB000B6013E30B70083126822A71B8B17A7012F
:100AC0008B1BA7178B1301308316B6003E30B7007F
:100AD00083126822A71B8B17CD01CE014E08073C5D
:100AE000031CFE2D8316061183120611A7018B1B12
:100AF000A7178B138316B6014030B7008312682204
:100B0000A71B8B17A7018B1BA7178B13013083160D
:100B1000B6004030B70083126822A71B8B174E081F
:100B2000B838D000A7018B1BA7178B138316B6010B
:100B3000831250088316B70083126822A71B8B17F5
:100B40004E08B838D000A7018B1BA7178B130130B4
:100B50008316B600831250088316B70083126822EA
:100B6000A71B8B178316061183120615CF014F089A
:100B70003F3C031CFC2DA7018B1BA7178B13FF30D9
:100B80008316AF0083124D088316B00083124122F2
:100B9000A71B8B177808D000A7018B1BA7178B13F7
:100BA0008316B601831278088316B7008312682271
:100BB000A71B8B17A7018B1BA7178B13FF3083165F
:100BC000AF0083124D088316B00083124122A71B89
:100BD0008B177808D000A7018B1BA7178B13013048
:100BE0008316B600831278088316B7008312682232
:100BF000A71B8B17CF0AB72DCE0A6E2D8A150A12A6
:100C0000252C0130DC00DD00E20153085502E30031
:100C10006308E31F0D2E6308003CFA01DA007A082E
:100C2000DB0054085602E3006308E31F192E630833
:100C3000003CFA01D8007A08D9005308550203187D
:100C4000232EFF30DC00540856020318292EFF30F3
:100C5000DD0059085B02031C812E031D332E58084A
:100C60005A02031C812E0310D80DD90D5A085802C0
:100C7000F7005908FA005B08031C5B0FFA027708BB
:100C8000DE007A08DF005A085E02E0005F08E1003B
:100C90005B08031C5B0FE102DB08031D532E620897
:100CA0005A02031C802EA7018B1BA7178B13530816
:100CB0008316AF00831254088316B00083125708BE
:100CC0008316B1008312C222A71B8B17DF1F722E5F
:100CD0005808DE0759080318590FDF075C08530747
:100CE000D3007E2E6008DE0761080318610FDF075E
:100CF0005C085307D3005D085407D400E20A4C2E69
:100D0000CE2E0310DA0DDB0D58085A02F7005B08EF
:100D1000FA005908031C590FFA027708DE007A0816
:100D2000DF0058085E02E0005F08E1005908031C7C
:100D3000590FE102D908031DA12E62085802031CB5
:100D4000CE2EA7018B1BA7178B1353088316AF005A
:100D5000831254088316B000831257088316B1001B
:100D60008312C222A71B8B17DF1FC02E5A08DE0773
:100D70005B0803185B0FDF075D085407D400CC2E17
:100D80006008DE0761080318610FDF075C0853077E
:100D9000D3005D085407D400E20A9A2E08008E3072
:100DA000F7005708F8005608F900FA01F808031D83
:100DB000E32E7908F800F9010830F702F808031D5E
:100DC000E32EF701EB2E0310F81BEA2EF90DF80DB8
:100DD000F703E32EF8130800590803195C2FE1000C
:100DE0005D0803195C2FE1070318FD2E7F30E10237
:100DF000031C5C2F03195C2F012F8130E1070318BE
:100E00005C2F6108F700F801F901FA015A08E500C2
:100E1000E5175B08E4005C08E3001830E100E2013C
:100E2000631C2A2F6008FA07031C1C2FF90A031DF4
:100E30001C2FF80A0319E2175F08F907031C232F78
:100E4000F80A0319E2175E08DB00DB175B08F807F6
:100E50000318E217E20DF80CF90CFA0CE50CE40C9F
:100E6000E30C0310E10B0F2F0130F70703185C2F81
:100E7000F81B412FE50DFA0DF90DF80DF7030319D5
:100E80005C2FE51F522FFA0A031D522FF90A031D8A
:100E9000522FF80A031D522FF80CF90CFA0CF70A1E
:100EA00003195C2F5A08E2005E08E206E21F5A2F7F
:100EB000F817602FF813602FF701F801F901FA0114
:100EC00008004D08D4005108D406D41F6C2F03111C
:100ED0000310CD1B03149F2F4D08D4005008D500DC
:100EE0004C08D50203197A2FD41F9F2F0308013A0B
:100EF00083009F2F5108D5004D08D5020319862F76
:100F0000D41F9F2F0308013A83009F2F5208D5005A
:100F10004E08D5020319922FD41F9F2F0308013AC0
:100F200083009F2F5308D5004F08D50203199E2F29
:100F3000D41F9F2F0308013A83009F2F031008003E
:100F40008318A52F613084008313F701F801F9019C
:100F5000FA01E101E201E301E40160085F045E04DB
:100F60005D040319E32F2030E5000310D90DDA0DDD
:100F7000DB0DDC0DE10DE20DE30DE40D6008640214
:100F8000031DCC2F5F086302031DCC2F5E08620295
:100F9000031DCC2F5D086102031CDD2F5D08E102FB
:100FA0005E08031C5E0FE2025F08031C5F0FE30292
:100FB0006008031C600FE4020314F70DF80DF90D2F
:100FC000FA0DE50BB52F61088000840A62088000E5
:100FD000840A63088000840A6408800008003108DD
:100FE000840083133218831759088000840A800113
:080FF000B10A0319B20A08005E
:1010000050080319C628DC0054080319C628DC025E
:1010100003180B2810287F30DC070318C628162871
:101020008130DC02031CC6280319C6285C08F700BF
:10103000F801F901FA01DB015108DA00DA17520868
:10104000D9005308D8001930DC005708D80203181B
:1010500039280130D90203183928DA02031839284F
:10106000DB0203183928DB0ADA0AD90A5708D8073D
:101070006B285608D902031854280130DA020318E5
:101080005428DB0203185428DB0ADA0A5608D90769
:101090005708D807031C6B28D90A031D6B28DA0AE6
:1010A000031D6B28DB0A6B2855088038DA02031809
:1010B0006A280130DB0203186A28DB0A55088038E9
:1010C000DA075608D907031C4828DA0A031D4828FE
:1010D000DB0A48287A14DC0B6E2879280310D80D17
:1010E000D90DDA0DDB0D0310FA0DF90DF80DDD0D3C
:1010F00025285D1C81280310F80CF90CFA0CDD0C76
:101100008428F7030319C628DD1BAD280310D80D6A
:10111000D90DDA0DDB0D5708D802031899280130D4
:10112000D90203189928DA0203189928DB02031C54
:10113000BC285608D9020318A4280130DA02031883
:10114000A428DB02031CBC2855088038DA020318E7
:10115000AD280130DB02031CBC28FA0A031DBC28A1
:10116000F90A031DBC28F80A031DBC28F70A031955
:10117000C628F80CF90CFA0C5108DC005508DC06FE
:10118000DC1FC428F817CA28F813CA28F701F80189
:10119000F901FA018A150A12C52C0408D100500879
:1011A000D3000319EE284F08DC004E08DB004D0881
:1011B000DA004C08D900E001DF012030DE00823087
:1011C000DD008A11EC268A157A08CF007908CE0056
:1011D0007808CD007708CC00D30BD3284F08DC006B
:1011E0004E08DB004D08DA004C08D9005908B63C1F
:1011F000D900FA015A08DD00DA170310DA0CDB0C0B
:10120000DC0CFA0CF90CF80CF70CD90BFD28DD1FDF
:101210001429F709F809F909FA09F70A0319F80A6C
:101220000319F90A0319FA0A7A08CF007908CE00DF
:101230007808CD007708CC00CF1F2B29D103D11619
:10124000CC09CD09CE09CF09CC0A0319CD0A03195F
:10125000CE0A0319CF0A3B30D8009A30D700CA30E3
:10126000D600D5010A30D30050080319D10A8314DF
:101270004C30840083134F08DC004E08DB004D081F
:10128000DA004C08D9005808E0005708DF0056087B
:10129000DE005508DD008A11A0278A157808F708B6
:1012A000031D6529500A53020319652951080319C2
:1012B00067290F39530203195F2903189F29D11B8E
:1012C0009F29511B6729203099292030D105D11E33
:1012D0007729D1125008031DD1037708D1002D3092
:1012E000D9008A11EF278A155108F700D10150085B
:1012F0005302031D87297708D1002E30D9008A11A7
:10130000EF278A155108F7002030D1050030303022
:10131000D11E9929D1125008031DD1037708D1009D
:101320002D30D9008A11EF278A155108F700D10115
:101330003030F7077708D9008A11EF278A15831014
:101340005808DC005708DB005608DA005508D900B9
:10135000E001DF01DE010A30DD008A11A0278A15D5
:101360007A08D8007908D7007808D6007708D50021
:10137000D30B3729080080308318DB06E001E10138
:101380005708DF005B08DF0656080319AB2ADE00AA
:10139000F7005A080319B42ADE020319502A031C65
:1013A0000E2A5B08E400E4175C08E3005D08E20035
:1013B000E1010310E40CE30CE20CE10CDE0BD82994
:1013C000DF1FE5296014C82A60105E1060165930CE
:1013D00084008313DD2A6012DF1BF8295E1C032AB8
:1013E000E40CE30CE20CE10CF70A0319C32A032A0C
:1013F000E41B062A0310E10DE20DE30DE40DF703F3
:101400000319C32AF8296017702A60135708DF00F0
:10141000DF1F0C2AE417BC2AE413BC2A5A08DE009A
:10142000F7005608DE025708E400E4175808E30006
:101430005908E200E1010310E40CE30CE20CE10CBA
:10144000DE0B1A2ADF1F272AE014C82AE0105E10DC
:10145000E0165D3084008313DD2AE012DF1B3A2A98
:101460005E1C452AE40CE30CE20CE10CF70A0319BC
:10147000C32A452AE41B482A0310E10DE20DE30DBF
:10148000E40DF7030319C32A3A2AE017702AE01380
:101490005B08DF00DF1F4E2AE417BC2AE413BC2AD6
:1014A0005B08E400E4175C08E3005D08E200DF1F6E
:1014B0005D2AE4136015C82A6011E1015E105930FD
:1014C00084008313DD2ADF1B862A5708DF005E1C99
:1014D000702AE40CE30CE20CE10CF70A0319C32AAE
:1014E000E11F812AE20A031D812AE30A031D812AE2
:1014F000E40A031D812AE40CE30CE20CF70A031949
:10150000C32A601B052AE01B472AA52A8030E4066F
:10151000E41F8E2AC82A5B08DF009B2A5708DF00D9
:10152000E408031D9B2AE308031D9B2AE208031D10
:101530009B2AF701BC2AE41BA52A0310E10DE20D4A
:10154000E30DE40DF70B9B2AC32ADF1FA92AE4173A
:10155000BC2AE413BC2A5A08F7005B08E4005C08C4
:10156000E3005D08E200BC2A5608F7005708E400D3
:101570005808E3005908E2006408F8006308F9001D
:101580006208FA00FB2AF701F801F901FA01FB2AC7
:10159000E101E209E309E409E109E10A031DD62AB0
:1015A000E20A031DD62AE30A0319E40A6018E429B3
:1015B000E018262A60195C2A8B2A0008E207031C1F
:1015C000E72AE30A031DE72AE40A03195E148403E9
:1015D0000008E307031CEF2AE40A03195E148403DE
:1015E0000008801F803AE40703185E14601AEB2994
:1015F000E01A2D2A632A08008E30F7005208F702FD
:101600005308F9005408F800F917F7080319132BC9
:101610000310F908031D0F2BF8080319132BF90CFD
:10162000F80CF70B082BD31F1A2BF809F909F80A45
:101630000319F90A080001302907D0005008803C3E
:101640000318352BA7018B1BA7178B13FB01143035
:10165000FC008030FD002C30FE008A113A248A15EF
:10166000A71B8B17A9010130D0002D08DC002C0826
:10167000DB002B08DA002A08D9009A30E000993004
:10168000DF00DE007E30DD008A11EC268A157A0844
:10169000D4007908D3007808D2007708D100D701A8
:1016A0002E08D6008A11CF268A1583105408D90037
:1016B0005308D8005208D7005108D6007A08DD0038
:1016C0007908DC007808DB007708DA00BB217A08AB
:1016D000D5007908D4007808D3007708D200FC221E
:1016E0007808D1004F08DC004E08DB004D08DA0016
:1016F0004C08D9009A30E0009930DF00DE007E30DF
:10170000DD008A11EC268A157A08D5007908D40004
:101710007808D3007708D200D7012E08D6008A11A6
:10172000CF268A1583105508D9005408D8005308CD
:10173000D7005208D6007A08DD007908DC00780866
:10174000DB007708DA00BB217A08D5007908D400DD
:101750007808D3007708D200FC227808D200290844
:10176000D3005108D4005008D5007808D6000130C5
:10177000D7008A1101268A154F08AD004E08AC002B
:101780004D08AB004C08AA005008A9008A150A129F
:10179000412D80080319DF2BCD010408CC004D102A
:1017A000831B4D1400080C1ED32B99004C08840099
:1017B00083134D188317840A0319850AC92B8A15C8
:1017C0000A12982D4C308400831300080319F52B5E
:1017D0000230F800F701F70BEB2BF80BEA2B9730F0
:1017E000F700F70BF12B800BE82B8A150A12A32DBB
:1017F00003081F3983000C3083169900A23098002B
:10180000903083129800FF30A800A901AD01AC010F
:10181000AB01AA013430AE002F10B001B201B1010A
:1018200083161F149F141F159F1183131F109F14DD
:101830001F159F1583121F179F1783169F1783125B
:101840001F140130CC008A11D62C8A158B15C0309C
:101850008B04F8010D30F7003F30840083137808C3
:101860008A1130228A158000F80A840AF70B2F2C7F
:10187000A7018B1BA7178B13FD010A30FE008316EF
:10188000A1013F30A0000130A200A3008A11831201
:1018900044238A15A71B8B17D3010830D40080304E
:1018A000D5000830D6000130D7008A1101268A15EC
:1018B000D3011330D4008030D5001330D60001306E
:1018C000D7008A1101268A15831606178C168312F3
:1018D0002F1CA32D0030F8001F08C73978049F0083
:1018E0000630F700F70B722C00001F151F19762C1D
:1018F00083161E088312B3001E08B4003408D700F4
:101900003308D6008A11CF268A15DC01DB0120308E
:10191000DA008130D9007A08E0007908DF00780821
:10192000DE007708DD008A11EC268A157A08CF00E0
:101930007908CE007808CD007708CC007A08DC0062
:101940007908DB007808DA007708D900E001DF01C8
:101950004830DE008530DD008A11EC268A157A08D1
:10196000CF007908CE007808CD007708CC007A083F
:10197000D3007908D2007808D1007708D000D701C9
:10198000D601D5018930D40000287A08B80079083A
:10199000B7007808B6007708B5003808CF003708D8
:1019A000CE003608CD003508CC002D08D3002C0819
:1019B000D2002B08D1002A08D0008A1161278A158D
:1019C0000319232DB901B2013930B100033084006D
:1019D0003808CF003708CE003608CD003508CC00D7
:1019E0000230D000CD20B030D9008A11EF278A15FF
:1019F0004330D9008A11EF278A15A7018B1BA7173F
:101A00008B134830FB000A30FC003630FD000730F5
:101A1000FE008A113A248A15A71B8B17A7018B1B7E
:101A2000A7178B134830FD000A30FE008316A10172
:101A30003930A0000130A200A3008A118312442390
:101A40008A15A71B8B173808CF003708CE00360839
:101A5000CD003508CC00D301D2014830D10084300C
:101A6000D0008A1161278A150318382D031D5F2DB8
:101A70003808CF003708CE003608CD003508CC0036
:101A80001B2B5430BF003E30C0003530C100303019
:101A9000C200C301A7018B1BA7178B130330FD00E6
:101AA000FE018316A1013F30A0000130A200A30176
:101AB0008A11831244238A15A71B8B17842D543057
:101AC000BF003E30C0003530C1003030C200C3011D
:101AD000A7018B1BA7178B130330FD00FE01831694
:101AE000A1013F30A0000130A200A3008A1183129F
:101AF00044238A15A71B8B173808AD003708AC00A4
:101B00003608AB003508AA00B2013930B100033005
:101B100084003808CF003708CE003608CD003508DD
:101B2000CC000230D000CD20393084008313C92B83
:101B30000D300C1E992D99000A300C1E9D2D990018
:0A1B4000FA30CC00E22B642C6300A5
:02400E00713F00
:00000001FF
;PIC16F877
;CRC=4BD3  CREATED="03-Nov-20 10:46"
