:1000000008308A00002800000A108A100A110B3EEE
:1000100003188A0A820000340034003400340034AB
:10002000003400345F3400340034003403340034CE
:100030000334003414343E3414343E341434243441
:100040002A347F342A341234433433340834663447
:100050006134363449345534223450340034053454
:1000600003340034003400341C342234413400346E
:100070000034413422341C340034143408343E3407
:1000800008341434083408343E3408340834003456
:100090005034303400340034083408340834083420
:1000A00008340034603460340034003420341034B8
:1000B0000834043402343E345134493445343E3437
:1000C0000034043402347F34003442346134513417
:1000D00049344634223441344934493436341834AE
:1000E000143412347F3410342734453445344534C5
:1000F00039343E34493449344934323401340134DA
:100100007134093407343634493449344934363487
:1001100026344934493449343E3400343634363494
:10012000003400340034563436340034003408349B
:100130001434223441340034143414341434143458
:100140001434003441342234143408340234013479
:100150005134093406343E344134593455345E3414
:100160007E340934093409347E347F3449344934C7
:10017000493436343E3441344134413422347F34BE
:100180004134413441343E347F3449344934493474
:1001900041347F3409340934093401343E34413464
:1001A000413449343A347F340834083408347F34D5
:1001B000003441347F3441340034303440344034EE
:1001C00040343F347F3408341434223441347F3493
:1001D00040344034403440347F3402340C340234F0
:1001E0007F347F340234043408347F343E34413465
:1001F000413441343E347F340934093409340634FF
:100200001E342134213421345E347F3409340934DE
:10021000093476340A148A100A11820726344934C4
:10022000493449343234013401347F3401340134E7
:100230003F344034403440343F341F342034403461
:1002400020341F347F342034103420347F34413440
:1002500022341C34223441340734083470340834D6
:1002600007346134513449344534433400347F34E5
:10027000413400340034023404340834103420345F
:100280000034003441347F34003404340234013407
:100290000234043440344034403440344034003478
:1002A000013402340434003420345434543454348B
:1002B00078347F3444344434443438343834443427
:1002C00044344434443438344434443444347F343F
:1002D00038345434543454341834043404347E34AC
:1002E0000534053408345434543454343C347F34A5
:1002F0000834043404347834003444347D344034D5
:1003000000342034403444343D3400347F341034DD
:10031000283444340034003441347F3440340034D1
:100320007C3404347834043478347C340834043431
:1003300004347834383444344434443438347C34E9
:100340001434143414340834083414341434143485
:100350007C3400347C340834043404344834543459
:10036000543454342034043404343F344434443456
:100370003C344034403420347C341C342034403409
:1003800020341C343C344034303440343C34443425
:1003900028341034283444340C345034503450341D
:1003A0003C344434643454344C34443400340834DD
:1003B000363441344134003400347F340034003466
:1003C00041344134363408340034023401340234C8
:1003D0000434023400308316880006128312061299
:1003E000F6080319F8298316861083128614FC294F
:1003F0008316061083120614FD29831688017B08D4
:1004000083128800032A8316861283128616082A0E
:100410008316861283128612831606108312061024
:1004200083168610831286100800F701F8016F0802
:1004300003107018F707F70CF80CF018F707F70C13
:10044000F80C7019F707F70CF80CF019F707F70C10
:10045000F80C701AF707F70CF80CF01AF707F70CFE
:10046000F80C701BF707F70CF80CF01BF707F70CEC
:10047000F80C080022102208831687008312071444
:1004800083168612831286128316061083120610B4
:1004900083168610831286108316061183120611A6
:1004A000F601C030FB00EA210130F600C030FB004D
:1004B000EA21F6014030FB00EA210130F60040302D
:1004C000FB00EA21F601B830FB00EA210130F6001A
:1004D000B830FB00EA21590B772AF6013F30FB00C8
:1004E000EA210130F6003F30FB00EA21802AF601C4
:1004F0003E30FB00EA210130F6003E30FB00EA21ED
:10050000DA01DB015B08073C031CC62A83160611CF
:1005100083120611F6014030FB00EA210130F6009B
:100520004030FB00EA215B08B838DD00F6015D08C9
:10053000FB00EA215B08B838DD000130F6005D08F9
:10054000FB00EA218316061183120615DC015C0804
:100550003F3C031CC42AFF30EF005A08F00015226C
:100560007808DD00F6017808FB00EA21FF30EF0093
:100570005A08F00015227808DD000130F6007808EE
:10058000FB00EA21DC0AA72ADB0A822A8A150A1262
:100590005E28FF3083168800061283120616F508BF
:1005A0000319D72A8316861083128614DB2A831632
:1005B000061083120614DC2A83168612831286160E
:1005C000E12AFF308316880083120808F60083169C
:1005D0008612831286128316061083120610831663
:1005E0008610831286107608F800080073106F08D2
:1005F0003F3C0318FE2A4030EF02731483160611A5
:1006000083120611EF136F17003073180130F400D6
:10061000F6006F08FB00EA21003073180130F40087
:10062000700CF700F70CF70C1F30F7057708BF398F
:10063000B838F5007408F6007508FB00EA21831647
:10064000061183120615003073180130F400F5000E
:10065000C922003073180130F400F500C92278086F
:10066000F200710B432B70080739F4000130F700DA
:100670007408F8000319402B0310F70DF80B3C2BFE
:100680007708F204532B70080739F4000130F700A3
:100690007408F8000319502B0310F70DF80B4C2BBE
:1006A0007708FF3AF205831606118312061100300F
:1006B00073180130F400F6006F08FB00EA2183167E
:1006C000061183120615003073180130F400F6008D
:1006D0007208FB00EA2108006108FA006008840043
:1006E00083137A18831780080319412C6108FA00D4
:1006F0006008840083137A1883170008523C031C97
:100700009F2B6108FA006008840083137A1883170E
:1007100020300002EE00EF000530F00015227808CE
:10072000ED00F8000530F700683084008313780886
:1007300004208000F80A840AF70B972BCD2B610860
:10074000FA006008840083137A18831700087E3C3F
:10075000031CC82B6108FA006008840083137A1810
:10076000831753300002EE00EF000530F000152231
:100770007808ED00F8000530F70068308400831336
:1007800078080A218000F80A840AF70BC02BCD2BC9
:10079000E801E901EA01EB01EC016108FA006008F7
:1007A000840083137A18831700080A3A0319DC2B94
:1007B000073A0319E52BE72B0730EF006208F0003A
:1007C000152201307807DF073C2CDE013C2C053078
:1007D000EF006208F000152278085E077F3C0318DE
:1007E000FA2BDE010730EF006208F000152201301D
:1007F0007807DF07E4016408043C031C3C2CE50196
:100800006508063C031C382C683064078400831399
:100810000008ED00F7006508F8000319132C031019
:10082000F70CF80B0F2C771C362CE60162086602D9
:100830000318362CE701620867020318342C670896
:100840005E07ED006508EF006208F00015227808E9
:100850005F076607EE006D08EF006E08F0006308A2
:10086000F100F622E70A1B2CE60A162CE50A002CFA
:10087000E40A6208DE07FB2BE00A0319E10ADE0A3C
:100880006C2B08000130E200E300E80159085B022C
:10089000E9006908E91F4E2C6908003CFA01E000F4
:1008A0007A08E1005A085C02E9006908E91F5A2C3D
:1008B0006908003CFA01DE007A08DF0059085B0293
:1008C0000318642CFF30E2005A085C0203186A2CFB
:1008D000FF30E3005F086102031CB62C031D742C7B
:1008E0005E086002031CB62C0310DE0DDF0D6008ED
:1008F0005E02F7005F08FA006108031C610FFA024C
:100900007708E4007A08E50060086402E6006508FC
:10091000E7006108031C610FE702E108031D942C46
:1009200068086002031CB52C5908EF005A08F00053
:100930005D08F100F622E51FA72C5E08E4075F08BA
:1009400003185F0FE50762085907D900B32C660842
:10095000E40767080318670FE50762085907D9001D
:1009600063085A07DA00E80A8D2CF72C0310E00D13
:10097000E10D5E086002F7006108FA005F08031CE1
:100980005F0FFA027708E4007A08E5005E08640267
:10099000E6006508E7005F08031C5F0FE702DF0859
:1009A000031DD62C68085E02031CF72C5908EF00C3
:1009B0005A08F0005D08F100F622E51FE92C6008F6
:1009C000E40761080318610FE50763085A07DA00B6
:1009D000F52C6608E40767080318670FE507620847
:1009E0005907D90063085A07DA00E80ACF2C080033
:1009F0006A080319682DF2006E080319682DF207C2
:100A00000318092D7F30F202031C682D0319682D8D
:100A10000D2D8130F2070318682D7208F700F801D8
:100A2000F901FA016B08F600F6176C08F5006D087D
:100A3000F4001830F200F301741C362D7108FA0727
:100A4000031C282DF90A031D282DF80A0319F31792
:100A50007008F907031C2F2DF80A0319F3176F0804
:100A6000EC00EC176C08F8070318F317F30DF80CFB
:100A7000F90CFA0CF60CF50CF40C0310F20B1B2D10
:100A80000130F7070318682DF81B4D2DF60DFA0DF0
:100A9000F90DF80DF7030319682DF61F5E2DFA0AFC
:100AA000031D5E2DF90A031D5E2DF80A031D5E2D40
:100AB000F80CF90CFA0CF70A0319682D6B08F3000F
:100AC0006F08F306F31F662DF8176C2DF8136C2DC5
:100AD000F701F801F901FA0108006A08B63CEA00DA
:100AE000FA016B08EE00EB170310EB0CEC0CED0CAD
:100AF000FA0CF90CF80CF70CEA0B742DEE1F8B2D89
:100B0000F709F809F909FA09F70A0319F80A0319A4
:100B1000F90A0319FA0A08008318912D723084002B
:100B20008313F701F801F901FA01F201F301F4016D
:100B3000F501710870046F046E040319CF2D203085
:100B4000F6000310EA0DEB0DEC0DED0DF20DF30DBB
:100B5000F40DF50D71087502031DB82D70087402AF
:100B6000031DB82D6F087302031DB82D6E087202A5
:100B7000031CC92D6E08F2026F08031C6F0FF302ED
:100B80007008031C700FF4027108031C710FF5024A
:100B90000314F70DF80DF90DFA0DF60BA12D7208DF
:100BA0008000840A73088000840A74088000840A24
:100BB000750880000800270884008313281883170D
:100BC0006A088000840A8001A70A0319A80A08009D
:100BD0000408E2006108E4000319072E6008ED0034
:100BE0005F08EC005E08EB005D08EA00F101F0012F
:100BF0002030EF008230EE00F8247A08E000790817
:100C0000DF007808DE007708DD00E40BEE2D6008D9
:100C1000ED005F08EC005E08EB005D08EA006D2562
:100C20007A08E0007908DF007808DE007708DD0048
:100C3000E01F272EE203E216DD09DE09DF09E009E5
:100C4000DD0A0319DE0A0319DF0A0319E00A3B3043
:100C5000E9009A30E800CA30E700E6010A30E40013
:100C600061080319E20A83145D308400831360086D
:100C7000ED005F08EC005E08EB005D08EA00690823
:100C8000F1006808F0006708EF006608EE008C25A8
:100C90007808F708031D5F2E610A640203195F2EAE
:100CA00062080319612E0F3964020319592E0318C3
:100CB000912EE21B912E621B612E20308D2E203052
:100CC000E205E21E6F2EE2126108031DE2037708BF
:100CD000E2002D30EA00DB256208F700E20161083E
:100CE0006402031D7D2E7708E2002E30EA00DB252A
:100CF0006208F7002030E20500303030E21E8D2E11
:100D0000E2126108031DE2037708E2002D30EA00D9
:100D1000DB256208F700E2013030F7077708EA00C8
:100D2000DB2583106908ED006808EC006708EB001C
:100D30006608EA00F101F001EF010A30EE008C25AF
:100D40007A08E9007908E8007808E7007708E60003
:100D5000E40B332E8A150A12AD280408E20061085C
:100D6000E4000319CC2E6008ED005F08EC005E087B
:100D7000EB005D08EA00F101F0012030EF00823065
:100D8000EE00F8247A08E0007908DF007808DE0039
:100D90007708DD00E40BB32E6008ED005F08EC007F
:100DA0005E08EB005D08EA006D257A08E00079082E
:100DB000DF007808DE007708DD00E01FEC2EE2039C
:100DC000E216DD09DE09DF09E009DD0A0319DE0AA2
:100DD0000319DF0A0319E00A3B30E9009A30E80002
:100DE000CA30E700E6010A30E40061080319E20AAC
:100DF00083145D30840083136008ED005F08EC000D
:100E00005E08EB005D08EA006908F1006808F00080
:100E10006708EF006608EE008C257808F708031DC8
:100E2000242F610A64020319242F62080319262F54
:100E30000F39640203191E2F03185A2FE21B5A2F71
:100E4000621B262F2030552F2030E205E21E352F61
:100E5000E2126108031DE2037708E2002D300C1E48
:100E60002F2F99006208F700E20161086402031D58
:100E7000442F7708E2002E300C1E3C2F99006208A8
:100E8000F7002030E20500303030E21E552FE2122C
:100E90006108031DE2037708E2002D300C1E4E2F7F
:100EA00099006208F700E2013030F70777080C1E5E
:100EB000572F990083106908ED006808EC00670857
:100EC000EB006608EA00F101F001EF010A30EE00E4
:100ED0008C257A08E9007908E8007808E7007708A7
:100EE000E600E40BF82E8A150A12DA285B3084003B
:100EF000831300080319892F0230F800F701F70B5C
:100F00007F2FF80B7E2F9730F700F70B852F800B84
:100F10007C2F08004230DB005430DC00DD016E30F5
:100F2000DE00DF01E1015B30E0000130E2005A0841
:100F3000E3006C2308008C1E9B2F1A08D900590867
:100F4000613C031DAE2F0130DA008A270230DA003F
:100F5000FA30DB007627DA0BA82FBB2F5908623C4A
:100F6000031DBB2FDA018A270230DA00FA30DB00DA
:0C0F70007627DA0BB62F8A150A12ED283E
:1010000003081F398300193083169900A230980015
:10101000903083129800FF30A200A301A501A40123
:101020003430A600A801A70183161F149F141F15B2
:101030009F1183138312A001A1015430B3006530C6
:10104000B4006D30B5007030B6006530B700723056
:10105000B8006130B9007430BA007530BB0072302E
:10106000BC006130BD003A30BE00BF018430C0001A
:101070001430C100C201C3018430C4001230C50065
:10108000C601C7018430C8001830C900CA01CB01AD
:101090008430CC00DC30CD00CE01CF018630D000D2
:1010A0001630D100D201D3018330D4007030D50086
:1010B000D601D7010130D9008A113A2A8A15DE01FA
:1010C0000A30DF00E1013330E0000130E200E300EC
:1010D0008A116C238A15D9010830DA008030DB00D0
:1010E0000830DC000130DD008A1142248A15D90164
:1010F0001330DA008030DB001330DC000130DD001B
:101100008A1142248A15D8015808093C031CE62894
:10111000580DF700F70DFC30F7057708403E8400C6
:1011200083130008D900840A0008DA00840A000842
:10113000DB00840A0008DC00A8012930A700033086
:1011400084005C08E0005B08DF005A08DE005908F4
:10115000DD000230E1008A11E82D8A15B030EA0086
:101160008A11DB258A154330EA008A11DB258A15AE
:10117000580DF700F70DFC30F7057708403E840066
:1011800083130008D900840A0008DA00840A0008E2
:10119000DB00840A0008DC00893084005C08E00081
:1011A0005B08DF005A08DE005908DD000230E1006C
:1011B0008A11AD2E8A150D300C1EDC289900C8301E
:1011C000DB008A1176278A15D80A8428831606152B
:1011D00083128C1EEE288A119B2F8A15E628630045
:02400E00713F00
:00000001FF
;PIC16F877
;CRC=BE1A  CREATED="28-Oct-20 20:21"
