:100000000C308A00142C0000FF00030E8301A100B5
:100010000A08A0008A010408A2007708A300780853
:10002000A4007908A5007A08A600831383128B1D0B
:100030001B280B1832288C308400801E21288C1A33
:100040003528220884002308F7002408F800250832
:10005000F9002608FA0020088A00210E8300FF0E0E
:100060007F0E09008A110A125B2C8A110A12BA2C1F
:100070000A108A100A113F3E03188A0A82000034CF
:100080000034003400340034003400345F34003471
:1000900000340034033400340334003414343E3468
:1000A00014343E34143424342A347F342A34123441
:1000B0004334333408346634613436344934553487
:1000C0002234503400340534033400340034003416
:1000D0001C342234413400340034413422341C3482
:1000E0000034143408343E340834143408340834EA
:1000F0003E34083408340034503430340034003492
:100100000834083408340834083400346034603467
:1001100000340034203410340834043402343E34C3
:100120005134493445343E340034043402347F348D
:100130000034423461345134493446342234413439
:100140004934493436341834143412347F3410347A
:10015000273445344534453439343E344934493400
:1001600049343234013401347134093407343634BB
:1001700049344934493436342634493449344934CD
:100180003E340034363436340034003400345634CF
:10019000363400340034083414342234413400340A
:1001A00014341434143414341434003441342234E8
:1001B00014340834023401345134093406343E34E2
:1001C0004134593455345E347E34093409340934A9
:1001D0007E347F3449344934493436343E344134F2
:1001E0004134413422347F344134413441343E344B
:1001F0007F3449344934493441347F340934093433
:10020000093401343E344134413449343A347F3482
:100210000834083408347F34003441347F344134A6
:10022000003430344034403440343F347F34083478
:100230001434223441347F34403440344034403428
:100240007F3402340C3402347F347F34023404347B
:1002500008347F343E344134413441343E347F34B9
:1002600009340934093406341E342134213421344C
:100270005E347F3409340934093476340A148A1020
:100280000A11453E03188A0A82002634493449344B
:1002900049343234013401347F34013401343F3481
:1002A0004034403440343F341F3420344034203410
:1002B0001F347F342034103420347F3441342234CE
:1002C0001C34223441340734083470340834073481
:1002D0006134513449344534433400347F3441343B
:1002E0000034003402340434083410342034003430
:1002F000003441347F340034043402340134023495
:100300000434403440344034403440340034013408
:1003100002340434003420345434543454347834A3
:100320007F344434443444343834383444344434EA
:100330004434443438344434443444347F343834DA
:100340005434543454341834043404347E3405346E
:10035000053408345434543454343C347F34083431
:10036000043404347834003444347D34403400346C
:100370002034403444343D3400347F341034283445
:1003800044340034003441347F34403400347C340D
:1003900004347834043478347C3408340434043439
:1003A0007834383444344434443438347C34143469
:1003B00014341434083408341434143414347C34AD
:1003C00000347C3408340434043448345434543411
:1003D00054342034043404343F34443444343C34FE
:1003E0004034403420347C341C34203440342034B5
:1003F0001C343C344034303440343C3444342834AD
:100400001034283444340C345034503450343C3498
:100410004434643454344C34443400340834363472
:1004200041344134003400347F34003400344134EA
:100430004134363408340034023401340234043494
:1004400002340A108A140A1182074334613470346A
:1004500074347534723461346E3464346F340034FF
:100460000A108A140A118207543465346D347034CA
:1004700065347234613474347534723461343A34AE
:10048000003478340034F701F80183163E08031075
:100490003F18F707F70CF80CBF18F707F70CF80C24
:1004A0003F19F707F70CF80CBF19F707F70CF80C12
:1004B0003F1AF707F70CF80CBF1AF707F70CF80C00
:1004C0003F1BF707F70CF80CBF1BF707F70CF80CEE
:1004D0008312080000308316880006128312061269
:1004E0008316C5080319792A8610831286147C2A7C
:1004F00083160610831206147D2A83168801460887
:1005000083128800832A8316861283128616882A0D
:100510008316861283128612831606108312061023
:1005200083168610831286100800FF308316880019
:100530000612831206168316C4080319A42A86100D
:1005400083128614A72A8316061083120614A82A7B
:100550008316861283128616AD2AFF308316880012
:10056000831208088316C50086128312861283162A
:1005700006108312061083168610831286108316C7
:100580004508F80083120800831642103E083F3CDD
:100590000318CD2A4030BE02421406118312061100
:1005A0008316BE133E17003042180130C300C50049
:1005B0003E08C60083126A220030831642180130BA
:1005C000C3003F0CF700F70CF70C1F30F705770856
:1005D000BF39B838C4004308C5004408C6008312B8
:1005E0006A228316061183120615003083164218FC
:1005F0000130C300C40083129522003083164218D4
:100600000130C300C4008312952278088316C1000C
:10061000400B1A2B3F080739C3000130F70043088D
:10062000F8000319172B0310F70DF80B132B77089D
:10063000C1042A2B3F080739C3000130F7004308E3
:10064000F8000319272B0310F70DF80B232B77085D
:10065000FF3AC105061183120611003083164218B5
:100660000130C300C5003E08C60083126A2283160B
:100670000611831206150030831642180130C3009C
:10068000C5004108C60083126A220800831630089C
:10069000FA002F08840083137A188317800803193F
:1006A0003C2C3008FA002F08840083137A18831733
:1006B0000008523C031C812B3008FA002F088400EC
:1006C00083137A18831720300002BD00BE00053066
:1006D000BF008312432278088316BC00F80005305F
:1006E000F700B73084008313780883123820800025
:1006F000F80A840AF70B7D2B7F2B8316742BB72BFC
:1007000083163008FA002F08840083137A188317A1
:1007100000087E3C031CB12B3008FA002F0884002F
:1007200083137A18831753300002BD00BE000530D2
:10073000BF008312432278088316BC00F8000530FE
:10074000F700B73084008313780883123E218000BD
:10075000F80A840AF70BAD2BAF2B8316A42BB72B0B
:100760008316B701B801B901BA01BB018312831620
:100770003008FA002F08840083137A1883170008C2
:100780000A3A83120319C82B073A0319D52BD92B20
:1007900007308316BE003108BF00831243220130A8
:1007A00078078316AE07372C83128316AD01372CDA
:1007B000831205308316BE003108BF008312432226
:1007C000780883162D077F3C0318F12BAD01073005
:1007D000BE003108BF008312432201307807831620
:1007E000AE07B3013308043C031C372CB4013408B2
:1007F000063C031C332CB7303307840083130008F6
:10080000BC00F7003408F80003190A2C0310F70C99
:10081000F80B062C771C312CB50131083502031872
:10082000312CB6013108360203182F2C36082D075B
:10083000BC003408BE003108BF0083124322780890
:1008400083162E073507BD003C08BE003D08BF00DB
:100850003208C0008312C4228316B60A122CB50ACD
:100860000D2CB40AF72BB30A3108AD07F22BAF0AEF
:100870000319B00AAD0A472B8312080083162B0810
:10088000AF002D082B072F020318592C2C08B0009D
:100890002E082C0730020318572C2F08BE003008F2
:1008A000BF00C0018312C4228316B00A482CAF0ACD
:1008B000412C83120800831606178312061FA22CF0
:1008C0000130AF062F1C7E2CF8010B30F700A03052
:1008D00084008313780821228000F80A840AF70B29
:1008E0006A2C22308316AD00AE01B001A030AF00FB
:1008F0000130B100B20083124623A22CF8010B3064
:10090000F700A03084008313780821228000F80AC1
:10091000840AF70B842C22308316AD00AE01B0019F
:10092000A030AF000130B100B2018312462383161C
:10093000AB011430AC008030AD002C30AE0083121F
:100940003E24A9010B108A110A1221287C30840050
:10095000831300080319B92C0230F800F701F70BD4
:10096000AF2CF80BAE2C9730F700F70BB52C800BA3
:10097000AC2C080083168C1283128C1EBD2C1A0816
:10098000B0003008783C031DDE2C4230F0005430BB
:10099000F100F2016E308316AD00AE01B00170308F
:1009A000AF000130B100B200831246230230FB00D9
:1009B000FA30FC00A624FB0BD82CF62C4230F300B6
:1009C0005430F400F5016E308316AD00AE01B00175
:1009D0007330AF000130B100B20183124623023000
:1009E000FB00FA30FC00A624FB0BF12C8C128A11C0
:1009F0000A1221282810280883168700831207145A
:100A0000831686128312861283160610831206102E
:100A10008316861083128610831606118312061120
:100A2000A7018B1BA7178B138316C501C030C60007
:100A300083126A22A71B8B17A7018B1BA7178B1387
:100A400001308316C500C030C60083126A22A71B7E
:100A50008B17A7018B1BA7178B138316C50140307B
:100A6000C60083126A22A71B8B17A7018B1BA7172F
:100A70008B1301308316C5004030C60083126A22F2
:100A8000A71B8B17A7018B1BA7178B138316C501F9
:100A9000B830C60083126A22A71B8B17A7018B1BD5
:100AA000A7178B1301308316C500B830C600831218
:100AB0006A22A71B8B17500B772DA7018B1BA7173B
:100AC0008B138316C5013F30C60083126A22A71B11
:100AD0008B17A7018B1BA7178B1301308316C5003B
:100AE0003F30C60083126A22A71B8B17902DA701E7
:100AF0008B1BA7178B138316C5013E30C6008312CC
:100B00006A22A71B8B17A7018B1BA7178B1301301A
:100B10008316C5003E30C60083126A22A71B8B17BE
:100B2000D101D2015208073C031C222E8316061164
:100B300083120611A7018B1BA7178B138316C50100
:100B40004030C60083126A22A71B8B17A7018B1B9C
:100B5000A7178B1301308316C5004030C6008312DF
:100B60006A22A71B8B175208B838D400A7018B1B29
:100B7000A7178B138316C501831254088316C6006A
:100B800083126A22A71B8B175208B838D400A7011A
:100B90008B1BA7178B1301308316C50083125408D3
:100BA0008316C60083126A22A71B8B1783160611B1
:100BB00083120615D30153083F3C031C202EA701C6
:100BC0008B1BA7178B13FF308316BE0083125108AF
:100BD0008316BF0083124322A71B8B177808D4000B
:100BE000A7018B1BA7178B138316C50183127808E7
:100BF0008316C60083126A22A71B8B17A7018B1BC3
:100C0000A7178B13FF308316BE008312510883167B
:100C1000BF0083124322A71B8B177808D400A701BB
:100C20008B1BA7178B1301308316C500831278081E
:100C30008316C60083126A22A71B8B17D30ADB2DEB
:100C4000D20A922D8A150A12402C0130E000E100F0
:100C5000E60157085902E7006708E71F312E6708C9
:100C6000003CFA01DE007A08DF0058085A02E7006B
:100C70006708E71F3D2E6708003CFA01DC007A0890
:100C8000DD00570859020318472EFF30E0005808CE
:100C90005A0203184D2EFF30E1005D085F02031C6D
:100CA000A52E031D572E5C085E02031CA52E031003
:100CB000DC0DDD0D5E085C02F7005D08FA005F08E0
:100CC000031C5F0FFA027708E2007A08E3005E086F
:100CD0006202E4006308E5005F08031C5F0FE502A1
:100CE000DF08031D772E66085E02031CA42EA701F1
:100CF0008B1BA7178B1357088316BE008312580847
:100D00008316BF0083125B088316C0008312C422BF
:100D1000A71B8B17E31F962E5C08E2075D080318DC
:100D20005D0FE30760085707D700A22E6408E207AB
:100D300065080318650FE30760085707D7006108C7
:100D40005807D800E60A702EF22E0310DE0DDF0DD4
:100D50005C085E02F7005F08FA005D08031C5D0F87
:100D6000FA027708E2007A08E3005C086202E40015
:100D70006308E5005D08031C5D0FE502DD08031D47
:100D8000C52E66085C02031CF22EA7018B1BA71759
:100D90008B1357088316BE00831258088316BF00B2
:100DA00083125B088316C0008312C422A71B8B1713
:100DB000E31FE42E5E08E2075F0803185F0FE307F6
:100DC00061085807D800F02E6408E2076508031888
:100DD000650FE30760085707D70061085807D80078
:100DE000E60ABE2E08008E30F7005B08F8005A08AD
:100DF000F900FA01F808031D072F7908F800F90136
:100E00000830F702F808031D072FF7010F2F031012
:100E1000F81B0E2FF90DF80DF703072FF813080034
:100E20005D080319802FE50061080319802FE5078D
:100E30000318212F7F30E502031C802F0319802F18
:100E4000252F8130E5070318802F6508F700F8018A
:100E5000F901FA015E08E900E9175F08E800600897
:100E6000E7001830E500E601671C4E2F6408FA071A
:100E7000031C402FF90A031D402FF80A0319E61737
:100E80006308F907031C472FF80A0319E6176208DD
:100E9000DF00DF175F08F8070318E617E60DF80C08
:100EA000F90CFA0CE90CE80CE70C0310E50B332FF6
:100EB0000130F7070318802FF81B652FE90DFA0D95
:100EC000F90DF80DF7030319802FE91F762FFA0AA1
:100ED000031D762FF90A031D762FF80A031D762FBE
:100EE000F80CF90CFA0CF70A0319802F5E08E600DB
:100EF0006208E606E61F7E2FF817842FF813842F6A
:100F0000F701F801F901FA0108005108D800550865
:100F1000D806D81F902F03110310D11B0314C32F21
:100F20005108D8005408D9005008D90203199E2F3F
:100F3000D81FC32F0308013A8300C32F5508D900D7
:100F40005108D9020319AA2FD81FC32F0308013A49
:100F50008300C32F5608D9005208D9020319B62FAF
:100F6000D81FC32F0308013A8300C32F5708D900A5
:100F70005308D9020319C22FD81FC32F0308013AFF
:100F80008300C32F03100800310884008313321834
:100F900083175D088000840A8001B10A0319B20A30
:100FA00008008E30F7005608F7025708F900580875
:100FB000F800F917F7080319E82F0310F908031DC3
:100FC000E42FF8080319E82FF90CF80CF70BDD2FC4
:100FD000D71FEF2FF809F909F80A0319F90A0800D1
:1010000054080319C628E00058080319C628E0024E
:1010100003180B2810287F30E0070318C62816286D
:101020008130E002031CC6280319C6286008F700B7
:10103000F801F901FA01DF015508DE00DE17560854
:10104000DD005708DC001930E0005B08DC02031803
:1010500039280130DD0203183928DE020318392847
:10106000DF0203183928DF0ADE0ADD0A5B08DC0725
:101070006B285A08DD02031854280130DE020318D9
:101080005428DF0203185428DF0ADE0A5A08DD0755
:101090005B08DC07031C6B28DD0A031D6B28DE0AD6
:1010A000031D6B28DF0A6B2859088038DE020318FD
:1010B0006A280130DF0203186A28DF0A59088038DD
:1010C000DE075A08DD07031C4828DE0A031D4828EE
:1010D000DF0A48287A14E00B6E2879280310DC0D0B
:1010E000DD0DDE0DDF0D0310FA0DF90DF80DE10D2C
:1010F0002528611C81280310F80CF90CFA0CE10C6E
:101100008428F7030319C628E11BAD280310DC0D62
:10111000DD0DDE0DDF0D5B08DC02031899280130C0
:10112000DD0203189928DE0203189928DF02031C48
:10113000BC285A08DD020318A4280130DE02031877
:10114000A428DF02031CBC2859088038DE020318DB
:10115000AD280130DF02031CBC28FA0A031DBC289D
:10116000F90A031DBC28F80A031DBC28F70A031955
:10117000C628F80CF90CFA0C5508E0005908E006EE
:10118000E01FC428F817CA28F813CA28F701F80185
:10119000F901FA018A150A12E42C8318D228653065
:1011A00084008313F701F801F901FA01E501E60172
:1011B000E701E8016408630462046104031910296B
:1011C0002030E9000310DD0DDE0DDF0DE00DE50D33
:1011D000E60DE70DE80D64086802031DF9286308B1
:1011E0006702031DF92862086602031DF9286108D9
:1011F0006502031C0A296108E5026208031C620FEC
:10120000E6026308031C630FE7026408031C640F13
:10121000E8020314F70DF80DF90DFA0DE90BE228B9
:1012200065088000840A66088000840A67088000D8
:10123000840A6808800008000408D5005408D70014
:1012400003193D295308E0005208DF005108DE0071
:101250005008DD00E401E3012030E2008230E100CB
:101260008A1110278A157A08D3007908D2007808E5
:10127000D1007708D000D70B22295308E00052088C
:10128000DF005108DE005008DD005D08B63CDD00DF
:10129000FA015E08E100DE170310DE0CDF0CE00C43
:1012A000FA0CF90CF80CF70CDD0B4C29E11F632943
:1012B000F709F809F909FA09F70A0319F80A0319ED
:1012C000F90A0319FA0A7A08D3007908D2007808D3
:1012D000D1007708D000D31F7A29D503D516D009BD
:1012E000D109D209D309D00A0319D10A0319D20AA4
:1012F0000319D30A3B30DC009A30DB00CA30DA0035
:10130000D9010A30D70054080319D50A8314503084
:10131000840083135308E0005208DF005108DE0008
:101320005008DD005C08E4005B08E3005A08E200B6
:101330005908E100CD207808F708031DB229540AA6
:1013400057020319B22955080319B4290F39570256
:101350000319AC290318EC29D51BEC29551BB4291A
:101360002030E6292030D505D51EC429D5125408D1
:10137000031DD5037708D5002D30DD008A11C42761
:101380008A155508F700D50154085702031DD429C2
:101390007708D5002E30DD008A11C4278A1555083C
:1013A000F7002030D50500303030D51EE629D512A3
:1013B0005408031DD5037708D5002D30DD008A11B0
:1013C000C4278A155508F700D5013030F70777088C
:1013D000DD008A11C4278A1583105C08E0005B08D1
:1013E000DF005A08DE005908DD00E401E301E201F4
:1013F0000A30E100CD207A08DC007908DB007808AB
:10140000DA007708D900D70B8629080080308318C6
:10141000DF06E401E5015B08E3005F08E3065A0824
:101420000319F62AE200F7005E080319FF2AE20218
:1014300003199B2A031C592A5F08E800E817600873
:10144000E7006108E600E5010310E80CE70CE60C94
:10145000E50CE20B232AE31F302A6414132B6410DB
:10146000621064165D3084008313282B6412E31B22
:10147000432A621C4E2AE80CE70CE60CE50CF70A3E
:1014800003190E2B4E2AE81B512A0310E50DE60D19
:10149000E70DE80DF70303190E2B432A6417BB2A47
:1014A00064135B08E300E31F572AE817072BE813D0
:1014B000072B5E08E200F7005A08E2025B08E8002A
:1014C000E8175C08E7005D08E600E5010310E80C9A
:1014D000E70CE60CE50CE20B652AE31F722AE41424
:1014E000132BE4106210E416613084008313282B60
:1014F000E412E31B852A621C902AE80CE70CE60C38
:10150000E50CF70A03190E2B902AE81B932A031007
:10151000E50DE60DE70DE80DF70303190E2B852AFF
:10152000E417BB2AE4135F08E300E31F992AE817D6
:10153000072BE813072B5F08E800E8176008E700AF
:101540006108E600E31FA82AE8136415132B641151
:10155000E50162105D3084008313282BE31BD12A40
:101560005B08E300621CBB2AE80CE70CE60CE50C08
:10157000F70A03190E2BE51FCC2AE60A031DCC2A15
:10158000E70A031DCC2AE80A031DCC2AE80CE70C65
:10159000E60CF70A03190E2B641B502AE41B922A4F
:1015A000F02A8030E806E81FD92A132B5F08E300F1
:1015B000E62A5B08E300E808031DE62AE708031DA6
:1015C000E62AE608031DE62AF701072BE81BF02AA6
:1015D0000310E50DE60DE70DE80DF70BE62A0E2BDF
:1015E000E31FF42AE817072BE813072B5E08F70020
:1015F0005F08E8006008E7006108E600072B5A086A
:10160000F7005B08E8005C08E7005D08E600680892
:10161000F8006708F9006608FA00462BF701F801A0
:10162000F901FA01462BE501E609E709E809E509B0
:10163000E50A031D212BE60A031D212BE70A0319E6
:10164000E80A64182F2AE418712A6419A72AD62AEE
:101650000008E607031C322BE70A031D322BE80AB9
:101660000319621484030008E707031C3A2BE80AF5
:101670000319621484030008801F803AE8070318E6
:101680006214641A362AE41A782AAE2A0800013055
:101690002907D4005408803C0318632BA7018B1B37
:1016A000A7178B138316AB011430AC008030AD004C
:1016B0002C30AE008A1183123E248A15A71B8B178B
:1016C000A9010130D4002D08E0002C08DF002B0810
:1016D000DE002A08DD009A30E4009930E300E200E1
:1016E0007E30E1008A1110278A157A08D80079081F
:1016F000D7007808D6007708D500DB012E08DA007D
:101700008A11F3268A1583105808DD005708DC007B
:101710005608DB005508DA007A08E1007908E00095
:101720007808DF007708DE0006227A08D9007908F9
:10173000D8007808D7007708D6008A11D1278A15F3
:101740007808D5005308E0005208DF005108DE0099
:101750005008DD009A30E4009930E300E2007E306A
:10176000E1008A1110278A157A08D9007908D80073
:101770007808D7007708D600DB012E08DA008A1136
:10178000F3268A1583105908DD005808DC00570835
:10179000DB005608DA007A08E1007908E0007808F2
:1017A000DF007708DE0006227A08D9007908D80021
:1017B0007808D7007708D6008A11D1278A157808CB
:1017C000D6002908D7005508D8005408D900560873
:1017D000DA000130DB008A1125268A155308AD0096
:1017E0005208AC005108AB005008AA005408A900E8
:1017F0008A150A12622D80080319112CD1010408E0
:10180000D0005110831B511400080C1E052C9900A8
:1018100050088400831351188317840A0319850A1A
:10182000FB2B8A150A12B92D03081F3983000C30CF
:1018300083169900A2309800903083129800FF30F0
:10184000A800A901AD01AC01AB01AA013430AE0082
:101850002F10B201B10183161F149F141F159F1181
:1018600083131F109F141F159F1583121F179F1797
:1018700083169F1783121F140130D0008A11FA2C8F
:101880008A158B15C0308B04F8010D30F7004330FA
:101890008400831378088A1130228A158000F80AA0
:1018A000840AF70B4A2CA7018B1BA7178B138316EF
:1018B000AD010A30AE00B0014330AF000130B100DD
:1018C000B2008A11831246238A15A71B8B17D701F2
:1018D0000830D8008030D9000830DA000130DB0051
:1018E0008A1125268A15D7011330D8008030D900F7
:1018F0001330DA000130DB008A1125268A158316A1
:10190000061783128C1E872C83168C1683122F1CAD
:10191000CC2D0030F8001F08C73978049F0006302E
:10192000F700F70B912C00001F151F19952C83163B
:101930001E088312B3001E08B4003408DB0033080D
:10194000DA008A11F3268A15E001DF012030DE007B
:101950008130DD007A08E4007908E3007808E200CD
:101960007708E1008A1110278A157A08D3007908D0
:10197000D2007808D1007708D0007A08E000790812
:10198000DF007808DE007708DD00E401E30148307D
:10199000E2008530E1008A1110278A157A08D30009
:1019A0007908D2007808D1007708D0007A08D700EB
:1019B0007908D6007808D5007708D400DB01DA0171
:1019C000D9018930D80000287A08B8007908B70012
:1019D0007808B6007708B5003808D3003708D20079
:1019E0003608D1003508D0002D08D7002C08D600C5
:1019F0002B08D5002A08D4008A1185278A150319D7
:101A0000442DB901B2013930B100033084003808E7
:101A1000D3003708D2003608D1003508D000023094
:101A2000D4001C21B030DD008A11C4278A15433050
:101A3000DD008A11C4278A15A7018B1BA7178B13FA
:101A400048308316AB000A30AC003630AD000730AA
:101A5000AE008A1183123E248A15A71B8B17A7019B
:101A60008B1BA7178B1348308316AD000A30AE00CE
:101A7000B0013930AF000130B100B2008A118312D9
:101A800046238A15A71B8B173808D3003708D200C6
:101A90003608D1003508D000D701D6014830D5002E
:101AA0008430D4008A1185278A150318592D031D07
:101AB000802D3808D3003708D2003608D100350809
:101AC000D000472B5430C3003E30C4003530C50031
:101AD0003030C600C701A7018B1BA7178B1303303B
:101AE0008316AD00AE01B0014330AF000130B1004C
:101AF000B2018A11831246238A15A71B8B17A52DC5
:101B00005430C3003E30C4003530C5003030C6000C
:101B1000C701A7018B1BA7178B1303308316AD00DA
:101B2000AE01B0014330AF000130B100B2008A1104
:101B3000831246238A15A71B8B173808AD00370878
:101B4000AC003608AB003508AA00B2013930B1004C
:101B5000033084003808D3003708D2003608D1009B
:101B60003508D0000230D4001C21393084008313A2
:101B7000FB2B0D300C1EBA2D99000A300C1EBE2D09
:101B80009900A7018B1BA7178B13FA30FC008A1151
:0C1B9000A6248A15A71B8B177F2C63006E
:02400E00713F00
:00000001FF
;PIC16F877
;CRC=9B66  CREATED="01-Nov-20 21:12"
