:100000000C308A001F2C0000FF00030E8301A100AA
:100010000A08A0008A010408A2007708A300780853
:10002000A4007908A5007A08A600831383128B1D0B
:100030001B280B1836288C308400801E21288C1A2F
:1000400039288B1E25280B193C28220884002308F8
:10005000F7002408F8002508F9002608FA0020080F
:100060008A00210E8300FF0E7F0E09008A110A12FA
:10007000892C8A110A12E02C8A110A125C2A0A10B1
:100080008A100A11463E03188A0A8200003400349E
:10009000003400340034003400345F340034003461
:1000A0000034033400340334003414343E34143444
:1000B0003E34143424342A347F342A341234433402
:1000C0003334083466346134363449345534223498
:1000D00050340034053403340034003400341C340C
:1000E0002234413400340034413422341C3400348E
:1000F000143408343E3408341434083408343E349C
:1001000008340834003450343034003400340834B7
:10011000083408340834083400346034603400345F
:100120000034203410340834043402343E34513462
:10013000493445343E340034043402347F340034CE
:1001400042346134513449344634223441344934E0
:10015000493436341834143412347F34103427348C
:1001600045344534453439343E34493449344934CE
:1001700032340134013471340934073436344934AB
:1001800049344934363426344934493449343E34C8
:1001900000343634363400340034003456343634C7
:1001A000003400340834143422344134003414341C
:1001B00014341434143414340034413422341434D8
:1001C0000834023401345134093406343E344134A5
:1001D000593455345E347E340934093409347E345C
:1001E0007F3449344934493436343E34413441341F
:1001F000413422347F344134413441343E347F34FD
:1002000049344934493441347F3409340934093498
:1002100001343E344134413449343A347F34083473
:10022000083408347F34003441347F34413400349E
:1002300030344034403440343F347F340834143454
:10024000223441347F3440344034403440347F34AD
:1002500002340C3402347F347F34023404340834E2
:100260007F343E344134413441343E347F340934A8
:100270000934093406341E342134213421345E34E7
:100280007F3409340934093476340A148A100A1187
:100290004C3E03188A0A82002634493449344934D2
:1002A0003234013401347F34013401343F3440347A
:1002B000403440343F341F342034403420341F3421
:1002C0007F342034103420347F34413422341C34C1
:1002D000223441340734083470340834073461342C
:1002E000513449344534433400347F34413400348C
:1002F0000034023404340834103420340034003420
:1003000041347F3400340434023401340234043480
:1003100040344034403440344034003401340234FA
:1003200004340034203454345434543478347F3416
:100330004434443444343834383444344434443415
:10034000443438344434443444347F3438345434BA
:10035000543454341834043404347E3405340534AD
:1003600008345434543454343C347F340834043422
:1003700004347834003444347D3440340034203440
:10038000403444343D3400347F3410342834443411
:100390000034003441347F34403400347C3404343D
:1003A0007834043478347C340834043404347834B5
:1003B000383444344434443438347C3414341434BD
:1003C0001434083408341434143414347C340034B1
:1003D0007C340834043404344834543454345434AD
:1003E0002034043404343F34443444343C34403402
:1003F000403420347C341C342034403420341C34C9
:100400003C344034303440343C34443428341034A8
:10041000283444340C345034503450343C34443454
:10042000643454344C344434003408343634413465
:100430004134003400347F340034003441344134DA
:1004400036340834003402340134023404340234C3
:100450000A108A140A1182074334613470347434E8
:100460007534723461346E3464346F3400340A107D
:100470008A140A118207543465346D34703465343B
:100480007234613474347534723461343A34003403
:100490006E3084008313000803195B2A0230F800D1
:1004A000F701F70B512AF80B502A9730F700F70B9A
:1004B000572A800B4E2A0800B00B6B2A0A30B00076
:1004C00083168611831286113230EE00482283167D
:1004D000861183128615403081000B118A110A1291
:1004E0002528F701F80183163E0803103F18F70787
:1004F000F70CF80CBF18F707F70CF80C3F19F707C3
:10050000F70CF80CBF19F707F70CF80C3F1AF707B0
:10051000F70CF80CBF1AF707F70CF80C3F1BF7079E
:10052000F70CF80CBF1BF707F70CF80C8312080048
:100530000030831688000612831206128316C5083F
:100540000319A72A861083128614AA2A8316061076
:1005500083120614AB2A831688014608831288008A
:10056000B12A8316861283128616B62A831686123D
:1005700083128612831606108312061083168610C5
:10058000831286100800FF3083168800061283123B
:1005900006168316C4080319D22A861083128614FD
:1005A000D52A8316061083120614D62A83168612BD
:1005B00083128616DB2AFF30831688008312080810
:1005C0008316C500861283128612831606108312C4
:1005D0000610831686108312861083164508F800CD
:1005E00083120800831642103E083F3C0318FB2A82
:1005F0004030BE0242140611831206118316BE1348
:100600003E17003042180130C300C5003E08C60046
:10061000831298220030831642180130C3003F0C29
:10062000F700F70CF70C1F30F7057708BF39B8381B
:10063000C4004308C5004408C600831298228316EC
:100640000611831206150030831642180130C300CC
:10065000C4008312C3220030831642180130C30045
:10066000C4008312C32278088316C100400B482BB4
:100670003F080739C3000130F7004308F8000319A9
:10068000452B0310F70DF80B412B7708C104582BAD
:100690003F080739C3000130F7004308F800031989
:1006A000552B0310F70DF80B512B7708FF3AC105B6
:1006B0000611831206110030831642180130C30060
:1006C000C5003E08C60083129822831606118312C5
:1006D00006150030831642180130C300C5004108DA
:1006E000C60083129822080083163008FA002F08EB
:1006F000840083137A188317800803196A2C300842
:10070000FA002F08840083137A1883170008523CDC
:10071000031CAF2B3008FA002F08840083137A18CB
:10072000831720300002BD00BE000530BF008312D9
:10073000712278088316BC00F8000530F700B73046
:1007400084008313780883123F208000F80A840A0B
:10075000F70BAB2BAD2B8316A22BE52B83163008A2
:10076000FA002F08840083137A18831700087E3C50
:10077000031CDF2B3008FA002F08840083137A183B
:10078000831753300002BD00BE000530BF00831246
:10079000712278088316BC00F8000530F700B730E6
:1007A000840083137808831245218000F80A840AA4
:1007B000F70BDB2BDD2B8316D22BE52B8316B70132
:1007C000B801B901BA01BB01831283163008FA00DF
:1007D0002F08840083137A18831700080A3A8312BB
:1007E0000319F62B073A0319032C072C073083163D
:1007F000BE003108BF0083127122013078078316D2
:10080000AE07652C83128316AD01652C831205306B
:100810008316BE003108BF00831271227808831648
:100820002D077F3C03181F2CAD010730BE00310897
:10083000BF0083127122013078078316AE07B3011F
:100840003308043C031C652CB4013408063C031C2B
:10085000612CB7303307840083130008BC00F70015
:100860003408F8000319382C0310F70CF80B342C5B
:10087000771C5F2CB5013108350203185F2CB601D7
:100880003108360203185D2C36082D07BC003408E9
:10089000BE003108BF0083127122780883162E072C
:1008A0003507BD003C08BE003D08BF003208C0004F
:1008B0008312F2228316B60A402CB50A3B2CB40AE6
:1008C000252CB30A3108AD07202CAF0A0319B00A52
:1008D000AD0A752B8312080083162B08AF002D0874
:1008E0002B072F020318872C2C08B0002E082C078A
:1008F00030020318852C2F08BE003008BF00C0014D
:100900008312F2228316B00A762CAF0A6F2C831260
:100910000800831606178312061FDC2C0130AE0672
:100920008B122E1CAD2CF8010B30F700A030840088
:100930008313780828228000F80A840AF70B992C80
:1009400022308316AD00AE01B001A030AF000130FF
:10095000B100B20083127423DC2CF8010B30F700D5
:10096000A03084008313780828228000F80A840AC3
:10097000F70BB32C22308316AD00AE01B001A030CE
:10098000AF000130B100B201831274238316AB01B2
:100990001430AC008030AD002C30AE0083126C24DB
:1009A00048308316AB000A30AC003630AD0007305B
:1009B000AE0083126C24A9010B108A110A1225289B
:1009C0008C1EE02C1A08AF002F08613C031DF92C87
:1009D0004230EE005430EF00F0016E308316AD006F
:1009E000AE01B001AF000130B100B2008312742338
:1009F0000E2D2F08623C031D0E2D4230F1005430A5
:100A0000F200F3016E308316AD00AE01B00171301B
:100A1000AF000130B100B201831274238C128A112D
:100A20000A12252828102808831687008312071425
:100A300083168612831286128316061083120610FE
:100A400083168610831286108316061183120611F0
:100A5000A7018B1BA7178B138316C501C030C600D7
:100A600083129822A71B8B17A7018B1BA7178B1329
:100A700001308316C500C030C60083129822A71B20
:100A80008B17A7018B1BA7178B138316C50140304B
:100A9000C60083129822A71B8B17A7018B1BA717D1
:100AA0008B1301308316C5004030C6008312982294
:100AB000A71B8B17A7018B1BA7178B138316C501C9
:100AC000B830C60083129822A71B8B17A7018B1B77
:100AD000A7178B1301308316C500B830C6008312E8
:100AE0009822A71B8B174E0B8F2DA7018B1BA717C7
:100AF0008B138316C5013F30C60083129822A71BB3
:100B00008B17A7018B1BA7178B1301308316C5000A
:100B10003F30C60083129822A71B8B17A82DA70170
:100B20008B1BA7178B138316C5013E30C60083129B
:100B30009822A71B8B17A7018B1BA7178B130130BC
:100B40008316C5003E30C60083129822A71B8B1760
:100B5000CF01D0015008073C031C3A2E8316061122
:100B600083120611A7018B1BA7178B138316C501D0
:100B70004030C60083129822A71B8B17A7018B1B3E
:100B8000A7178B1301308316C5004030C6008312AF
:100B90009822A71B8B175008B838D200A7018B1BCF
:100BA000A7178B138316C501831252088316C6003C
:100BB00083129822A71B8B175008B838D200A701C0
:100BC0008B1BA7178B1301308316C50083125208A5
:100BD0008316C60083129822A71B8B178316061153
:100BE00083120615D10151083F3C031C382EA70182
:100BF0008B1BA7178B13FF308316BE0083124F0881
:100C00008316BF0083127122A71B8B177808D200AE
:100C1000A7018B1BA7178B138316C50183127808B6
:100C20008316C60083129822A71B8B17A7018B1B64
:100C3000A7178B13FF308316BE0083124F0883164D
:100C4000BF0083127122A71B8B177808D200A7015F
:100C50008B1BA7178B1301308316C50083127808EE
:100C60008316C60083129822A71B8B17D10AF32D77
:100C7000D00AAA2D8A150A12562C0130DE00DF0098
:100C8000E40155085702E5006508E51F492E65088F
:100C9000003CFA01DC007A08DD0056085802E50045
:100CA0006508E51F552E6508003CFA01DA007A0850
:100CB000DB005508570203185F2EFF30DE00560890
:100CC00058020318652EFF30DF005B085D02031C2D
:100CD000BD2E031D6F2E5A085C02031CBD2E03108F
:100CE000DA0DDB0D5C085A02F7005B08FA005D08BC
:100CF000031C5D0FFA027708E0007A08E1005C0847
:100D00006002E2006108E3005D08031C5D0FE3027E
:100D1000DD08031D8F2E64085C02031CBC2EA70196
:100D20008B1BA7178B1355088316BE00831256081A
:100D30008316BF00831259088316C0008312F22263
:100D4000A71B8B17E11FAE2E5A08E0075B0803189C
:100D50005B0FE1075E085507D500BA2E6208E00771
:100D600063080318630FE1075E085507D5005F08A5
:100D70005607D600E40A882E0A2F0310DC0DDD0D7D
:100D80005A085C02F7005D08FA005B08031C5B0F61
:100D9000FA027708E0007A08E1005A086002E200EF
:100DA0006108E3005B08031C5B0FE302DB08031D23
:100DB000DD2E64085A02031C0A2FA7018B1BA717FC
:100DC0008B1355088316BE00831256088316BF0086
:100DD000831259088316C0008312F222A71B8B17B7
:100DE000E11FFC2E5C08E0075D0803185D0FE107BA
:100DF0005F085607D600082F6208E007630803184B
:100E0000630FE1075E085507D5005F085607D60057
:100E1000E40AD62E08008E30F7004F08F8004E087E
:100E2000F900FA01F808031D1F2F7908F800F901ED
:100E30000830F702F808031D1F2FF701272F0310B2
:100E4000F81B262FF90DF80DF7031F2FF8138A153D
:100E50000A12B42C5B0803199A2FE3005F080319E8
:100E60009A2FE30703183B2F7F30E302031C9A2FCE
:100E700003199A2F3F2F8130E30703189A2F630835
:100E8000F700F801F901FA015C08E700E7175D08CF
:100E9000E6005E08E5001830E300E401651C682FF9
:100EA0006208FA07031C5A2FF90A031D5A2FF80A81
:100EB0000319E4176108F907031C612FF80A0319E5
:100EC000E4176008DD00DD175D08F8070318E41774
:100ED000E40DF80CF90CFA0CE70CE60CE50C031029
:100EE000E30B4D2F0130F70703189A2FF81B7F2FC4
:100EF000E70DFA0DF90DF80DF70303199A2FE71F07
:100F0000902FFA0A031D902FF90A031D902FF80A5B
:100F1000031D902FF80CF90CFA0CF70A03199A2FFD
:100F20005C08E4006008E406E41F982FF8179E2F81
:100F3000F8139E2FF701F801F901FA0108004F0894
:100F4000D6005308D606D61FAA2F03110310CF1BB5
:100F50000314DD2F4F08D6005208D7004E08D702E1
:100F60000319B82FD61FDD2F0308013A8300DD2FA8
:100F70005308D7004F08D7020319C42FD61FDD2FFF
:100F80000308013A8300DD2F5408D7005008D70228
:100F90000319D02FD61FDD2F0308013A8300DD2F60
:100FA0005508D7005108D7020319DC2FD61FDD2FB3
:100FB0000308013A8300DD2F031008003108840084
:100FC0008313321883175B088000840A8001B10AFA
:060FD0000319B20A08003B
:1010000052080319C628DE0056080319C628DE0256
:1010100003180B2810287F30DE070318C62816286F
:101020008130DE02031CC6280319C6285E08F700BB
:10103000F801F901FA01DD015308DC00DC1754085E
:10104000DB005508DA001930DE005908DA0203180F
:1010500039280130DB0203183928DC02031839284B
:10106000DD0203183928DD0ADC0ADB0A5908DA0731
:101070006B285808DB02031854280130DC020318DF
:101080005428DD0203185428DD0ADC0A5808DB075F
:101090005908DA07031C6B28DB0A031D6B28DC0ADE
:1010A000031D6B28DD0A6B2857088038DC02031803
:1010B0006A280130DD0203186A28DD0A57088038E3
:1010C000DC075808DB07031C4828DC0A031D4828F6
:1010D000DD0A48287A14DE0B6E2879280310DA0D11
:1010E000DB0DDC0DDD0D0310FA0DF90DF80DDF0D34
:1010F00025285F1C81280310F80CF90CFA0CDF0C72
:101100008428F7030319C628DF1BAD280310DA0D66
:10111000DB0DDC0DDD0D5908DA02031899280130CA
:10112000DB0203189928DC0203189928DD02031C4E
:10113000BC285808DB020318A4280130DC0203187D
:10114000A428DD02031CBC2857088038DC020318E1
:10115000AD280130DD02031CBC28FA0A031DBC289F
:10116000F90A031DBC28F80A031DBC28F70A031955
:10117000C628F80CF90CFA0C5308DE005708DE06F6
:10118000DE1FC428F817CA28F813CA28F701F80187
:10119000F901FA018A150A12F52C8318D228633056
:1011A00084008313F701F801F901FA01E301E40176
:1011B000E501E6016208610460045F040319102977
:1011C0002030E7000310DB0DDC0DDD0DDE0DE30D3F
:1011D000E40DE50DE60D62086602031DF9286108BD
:1011E0006502031DF92860086402031DF9285F08E1
:1011F0006302031C0A295F08E3026008031C600FF6
:10120000E4026108031C610FE5026208031C620F1F
:10121000E6020314F70DF80DF90DFA0DE70BE228BD
:1012200063088000840A64088000840A65088000DE
:10123000840A6608800008000408D3005208D5001C
:1012400003193D295108DE005008DD004F08DC007D
:101250004E08DB00E201E1012030E0008230DF00D7
:101260008A112A278A157A08D1007908D0007808CF
:10127000CF007708CE00D50B22295108DE00500898
:10128000DD004F08DC004E08DB005B08B63CDB00ED
:10129000FA015C08DF00DC170310DC0CDD0CDE0C4F
:1012A000FA0CF90CF80CF70CDB0B4C29DF1F632947
:1012B000F709F809F909FA09F70A0319F80A0319ED
:1012C000F90A0319FA0A7A08D1007908D0007808D7
:1012D000CF007708CE00D11F7A29D303D316CE09C9
:1012E000CF09D009D109CE0A0319CF0A0319D00AB0
:1012F0000319D10A3B30DA009A30D900CA30D8003D
:10130000D7010A30D50052080319D30A83144E308E
:10131000840083135108DE005008DD004F08DC0014
:101320004E08DB005A08E2005908E1005808E000C6
:101330005708DF00CD207808F708031DB229520AAC
:1013400055020319B22953080319B4290F3955025C
:101350000319AC290318EC29D31BEC29531BB4291E
:101360002030E6292030D305D31EC429D3125208D9
:10137000031DD3037708D3002D30DB008A11DE274D
:101380008A155308F700D30152085502031DD429CA
:101390007708D3002E30DB008A11DE278A15530828
:1013A000F7002030D30500303030D31EE629D312A9
:1013B0005208031DD3037708D3002D30DB008A11B8
:1013C000DE278A155308F700D3013030F707770876
:1013D000DB008A11DE278A1583105A08DE005908BF
:1013E000DD005808DC005708DB00E201E101E00104
:1013F0000A30DF00CD207A08DA007908D9007808B1
:10140000D8007708D700D50B8629080080308318CC
:10141000DD06E201E3015908E1005D08E106580834
:101420000319F62AE000F7005C080319FF2AE0021E
:1014300003199B2A031C592A5D08E600E6175E087B
:10144000E5005F08E400E3010310E60CE50CE40CA2
:10145000E30CE00B232AE11F302A6214132B6210E5
:10146000601062165B3084008313282B6212E11B2C
:10147000432A601C4E2AE60CE50CE40CE30CF70A48
:1014800003190E2B4E2AE61B512A0310E30DE40D1F
:10149000E50DE60DF70303190E2B432A6217BB2A4D
:1014A00062135908E100E11F572AE617072BE613DC
:1014B000072B5C08E000F7005808E0025908E60036
:1014C000E6175A08E5005B08E400E3010310E60CA8
:1014D000E50CE40CE30CE00B652AE11F722AE21430
:1014E000132BE2106010E2165F3084008313282B68
:1014F000E212E11B852A601C902AE60CE50CE40C44
:10150000E30CF70A03190E2B902AE61B932A03100B
:10151000E30DE40DE50DE60DF70303190E2B852A07
:10152000E217BB2AE2135D08E100E11F992AE617E2
:10153000072BE613072B5D08E600E6175E08E500BB
:101540005F08E400E11FA82AE6136215132B62115D
:10155000E30160105B3084008313282BE11BD12A48
:101560005908E100601CBB2AE60CE50CE40CE30C16
:10157000F70A03190E2BE31FCC2AE40A031DCC2A19
:10158000E50A031DCC2AE60A031DCC2AE60CE50C6D
:10159000E40CF70A03190E2B621B502AE21B922A55
:1015A000F02A8030E606E61FD92A132B5D08E100F9
:1015B000E62A5908E100E608031DE62AE508031DAE
:1015C000E62AE408031DE62AF701072BE61BF02AAA
:1015D0000310E30DE40DE50DE60DF70BE62A0E2BE7
:1015E000E11FF42AE617072BE613072B5C08F70028
:1015F0005D08E6005E08E5005F08E400072B580878
:10160000F7005908E6005A08E5005B08E4006608A0
:10161000F8006508F9006408FA00462BF701F801A4
:10162000F901FA01462BE301E409E509E609E309BA
:10163000E30A031D212BE40A031D212BE50A0319EC
:10164000E60A62182F2AE218712A6219A72AD62AF6
:101650000008E407031C322BE50A031D322BE60ABF
:101660000319601484030008E507031C3A2BE60AFB
:101670000319601484030008801F803AE6070318EA
:101680006014621A362AE21A782AAE2A08008E30CE
:10169000F7005408F7025508F9005608F800F91742
:1016A000F70803195E2B0310F908031D5A2BF808DD
:1016B00003195E2BF90CF80CF70B532BD51F652B78
:1016C000F809F909F80A0319F90A0800013029078D
:1016D000D2005208803C0318822BA7018B1BA7174E
:1016E0008B138316AB011430AC008030AD002C306E
:1016F000AE008A1183126C248A15A71B8B17A901CF
:101700000130D2002D08DE002C08DD002B08DC00A3
:101710002A08DB009A30E2009930E100E0007E30D8
:10172000DF008A112A278A157A08D6007908D500A1
:101730007808D4007708D30083107A08DB00790892
:10174000DA007808D9007708D800DF01DE015030D0
:10175000DD008430DC0006227A08D7007908D60044
:101760007808D5007708D40047237808D3005108BB
:10177000DE005008DD004F08DC004E08DB009A3028
:10178000E2009930E100E0007E30DF008A112A2774
:101790008A157A08D7007908D6007808D500770826
:1017A000D40083107A08DB007908DA007808D900C1
:1017B0007708D800DF01DE015030DD008430DC0026
:1017C00006227A08D7007908D6007808D50077086D
:1017D000D40047237808D4002908D5005308D60040
:1017E0005208D7007808D8000130D9008A113D2668
:1017F0008A155108AD005008AC004F08AB004E08E8
:10180000AA005208A9008A150A129B2D8008031904
:101810001C2CCF010408CE004F10831B4F1400086E
:101820000C1E102C99004E08840083134F18831748
:10183000840A0319850A062C8A150A12F22D030858
:101840001F3983000C3083169900A2309800903025
:1018500083129800FF30A800A901AD01AC01AB01D3
:10186000AA012E10AF010A30B000B201B1018316F7
:101870001F149F141F159F118313403086001F10E3
:101880009F141F159F1583121F179F1783169F17ED
:1018900083121F1483160108C039073881004030B5
:1018A000831281000130CE008A11122D8A158B150A
:1018B00083168C16C03083128B04F8010D30F700AC
:1018C00041308400831378088A1137228A158000FA
:1018D000F80A840AF70B632CA7018B1BA7178B133D
:1018E0008316AD010A30AE00B0014130AF000130C7
:1018F000B100B2008A11831274238A15A71B8B17BB
:10190000D5010830D6008030D7000830D80001302B
:10191000D9008A113D268A15D5011330D6008030B2
:10192000D7001330D8000130D9008A113D268A151E
:101930002E1C052E0030F8001F08C73978049F00C0
:101940000630F700F70BA22C00001F151F19A62C5C
:1019500083161E088312B3001E08B4003408CF009B
:101960003308CE008A110B2F8A15DE01DD012030ED
:10197000DC008130DB007A08E2007908E1007808B9
:10198000E0007708DF008A112A278A157A08D1003B
:101990007908D0007808CF007708CE007A08DE00FA
:1019A0007908DD007808DC007708DB00E201E1015E
:1019B0004830E0008530DF008A112A278A157A082E
:1019C000D1007908D0007808CF007708CE007A08D7
:1019D000D5007908D4007808D3007708D200D9015F
:1019E000D801D7018930D60000287A08B8007908D4
:1019F000B7007808B6007708B5003808D100370876
:101A0000D0003608CF003508CE002D08D5002C08B0
:101A1000D4002B08D3002A08D2008A119F278A15E8
:101A20000319552DB901B2013930B10003308400DA
:101A30003808D1003708D0003608CF003508CE006E
:101A40000230D2001C21B030DB008A11DE278A155B
:101A50004330DB008A11DE278A15A7018B1BA717ED
:101A60008B1348308316AB000A30AC003630AD0023
:101A70000730AE008A1183126C248A15A71B8B17BE
:101A8000A7018B1BA7178B1348308316AD000A30B4
:101A9000AE00B0013930AF000130B100B2008A11A0
:101AA000831274238A15A71B8B173808D1003708B7
:101AB000D0003608CF003508CE00D501D401203043
:101AC000D3008430D2008A119F278A150318692D0C
:101AD00003198B12D101D0012030CF008430CE0009
:101AE0003808D5003708D4003608D3003508D200AE
:101AF0008A119F278A1503188B163808D1003708DA
:101B0000D0003608CF003508CE00D501D4014830CA
:101B1000D3008430D2008A119F278A150318922D92
:101B2000031DB92D3808D1003708D0003608CF0082
:101B30003508CE00662B5430C1003E30C20035302F
:101B4000C3003030C400C501A7018B1BA7178B133E
:101B500003308316AD00AE01B0014130AF0001305B
:101B6000B100B2018A11831274238A15A71B8B1747
:101B7000DE2D5430C1003E30C2003530C30030305D
:101B8000C400C501A7018B1BA7178B130330831655
:101B9000AD00AE01B0014130AF000130B100B20084
:101BA0008A11831274238A15A71B8B173808AD007E
:101BB0003708AC003608AB003508AA00B20139304E
:101BC000B100033084003808D1003708D00036084F
:101BD000CF003508CE000230D2001C2139308400FD
:101BE0008313062C0D300C1EF32D99000A300C1EA9
:101BF000F72D9900A7018B1BA7178B13FA30EE0066
:0E1C00008A1148228A15A71B8B17982C6300A7
:02400E00713F00
:00000001FF
;PIC16F877
;CRC=1B8E  CREATED="03-nov.-20 14:56"
