:1000000018308A0000280000FF00030E8301A100C1
:100010000A08A0008A010408A2007708A300780853
:10002000A4007908A5007A08A600831383128B1D0B
:100030001B280B183C288C308400801E21288C1A29
:100040003F288C308400001C27280C1842288B1E67
:100050002B280B194528220884002308F7002408C0
:10006000F8002508F9002608FA0020088A00210E69
:100070008300FF0E7F0E09008A110A1600288A11DC
:100080000A12A22F8A110A12992A8A110A12822AA6
:100090000A108A100A114F3E03188A0A820000349F
:1000A0000034003400340034003400345F34003451
:1000B00000340034033400340334003414343E3448
:1000C00014343E34143424342A347F342A34123421
:1000D0004334333408346634613436344934553467
:1000E00022345034003405340334003400340034F6
:1000F0001C342234413400340034413422341C3462
:100100000034143408343E340834143408340834C9
:100110003E34083408340034503430340034003471
:100120000834083408340834083400346034603447
:1001300000340034203410340834043402343E34A3
:100140005134493445343E340034043402347F346D
:100150000034423461345134493446342234413419
:100160004934493436341834143412347F3410345A
:10017000273445344534453439343E3449344934E0
:10018000493432340134013471340934073436349B
:1001900049344934493436342634493449344934AD
:1001A0003E340034363436340034003400345634AF
:1001B00036340034003408341434223441340034EA
:1001C00014341434143414341434003441342234C8
:1001D00014340834023401345134093406343E34C2
:1001E0004134593455345E347E3409340934093489
:1001F0007E347F3449344934493436343E344134D2
:100200004134413422347F344134413441343E342A
:100210007F3449344934493441347F340934093412
:10022000093401343E344134413449343A347F3462
:100230000834083408347F34003441347F34413486
:10024000003430344034403440343F347F34083458
:100250001434223441347F34403440344034403408
:100260007F3402340C3402347F347F34023404345B
:1002700008347F343E344134413441343E347F3499
:1002800009340934093406341E342134213421342C
:100290005E347F3409340934093476340A148A1000
:1002A0000A11553E03188A0A82002634493449341B
:1002B00049343234013401347F34013401343F3461
:1002C0004034403440343F341F34203440342034F0
:1002D0001F347F342034103420347F3441342234AE
:1002E0001C34223441340734083470340834073461
:1002F0006134513449344534433400347F3441341B
:10030000003400340234043408341034203400340F
:10031000003441347F340034043402340134023474
:1003200004344034403440344034403400340134E8
:100330000234043400342034543454345434783483
:100340007F344434443444343834383444344434CA
:100350004434443438344434443444347F343834BA
:100360005434543454341834043404347E3405344E
:10037000053408345434543454343C347F34083411
:10038000043404347834003444347D34403400344C
:100390002034403444343D3400347F341034283425
:1003A00044340034003441347F34403400347C34ED
:1003B00004347834043478347C3408340434043419
:1003C0007834383444344434443438347C34143449
:1003D00014341434083408341434143414347C348D
:1003E00000347C34083404340434483454345434F1
:1003F00054342034043404343F34443444343C34DE
:100400004034403420347C341C3420344034203494
:100410001C343C344034303440343C34443428348C
:100420001034283444340C345034503450343C3478
:100430004434643454344C34443400340834363452
:1004400041344134003400347F34003400344134CA
:100450004134363408340034023401340234043474
:1004600002340A108A140A1182074334613470344A
:1004700074347534723461346E3464346F340034DF
:100480000A108A140A1182074C3469346D347034AE
:10049000693461346E3464346F3400340A108A1461
:1004A0000A1182074734753461347234643461341C
:1004B0006E3464346F3400340A108A140A118207CF
:1004C000543465346D34703465347234613474344A
:1004D0007534723461343A34003445308400831703
:1004E00000080319812A0130F800F701F70B762A7A
:1004F000F80B752A4A30F700F70B7C2A7F2A800B0D
:10050000732A0800B60B932A0A30B60083168611A8
:100510008312861132300317C50003136D22831630
:10052000861183128615403081000B118A110A1240
:100530002B28B70BC22A0630B7000317C5014508A0
:100540004E3C031CBD2AA0304507F800FA010318F1
:10055000FA0A7808C6007A08C70001304507A03EAD
:10056000840083130008C8004608840083134718DA
:10057000831748088000C50A9F2A03133208831690
:10058000EF0083128E010B308F00DC308E000C10D8
:100590008A110A122B28F701F8018316031728087D
:1005A00003102918F707F70CF80CA918F707F70C30
:1005B000F80C2919F707F70CF80CA919F707F70C2D
:1005C000F80C291AF707F70CF80CA91AF707F70C1B
:1005D000F80C291BF707F70CF80CA91BF707F70C09
:1005E000F80C8312031308000030831688000612EB
:1005F0008312061283160317B3080319062B03137D
:100600008610831286140A2B831603170313061011
:10061000831206140000831688010317340883121E
:1006200003138800000083168612831286160000CA
:100630008316861283128612831606108312061002
:100640008316861083128610080083160317301055
:100650002C083F3C03182F2B4030AC0230140313FE
:1006600006118312061183160317AC132C170030E2
:1006700030180130B100B3002C08B400831203130A
:10068000F42200308316031730180130B1002D0C0E
:10069000F700F70CF70C1F30F7057708BF39B838AB
:1006A000B2003108B3003208B40083120313F422FD
:1006B00083160611831206150030831603173018AF
:1006C0000130B1003108B200FF3003138800061278
:1006D0008312061683160317B2080319762B031329
:1006E0008610831286147A2B8316031703130610C1
:1006F00083120614000083168612831286160000E9
:10070000FF30831688008312080883160317B3008E
:1007100003138612831286128316061083120610A4
:100720008316861083128610831603173308F80089
:10073000003030180130B1003108B200FF3003132F
:10074000880006128312061683160317B2080319CF
:10075000B02B0313861083128614B42B8316031751
:1007600003130610831206140000831686128312E8
:1007700086160000FF30831688008312080883164F
:100780000317B30003138612831286128316061012
:1007900083120610831686108312861083160317A1
:1007A0003308F8007808AF002E0BE62B2D08073928
:1007B000B1000130F7003108F8000319E32B0310F2
:1007C000F70DF80BDF2B7708AF04F62B2D08073950
:1007D000B1000130F7003108F8000319F32B0310C2
:1007E000F70DF80BEF2B7708FF3AAF05031306114F
:1007F0008312061100308316031730180130B10040
:10080000B3002C08B40083120313F42283160611DC
:100810008312061500308316031730180130B1001B
:10082000B3002F08B40083120313F42208008316C8
:1008300003171A08FA001908840083137A1883171B
:10084000800803192A2D1A08FA0019088400831356
:100850007A1883170008523C031C582C1A08FA0017
:100860001908840083137A18831720300002A70028
:10087000A8000530A90083120313CB227808831641
:100880000317A600F8000530F700A1308400831795
:1008900078088312031348208000F80A840AF70BB3
:1008A000522C552C83160317482C942C83160317AF
:1008B0001A08FA001908840083137A1883170008AD
:1008C0007E3C031C8D2C1A08FA001908840083133F
:1008D0007A18831753300002A700A8000530A9003A
:1008E00083120313CB22780883160317A600F8009F
:1008F0000530F700A13084008317780883120313B2
:100900004E218000F80A840AF70B872C8A2C831664
:1009100003177D2C942C83160317A101A201A301B8
:10092000A401A50183120313831603171A08FA0002
:100930001908840083137A18831700080A3A83126F
:1009400003130319A72C073A0319B82CBE2C073040
:1009500083160317A8001B08A90083120313CB22D8
:1009600001307807831603179807252D8312031388
:10097000831603179701252D831203130530831661
:100980000317A8001B08A90083120313CB227808C1
:100990008316031717077F3C0318DB2C97010730DA
:1009A000A8001B08A90083120313CB22013078078B
:1009B0008316031798079D011D08043C031C252D71
:1009C0009E011E08063C031C212DA1301D0784003A
:1009D00083170008A600F7001E08F8000319F42C7E
:1009E0000310F70CF80BF02C771C1F2D9F011B0830
:1009F0001F0203181F2DA0011B08200203181D2D24
:100A000020081707A6001E08A8001B08A9008312CB
:100A10000313CB2278088316031718071F07A700B4
:100A20002608AC002708AD001C08AE008312031393
:100A3000252383160317A00AFC2C9F0AF72C9E0A75
:100A4000E12C9D0A1B089707DC2C990A03199A0AC6
:100A5000970A192C83120313080083160317220820
:100A600003199F2DAA00260803199F2DAA07031812
:100A7000402D7F30AA02031C9F2D03199F2D442D6A
:100A80008130AA0703189F2D2A08F700F801F90101
:100A9000FA012308AE00AE172408AD002508AC000B
:100AA0001830AA00AB012C1C6D2D2908FA07031C75
:100AB0005F2DF90A031D5F2DF80A0319AB172808EB
:100AC000F907031C662DF80A0319AB172708A400C1
:100AD000A4172408F8070318AB17AB0DF80CF90C92
:100AE000FA0CAE0CAD0CAC0C0310AA0B522D01305D
:100AF000F70703189F2DF81B842DAE0DFA0DF90D85
:100B0000F80DF70303199F2DAE1F952DFA0A031D4B
:100B1000952DF90A031D952DF80A031D952DF80C46
:100B2000F90CFA0CF70A03199F2D2308AB002708CC
:100B3000AB06AB1F9D2DF817A32DF813A32DF701BE
:100B4000F801F901FA018312031308008316031751
:100B50002208B63CA200FA012308A600A31703103E
:100B6000A30CA40CA50CFA0CF90CF80CF70CA20BB6
:100B7000AF2DA61FC62DF709F809F909FA09F70ADA
:100B80000319F80A0319F90A0319FA0A831203135D
:100B900008008318CE2DAA3084008317F701F801CE
:100BA000F901FA0183160317AA01AB01AC01AD01EB
:100BB000290828042704260403190E2E2030AE002D
:100BC0000310A20DA30DA40DA50DAA0DAB0DAC0D28
:100BD000AD0D29082D02031DF72D28082C02031D39
:100BE000F72D27082B02031DF72D26082A02031CC8
:100BF000082E2608AA022708031C270FAB02280884
:100C0000031C280FAC022908031C290FAD02031492
:100C1000F70DF80DF90DFA0DAE0BE02D2A08800046
:100C2000840A2B088000840A2C088000840A2D087E
:100C300080008312031308003808840083133918D6
:100C400083178316031722088000840A8001831209
:100C50000313B80A0319B90A080004088316031716
:100C60009A0019089C000319522E1808A5001708AD
:100C7000A4001608A3001508A200A901A8012030AD
:100C8000A7008230A600831203132D257A0883164D
:100C90000317980079089700780896007708950060
:100CA0009C0B352E1808A5001708A4001608A300F1
:100CB0001508A20083120313A6257A0883160317CA
:100CC0009800790897007808960077089500981F93
:100CD000762E9A039A169509960997099809950A06
:100CE0000319960A0319970A0319980A3B30A100C1
:100CF0009A30A000CA309F009E010A309C0019085B
:100D000003199A0A83149530840083171808A500E4
:100D10001708A4001608A3001508A2002108A900BE
:100D20002008A8001F08A7001E08A60083120313AE
:100D3000C9257808F708031DB72E83160317190A6B
:100D40001C02031DA62E83120313B72E1A080319C3
:100D5000BB2E0F391C020319AF2E0318FB2E9A1B52
:100D6000FB2E1A1BBB2E2030F32E831203132030D0
:100D7000831603179A059A1ECD2E9A121908031D81
:100D80009A0377089A002D30A200831203131C26C1
:100D9000831603171A08F7009A0119081C02031D8D
:100DA000DF2E77089A002E30A200831203131C2630
:100DB000831603171A08F70020309A0500303030E8
:100DC0009A1EF32E9A121908031D9A0377089A00A7
:100DD0002D30A200831203131C26831603171A0852
:100DE000F7009A013030F7077708A2008312031347
:100DF0001C268316031783102108A5002008A400D1
:100E00001F08A3001E08A200A901A801A7010A301B
:100E1000A60083120313C9257A0883160317A100BD
:100E20007908A00078089F0077089E009C0B822E0E
:100E30008312031308008E30F70083160317160879
:100E4000F8001508F900FA01F808031D312F790898
:100E5000F800F9010830F702F808031D312FF701F7
:100E6000392F0310F81B382FF90DF80DF703312F28
:100E7000F8138312031308008316031716089D0046
:100E80001A089D069D1F492F03110310961B03147A
:100E90007C2F16089D0019089E0015089E02031954
:100EA000572F9D1F7C2F0308013A83007C2F1A08BF
:100EB0009E0016089E020319632F9D1F7C2F0308B6
:100EC000013A83007C2F1B089E0017089E0203191D
:100ED0006F2F9D1F7C2F0308013A83007C2F1C0875
:100EE0009E0018089E0203197B2F9D1F7C2F03086C
:100EF000013A83007C2F03108312031308008E3005
:100F0000F700831603171B08F7021C08F9001D08D9
:100F1000F800F917F7080319982F0310F908031DB3
:100F2000942FF8080319982FF90CF80CF70B8D2F54
:100F30009C1F9F2FF809F909F80A0319F90A83126F
:100F4000031308008C1EA22F1A08B5003508613C57
:100F5000031DBF2F42300317C5005430C600C70120
:100F60006E3083169700980101309A004530990041
:100F700001309B009C00831203131724D72F3508E0
:100F8000623C031DD72F42300317C5005430C60002
:100F9000C7016E3083169700980101309A004530E2
:100FA000990001309B009C018312031317248C12BB
:100FB0008A110A122B2880080319F82F0317A6019B
:100FC0000408A5002610831B2614000803130C1E1A
:100FD000E72F990003172508840083132618831729
:100FE000840A031DF62F0313850A03170313DB2F4F
:060FF0008A150A16722D9D
:101000008316031719080319C828A5001D0803191A
:10101000C828A50203180D2812287F30A507031839
:10102000C82818288130A502031CC8280319C8281D
:101030002508F700F801F901FA01A4011A08A30034
:10104000A3171B08A2001C08A1001930A500200846
:10105000A10203183B280130A20203183B28A30277
:1010600003183B28A40203183B28A40AA30AA20AD7
:101070002008A1076D281F08A20203185628013076
:10108000A30203185628A40203185628A40AA30A88
:101090001F08A2072008A107031C6D28A20A031D30
:1010A0006D28A30A031D6D28A40A6D281E08803828
:1010B000A30203186C280130A40203186C28A40AA8
:1010C0001E088038A3071F08A207031C4A28A30A8A
:1010D000031D4A28A40A4A287A14A50B70287B28E5
:1010E0000310A10DA20DA30DA40D0310FA0DF90D0F
:1010F000F80DA60D2728261C83280310F80CF90CE0
:10110000FA0CA60C8628F7030319C828A61BAF28DB
:101110000310A10DA20DA30DA40D2008A102031818
:101120009B280130A20203189B28A30203189B28C6
:10113000A402031CBE281F08A2020318A62801301F
:10114000A3020318A628A402031CBE281E08803888
:10115000A3020318AF280130A402031CBE28FA0A18
:10116000031DBE28F90A031DBE28F80A031DBE2868
:10117000F70A0319C828F80CF90CFA0C1A08A5008C
:101180001E08A506A51FC628F817CC28F813CC28DA
:10119000F701F801F901FA018312031308000408AA
:1011A000831603179A0019089C000319F6281808DB
:1011B000A5001708A4001608A3001508A200A9019D
:1011C000A8012030A7008230A6008A1183120313E1
:1011D0002D258A157A088316031798007908970039
:1011E00078089600770895009C0BD7281808A5006A
:1011F0001708A4001608A3001508A2008A1183127C
:101200000313A6258A157A08831603179800790810
:1012100097007808960077089500981F1C299A0374
:101220009A169509960997099809950A0319960A35
:101230000319970A0319980A3B30A1009A30A000BD
:10124000CA309F009E010A309C00190803199A0AAF
:1012500083149530840083171808A5001708A4008C
:101260001608A3001508A2002108A9002008A8005C
:101270001F08A7001E08A6008A1183120313C925A0
:101280008A157808F708031D5F2983160317190AC2
:101290001C02031D4E29831203135F291A08031928
:1012A00063290F391C02031957290318A7299A1B10
:1012B000A7291A1B632920309E298312031320308B
:1012C000831603179A059A1E76299A121908031D88
:1012D0009A0377089A002D30831203130C1E6E298F
:1012E0009900831603171A08F7009A0119081C02BF
:1012F000031D892977089A002E30831203130C1ED0
:101300007F299900831603171A08F70020309A05E1
:10131000003030309A1E9E299A121908031D9A0334
:1013200077089A002D30831203130C1E952999001B
:10133000831603171A08F7009A013030F707770869
:10134000831203130C1EA22999008316031783101E
:101350002108A5002008A4001F08A3001E08A20061
:10136000A901A801A7010A30A6008A11831203135C
:10137000C9258A157A0883160317A1007908A000E9
:1013800078089F0077089E009C0B2829031383127E
:101390008A110A16782A8030831CD32983160317F2
:1013A000A4068312031383160317A901AA012008B8
:1013B000A8002408A8061F080319C22AA700F700DE
:1013C00023080319CB2AA7020319672A031C252A1D
:1013D0002408AD00AD172508AC002608AB00AA0113
:1013E0000310AD0CAC0CAB0CAA0CA70BEF29A81F7B
:1013F000FC292914DF2A291027102916A23084007D
:101400008317F42A2912A81B0F2A271C1A2AAD0CAD
:10141000AC0CAB0CAA0CF70A0319DA2A1A2AAD1B7A
:101420001D2A0310AA0DAB0DAC0DAD0DF70303196A
:10143000DA2A0F2A2917872A29132008A800A81FAB
:10144000232AAD17D32AAD13D32A2308A700F70008
:101450001F08A7022008AD00AD172108AC00220824
:10146000AB00AA010310AD0CAC0CAB0CAA0CA70B83
:10147000312AA81F3E2AA914DF2AA9102710A9166D
:10148000A63084008317F42AA912A81B512A271C0E
:101490005C2AAD0CAC0CAB0CAA0CF70A0319DA2AC7
:1014A0005C2AAD1B5F2A0310AA0DAB0DAC0DAD0D70
:1014B000F7030319DA2A512AA917872AA91324083E
:1014C000A800A81F652AAD17D32AAD13D32A240874
:1014D000AD00AD172508AC002608AB00A81F742A84
:1014E000AD132915DF2A2911AA012710A230840083
:1014F0008317F42AA81B9D2A2008A800271C872AE6
:10150000AD0CAC0CAB0CAA0CF70A0319DA2AAA1F13
:10151000982AAB0A031D982AAC0A031D982AAD0A23
:10152000031D982AAD0CAC0CAB0CF70A0319DA2A90
:10153000291B1C2AA91B5E2ABC2A8030AD06AD1FC0
:10154000A52ADF2A2408A800B22A2008A800AD088E
:10155000031DB22AAC08031DB22AAB08031DB22A30
:10156000F701D32AAD1BBC2A0310AA0DAB0DAC0D9D
:10157000AD0DF70BB22ADA2AA81FC02AAD17D32A5D
:10158000AD13D32A2308F7002408AD002508AC00CA
:101590002608AB00D32A1F08F7002008AD00210859
:1015A000AC002208AB002D08F8002C08F9002B082D
:1015B000FA00122BF701F801F901FA01122BAA0126
:1015C000AB09AC09AD09AA09AA0A031DED2AAB0AA9
:1015D000031DED2AAC0A0319AD0A2918FB29A91825
:1015E0003D2A2919732AA22A0008AB07031CFE2AE8
:1015F000AC0A031DFE2AAD0A031927148403000850
:10160000AC07031C062BAD0A03192714840300083A
:10161000801F803AAD0703182714291A022AA91A35
:10162000442A7A2A83120313080001308316031711
:10163000A500A600AB011C081E02AC002C08AC1FC4
:10164000232B2C08003CFA01A3007A08A4001D08F3
:101650001F02AC002C08AC1F2F2B2C08003CFA01F9
:10166000A1007A08A2001C081E020318392BFF30C3
:10167000A5001D081F0203183F2BFF30A6002208FB
:101680002402031C8E2B031D492B21082302031C5B
:101690008E2B0310A10DA20D23082102F7002208B2
:1016A000FA002408031C240FFA027708A7007A081E
:1016B000A80023082702A9002808AA002408031C60
:1016C000240FAA02A408031D692B2B082302031C64
:1016D0008D2B1C08AC001D08AD002008AE008A113F
:1016E0008312031325238A1583160317A81F812B42
:1016F0002108A70722080318220FA80725089C071E
:101700008B2B2908A7072A0803182A0FA8072508E2
:101710009C0726089D07AB0A622BD22B0310A30D52
:10172000A40D21082302F7002408FA002208031C54
:10173000220FFA027708A7007A08A80021082702DA
:10174000A9002808AA002208031C220FAA02A20846
:10175000031DAE2B2B082102031CD22B1C08AC004E
:101760001D08AD002008AE008A1183120313252343
:101770008A1583160317A81FC62B2308A70724085A
:101780000318240FA80726089D07D02B2908A707B0
:101790002A0803182A0FA80725089C0726089D0772
:1017A000AB0AA72B83120313080001302907831605
:1017B0000317990019087F3C03180A2C9A0114306A
:1017C0009B0080309C002C309D001A089E001C0855
:1017D0001A071E020318032C1B089F001D081B0775
:1017E0001F020318012C1E08AC001F08AD00AE013B
:1017F0008A118312031325238A15831603179F0A60
:10180000EE2B9E0AE72B83120313A90101308316E6
:1018100003179900831203132D0883160317A500DD
:10182000831203132C0883160317A40083120313D7
:101830002B0883160317A300831203132A088316A9
:101840000317A200A901A8018030A700A6008A11F1
:10185000831203132D258A157A08831603179D001A
:1018600079089C0078089B0077089A0083101D086F
:10187000A2001C08A1001B08A0001A089F00A601D6
:10188000A5017030A4008530A30083120313CB217F
:101890007A08831603179E0079089D0078089C003B
:1018A00077089B008A11831203137F278A15780813
:1018B000831603179A001808A5001708A400160835
:1018C000A3001508A200A901A8018030A700A60066
:1018D0008A11831203132D258A157A08831603179C
:1018E0009E0079089D0078089C0077089B00831073
:1018F0001E08A2001D08A1001C08A0001B089F00D4
:10190000A601A5017030A4008530A3008312031343
:10191000CB217A08831603179E0079089D0078086A
:101920009C0077089B008A11831203137F278A1576
:101930007808831603179B00831203132908831664
:1019400003179C001A089D0019089E001B089F00A1
:101950000130A00083120313152383160317180800
:1019600083120313AD0083160317170883120313A2
:10197000AC0083160317160883120313AB008316FB
:101980000317150883120313AA00831603171908F7
:1019900083120313A9000800281028088316870063
:1019A000831207148316861283128612831606107A
:1019B0008312061083168610831286108316061172
:1019C00083120611A7018B1BA7178B13831603170E
:1019D000B301C030B4008A1183120313F4228A15B4
:1019E000A71B8B17A7018B1BA7178B13013083161F
:1019F0000317B300C030B4008A1183120313F4221A
:101A00008A15A71B8B17A7018B1BA7178B13831690
:101A10000317B3014030B4008A1183120313F42278
:101A20008A15A71B8B17A7018B1BA7178B130130D8
:101A300083160317B3004030B4008A1183120313D6
:101A4000F4228A15A71B8B17A7018B1BA7178B13D3
:101A500083160317B301B830B4008A11831203133D
:101A6000F4228A15A71B8B17A7018B1BA7178B13B3
:101A7000013083160317B300B830B4008A11831203
:101A80000313F4228A15A71B8B170317250B6C2D44
:101A90000313A7018B1BA7178B1383160317B3011F
:101AA0003F30B4008A1183120313F4228A15A71B56
:101AB0008B17A7018B1BA7178B13013083160317F6
:101AC000B3003F30B4008A1183120313F4228A1545
:101AD000A71B8B178E2D03170313A7018B1BA717AB
:101AE0008B1383160317B3013E30B4008A1183129F
:101AF0000313F4228A15A71B8B17A7018B1BA717AB
:101B00008B13013083160317B3003E30B4008A11E3
:101B100083120313F4228A15A71B8B170317A60140
:101B2000A7012708073C031C4D2E8316031306113B
:101B300083120611A7018B1BA7178B13831603179C
:101B4000B3014030B4008A1183120313F4228A15C2
:101B5000A71B8B17A7018B1BA7178B1301308316AD
:101B60000317B3004030B4008A1183120313F42228
:101B70008A15A71B8B1703172708B838A90003136A
:101B8000A7018B1BA7178B1383160317B3018312AF
:101B900029088316B4008A1183120313F4228A15CC
:101BA000A71B8B1703172708B838A9000313A70131
:101BB0008B1BA7178B13013083160317B3008312F7
:101BC00029088316B4008A1183120313F4228A159C
:101BD000A71B8B1783160611831206150317A8017E
:101BE00028083F3C031C4B2E0313A7018B1BA71790
:101BF0008B13FF3083160317A80083122608831661
:101C0000A9008A1183120313CB228A15A71B8B17F5
:101C100078080317A9000313A7018B1BA7178B13C1
:101C200083160317B301831229088316B4008A119F
:101C300083120313F4228A15A71B8B17A7018B1B92
:101C4000A7178B13FF3083160317A80083122608EB
:101C50008316A9008A1183120313CB228A15A71BAE
:101C60008B1778080317A9000313A7018B1BA7176D
:101C70008B13013083160317B300831229088316D0
:101C8000B4008A1183120313F4228A15A71B8B1741
:101C90000317A80AF02DA70A912D03138A150A1617
:021CA0003E28DC
:10200000831606178312061FC4290130B4068B12EB
:10201000341C7A28F8010B30F7004D308400831708
:1020200078080A1231220A168000F80A840AF70B8F
:1020300010282230831603179700980101309A0068
:102040004D30990001309B009C000A12831203134B
:1020500017240A160130B9004530B8000330840057
:102060002D08831603179800831203132C08831678
:1020700003179700831203132B0883160317960088
:10208000831203132A088316031795000230990060
:102090000A12831203132D260A16B0308316031773
:1020A000A2000A12831203131C260A164330831659
:1020B0000317A2000A12831203131C260A164830C3
:1020C0008316031797000A30980001309A004530B4
:1020D000990001309B009C000A12831203131724FD
:1020E0000A1683160C1483128E010B308F00DC301D
:1020F0008E00C429F8010B30F70058308400831794
:1021000078080A1231220A168000F80A840AF70BAE
:1021100080282230831603179700980101309A0017
:102120005830990001309B009C010A12831203135E
:1021300017240A16F8010A30F70058308400831774
:1021400078080A1240220A168000F80A840AF70B5F
:10215000A0282230831603179700980101309A00B7
:102160005830990001309B009C000A12831203131F
:1021700017240A16831603179A0114309B00803027
:102180009C002C309D001A089E001C081A071E0295
:102190000318E1281B089F001D081B071F020318D6
:1021A000DF281E08AC001F08AD00AE010A12831222
:1021B000031325230A16831603179F0ACC289E0AA9
:1021C000C528F8010A30F7005830840083177808D2
:1021D0000A128312031340220A168000F80A840AA6
:1021E000F70BF328F62883160317E7282230831607
:1021F00003179700980101309A0058309900013078
:102200009B009C010A128312031317240A16013043
:10221000B9004530B8000330840031088316031735
:102220009800831203133008831603179700831254
:1022300003132F08831603179600831203132E0827
:10224000831603179500023099000A1283120313B4
:102250002D260A16B03083160317A2000A12831225
:1022600003131C260A16433083160317A2000A1212
:10227000831203131C260A1648308316031797008F
:102280000A30980001309A004530990001309B00D7
:102290009C010A128312031317240A16A90183163C
:1022A0000C10F8010A30F7005830840083177808C2
:1022B0000A1283124E220A168000F80A840AF70BCB
:1022C0006229642983165729223083160317970041
:1022D000980101309A005830990001309B009C0011
:1022E0000A128312031317240A160317E301630863
:1022F0004F3C031CA029A03063078400831300080F
:1023000083169500831203130B08F7008B13031732
:1023100063088D008316150883128C0083168C13B6
:102320000C1555308D00AA308D008C148C18962910
:102330000C117708831203138B040317E30A772920
:10234000F8010A30F70058308400831778080A1221
:1023500003134E220A168000F80A840AF70BB129EB
:10236000B3290317A6292230831603179700980173
:1023700001309A005830990001309B009C010A12EC
:102380008312031317240A16831686178312861FD7
:102390008D2B3410F8010B30F70064308400831764
:1023A00078080A1231220A168000F80A840AF70B0C
:1023B000D0292230831603179700980101309A0024
:1023C0006430990001309B009C010A1283120313B0
:1023D00017240A1683160C1083128B120317EF01B1
:1023E0006F084F3C031C152BA0306F07840083132C
:1023F0006F088D0083168C130C1483120C08800058
:10240000A0306F078400831300088316960195009F
:102410000A12831203131B270A1683160317A5013A
:10242000A4012030A3008130A2007A08A900790815
:10243000A8007808A7007708A6000A1283120313E1
:102440002D250A167A088316031798007908970035
:1024500078089600770895001808A5001708A400CA
:102460001608A3001508A200A901A8014830A7007A
:102470008530A6000A12831203132D250A167A0846
:102480008316031798007908970078089600770854
:10249000950018089C0017089B0016089A0015085C
:1024A0009900A0019F019E0189309D000A128A15A2
:1024B0008312031300200A168A117A088316031761
:1024C0009300790892007808910077089000033013
:1024D000840013089800120897001108960010084D
:1024E0009500023099000A128A1583120313CF282F
:1024F0000A168A1120300C1E7B2A990083160317B6
:1025000098019701603096008330950013089C0075
:1025100012089B0011089A00100899000A128312F1
:1025200003133C270A160318972A031DC12A831692
:102530000317130898001208970011089600100856
:1025400095009C019B0148309A00843099000A1242
:10255000831203133C270A160318B02A031DC12A4D
:1025600083160317130898001208970011089600A5
:10257000100895000A128A1583120313D5230A1630
:102580008A11831603171308980012089700110880
:102590009600100895009C019B0160309A008330E2
:1025A00099000A12831203133C270A16031CE72A18
:1025B00083160317980197016830960083309500C1
:1025C0000A128A1583120313D5230A168A11831659
:1025D000031798019701483096008430950013083E
:1025E0009C0012089B0011089A00100899000A121A
:1025F000831203133C270A16031C0D2B83160317A3
:102600009801970148309600843095000A128A1587
:1026100083120313D5230A168A11A03003176F07FC
:10262000840083138001EF0AF029F8010A30F700D3
:1026300064308400831778080A1203134E220A16A6
:102640008000F80A840AF70B262B282B03171B2B74
:102650002230831603179700980101309A006430E6
:10266000990001309B009C000A1283120313172467
:102670000A1683160317940114084F3C031C672B9A
:10268000A0301407840083130008950083120313FD
:102690000B08F7008B1383160317140883128D00A1
:1026A0008316150883128C0083168C130C15553075
:1026B0008D00AA308D008C148C185C2B0C117708BF
:1026C000831203138B0483160317940A3C2BF8011F
:1026D0000A30F70064308400831778080A128312E6
:1026E00003134E220A168000F80A840AF70B792B8E
:1026F0007C2B831603176D2B22308316031797004C
:10270000980101309A006430990001309B009C01CF
:102710000A128312031317240A160B108A110A12C5
:022720002B2864
:1030000003081F398300193083169900A6309800F1
:10301000903083129800FF30A800A9013410B50148
:103020000A30B6000630B700B901B80183161F1484
:103030009F141F159F118313403086001F109F148B
:103040001F159F1583121F179F1783169F17831233
:103050001F1483160108C03907388100B530831268
:103060009000403081008E010B308F00DC308E00EC
:1030700001300317A5000A120313CC2C0A168B1576
:1030800083168C16C03083128B04F8010D30F700C4
:1030900018308400831778080A128A115C220A16F5
:1030A0008A158000F80A840AF70B4B28A7018B1BAE
:1030B000A7178B138316031797010A309800013066
:1030C0009A001830990001309B009C000A128A1166
:1030D0008312031317240A168A15A71B8B17A7013F
:1030E0008B1BA7178B13831603179C0108309D00B9
:1030F00080309E0008309F000130A0000A12831229
:10310000031315230A16A71B8B17A7018B1BA717E1
:103110008B13831603179C0113309D0080309E0093
:1031200013309F000130A0000A12831203131523ED
:103130000A16A71B8B170030F8001F08C739780440
:103140009F00A7018B1BA7178B13FA300317C5002D
:103150000A128A1103136D220A168A15A71B8B17F0
:103160001F151F19B12883161E088312B2001E08EE
:10317000B300A7018B1BA7178B1333088316031704
:1031800096008312031332088316031795000A1260
:103190008A11831203131B270A168A15A71B8B1784
:1031A000A7018B1BA7178B1383160317A501A40177
:1031B0002030A3008130A2007A08A9007908A80075
:1031C0007808A7007708A6000A128A118312031351
:1031D0002D250A168A15A71B8B177A080317A80036
:1031E0007908A7007808A6007708A5000313A701AF
:1031F0008B1BA7178B13031728088316A5008312B0
:1032000027088316A400831226088316A3008312BE
:1032100025088316A200A901A8014830A70085301F
:10322000A6000A128A11831203132D250A168A1585
:10323000A71B8B177A080317A8007908A70078083E
:10324000A6007708A5000313A7018B1BA7178B13F4
:103250000317280883169C008312270883169B00F7
:103260008312260883169A00831225088316990074
:10327000A0019F019E0189309D000A128312031351
:1032800000200A16A71B8B177A08AD007908AC003E
:103290007808AB007708AA00A7018B1BA7178B1330
:1032A000FA300317C5000A128A1103136D220A1699
:1032B0008A15A71B8B17341C8B2D0030F8001F08B4
:1032C000C73978049F000330F700F70B65291F15F5
:1032D0001F19682983161E088312B2001E08B30046
:1032E000A7018B1BA7178B133308831603179600B0
:1032F0008312031332088316031795000A128A11EA
:10330000831203131B270A168A15A71B8B17A70105
:103310008B1BA7178B1383160317A501A40120305D
:10332000A3008130A2007A08A9007908A8007808D3
:10333000A7007708A6000A128A11831203132D250D
:103340000A168A15A71B8B177A080317A800790895
:10335000A7007808A6007708A5000313A7018B1B18
:10336000A7178B13031728088316A50083122708B5
:103370008316A400831226088316A300831225084F
:103380008316A200A901A8014830A7008530A60035
:103390000A128A11831203132D250A168A15A71BF8
:1033A0008B177A080317A8007908A7007808A600E9
:1033B0007708A5000313A7018B1BA7178B1303170F
:1033C000280883169C008312270883169B0083120B
:1033D000260883169A008312250883169900A001F7
:1033E0009F019E0189309D000A1283120313002061
:1033F0000A16A71B8B177A08B1007908B000780865
:10340000AF007708AE00A7018B1BA7178B133108FD
:1034100083160317980083120313300883160317CB
:103420009700831203132F08831603179600831245
:1034300003132E08831603179500831203132D0818
:10344000831603179C00831203132C08831603179B
:103450009B00831203132B08831603179A00831211
:1034600003132A088316031799000A128A1183127C
:1034700003133C270A168A15A71B8B1703190E2B5B
:103480000130B9001030B80003308400A7018B1B55
:10349000A7178B132D0883160317980083120313A5
:1034A0002C08831603179700831203132B08831627
:1034B00003179600831203132A0883160317950037
:1034C000023099000A128A11831203132D260A165C
:1034D0008A15A71B8B17A7018B1BA7178B13B0305F
:1034E00083160317A2000A128A11831203131C26E3
:1034F0000A168A15A71B8B17A7018B1BA7178B13FF
:10350000433083160317A2000A128A118312031391
:103510001C260A168A15A71B8B17A7018B1BA7173A
:103520008B1348308316031797000A309800013038
:103530009A001030990001309B009C010A128A11F8
:103540008312031317240A168A15A71B8B17013041
:10355000B9001030B80003308400A7018B1BA717F7
:103560008B13310883160317980083120313300856
:10357000831603179700831203132F08831603176C
:103580009600831203132E0883160317950002304A
:1035900099000A128A11831203132D260A168A151E
:1035A000A71B8B17A7018B1BA7178B13B030831694
:1035B0000317A2000A128A11831203131C260A168B
:1035C0008A15A71B8B17A7018B1BA7178B134330DB
:1035D00083160317A2000A128A11831203131C26F2
:1035E0000A168A15A71B8B17A7018B1BA7178B130E
:1035F00048308316031797000A30980001309A006C
:103600001030990001309B009C000A128A1183122D
:10361000031317240A168A15A71B8B17A7018B1BE8
:10362000A7178B133108831603179800831203130F
:103630003008831603179700831203132F0883168D
:1036400003179600831203132E08831603179500A1
:103650009C019B0120309A00843099000A128A1143
:10366000831203133C270A168A15A71B8B1703180E
:103670003B2B031D6D2BA7018B1BA7178B138316E9
:103680000317980197010C3096008430950083123F
:1036900003133108831603179C00831203133008A9
:1036A000831603179B00831203132F088316031737
:1036B0009A00831203132E088316031799000A1227
:1036C0008A11831203133C270A168A15A71B8B172E
:1036D00003186C2B031D6D2B8B12A7018B1BA717D7
:1036E0008B138316031798019701203096008430BE
:1036F0009500831203133108831603179C0083126D
:1037000003133008831603179B00831203132F083B
:10371000831603179A00831203132E0883160317C8
:1037200099000A128A11831203133C270A168A157C
:10373000A71B8B170318C72BA7018B1BA7178B136E
:103740003108831603179800831203133008831679
:1037500003179700831203132F088316031796008D
:10376000831203132E088316031795009C019B01F7
:103770000C309A00843099000A128A1183120313C4
:103780003C270A168A15A71B8B17031CC82B8B1600
:10379000A7018B1BA7178B133108831603179800FB
:1037A0008312031330088316031797008312031341
:1037B0002F08831603179600831203132E0883160F
:1037C000031795009C019B0148309A0084309900B2
:1037D0000A128A11831203133C270A168A15A71BA3
:1037E0008B170318F52B031D8F2CA7018B1BA71715
:1037F0008B1383160317980197016030960083306E
:103800009500831203133108831603179C0083125B
:1038100003133008831603179B00831203132F082A
:10382000831603179A00831203132E0883160317B7
:1038300099000A128A11831203133C270A168A156B
:10384000A71B8B170318262C031D8F2CA7018B1B7E
:10385000A7178B13310883160317980083120313DD
:103860003008831603179700831203132F0883165B
:1038700003179600831203132E088316031795006F
:103880000A1283120313D5230A16A71B8B17543071
:10389000031798003E30990035309A0030309B0075
:1038A0009C010313A7018B1BA7178B1303308316EF
:1038B00003179700980101309A00183099000130E1
:1038C0009B009C010A128A118312031317240A1603
:1038D0008A15A71B8B175430031798003C309900AA
:1038E00032309A0038309B009C010313A7018B1BD8
:1038F000A7178B1303308316031797009801013025
:103900009A001830990001309B009C010A128A111C
:103910008312031317240A168A15A71B8B17A701F6
:103920008B1BA7178B138316031798019701483039
:103930009600843095008312031331088316031711
:103940009C00831203133008831603179B00831215
:1039500003132F08831603179A00831203132E08EC
:103960008316031799000A128A11831203133C2746
:103970000A168A15A71B8B17031CEA2C5430031751
:1039800098003E30990035309A0030309B009C0101
:103990000313A7018B1BA7178B1303308316031781
:1039A0009700980101309A001830990001309B006F
:1039B0009C000A128A118312031317240A168A150F
:1039C000A71B8B173108AD003008AC002F08AB00E7
:1039D0002E08AA00A7018B1BA7178B13310883168B
:1039E00003179800831203133008831603179700F8
:1039F000831203132F0883160317960083120313F1
:103A00002E088316031795009C019B0160309A00D5
:103A1000833099000A128A11831203133C270A1675
:103A20008A15A71B8B17031C412D543003179800D0
:103A30003C30990032309A0038309B009C010313CF
:103A4000A7018B1BA7178B1303308316031797004F
:103A5000980101309A001830990001309B009C00B9
:103A60000A128A118312031317240A168A15A71B38
:103A70008B173108AD003008AC002F08AB002E08C2
:103A8000AA000130B9001030B80003308400A7014B
:103A90008B1BA7178B13310883160317980083120B
:103AA00003133008831603179700831203132F089C
:103AB000831603179600831203132E088316031729
:103AC0009500023099000A128A11831203132D26E1
:103AD0000A168A15A71B8B171030840083170A1249
:103AE0008A11DB2F0A168A150D300C1E752D9900D0
:103AF0000A300C1E792D9900A7018B1BA7178B1379
:103B0000FA300317C5000A128A1103136D220A1630
:0A3B10008A15A71B8B175B296300C1
:02400E00713F00
:00000001FF
;PIC16F877
;CRC=AA0A  CREATED="17-nov.-20 16:42"
