:100000000B308A00E82B0000FF00030E8301A100E3
:100010000A08A0008A010408A2007708A300780853
:10002000A4007908A5007A08A600831383128B1D0B
:100030001B280B1832288C308400801E21288C1A33
:100040003528220884002308F7002408F800250832
:10005000F9002608FA0020088A00210E8300FF0E0E
:100060007F0E09008A110A12572C8A110A12A02C3D
:100070000A108A100A113F3E03188A0A82000034CF
:100080000034003400340034003400345F34003471
:1000900000340034033400340334003414343E3468
:1000A00014343E34143424342A347F342A34123441
:1000B0004334333408346634613436344934553487
:1000C0002234503400340534033400340034003416
:1000D0001C342234413400340034413422341C3482
:1000E0000034143408343E340834143408340834EA
:1000F0003E34083408340034503430340034003492
:100100000834083408340834083400346034603467
:1001100000340034203410340834043402343E34C3
:100120005134493445343E340034043402347F348D
:100130000034423461345134493446342234413439
:100140004934493436341834143412347F3410347A
:10015000273445344534453439343E344934493400
:1001600049343234013401347134093407343634BB
:1001700049344934493436342634493449344934CD
:100180003E340034363436340034003400345634CF
:10019000363400340034083414342234413400340A
:1001A00014341434143414341434003441342234E8
:1001B00014340834023401345134093406343E34E2
:1001C0004134593455345E347E34093409340934A9
:1001D0007E347F3449344934493436343E344134F2
:1001E0004134413422347F344134413441343E344B
:1001F0007F3449344934493441347F340934093433
:10020000093401343E344134413449343A347F3482
:100210000834083408347F34003441347F344134A6
:10022000003430344034403440343F347F34083478
:100230001434223441347F34403440344034403428
:100240007F3402340C3402347F347F34023404347B
:1002500008347F343E344134413441343E347F34B9
:1002600009340934093406341E342134213421344C
:100270005E347F3409340934093476340A148A1020
:100280000A11453E03188A0A82002634493449344B
:1002900049343234013401347F34013401343F3481
:1002A0004034403440343F341F3420344034203410
:1002B0001F347F342034103420347F3441342234CE
:1002C0001C34223441340734083470340834073481
:1002D0006134513449344534433400347F3441343B
:1002E0000034003402340434083410342034003430
:1002F000003441347F340034043402340134023495
:100300000434403440344034403440340034013408
:1003100002340434003420345434543454347834A3
:100320007F344434443444343834383444344434EA
:100330004434443438344434443444347F343834DA
:100340005434543454341834043404347E3405346E
:10035000053408345434543454343C347F34083431
:10036000043404347834003444347D34403400346C
:100370002034403444343D3400347F341034283445
:1003800044340034003441347F34403400347C340D
:1003900004347834043478347C3408340434043439
:1003A0007834383444344434443438347C34143469
:1003B00014341434083408341434143414347C34AD
:1003C00000347C3408340434043448345434543411
:1003D00054342034043404343F34443444343C34FE
:1003E0004034403420347C341C34203440342034B5
:1003F0001C343C344034303440343C3444342834AD
:100400001034283444340C345034503450343C3498
:100410004434643454344C34443400340834363472
:1004200041344134003400347F34003400344134EA
:100430004134363408340034023401340234043494
:1004400002340A108A140A1182074334613470346A
:1004500074347534723461346E3464346F340034FF
:100460000A108A140A118207543465346D347034CA
:1004700065347234613474347534723461343A34AE
:100480000034F701F80183162F0803103018F7071E
:10049000F70CF80CB018F707F70CF80C3019F70741
:1004A000F70CF80CB019F707F70CF80C301AF7072F
:1004B000F70CF80CB01AF707F70CF80C301BF7071D
:1004C000F70CF80CB01BF707F70CF80C83120800B8
:1004D0000030831688000612831206128316B608AF
:1004E0000319772A8610831286147A2A8316061037
:1004F000831206147B2A831688013708831288002A
:10050000812A8316861283128616862A83168612FD
:100510008312861283160610831206108316861025
:10052000831286100800FF3083168800061283129B
:1005300006168316B5080319A22A8610831286149C
:10054000A52A8316061083120614A62A831686127D
:1005500083128616AB2AFF308316880083120808A0
:100560008316B60086128312861283160610831233
:100570000610831686108312861083163608F8003C
:1005800083120800831633102F083F3C0318CB2A30
:100590004030AF0233140611831206118316AF13D5
:1005A0002F17003033180130B400B6002F08B70001
:1005B000831268220030831633180130B400300CE7
:1005C000F700F70CF70C1F30F7057708BF39B8387C
:1005D000B5003408B6003508B700831268228316C8
:1005E0000611831206150030831633180130B4004B
:1005F000B500831293220030831633180130B40003
:10060000B5008312932278088316B200310B182BA1
:1006100030080739B4000130F7003408F800031936
:10062000152B0310F70DF80B112B7708B204282BAC
:1006300030080739B4000130F7003408F800031916
:10064000252B0310F70DF80B212B7708FF3AB20585
:100650000611831206110030831633180130B400DE
:10066000B6002F08B7008312682283160611831282
:1006700006150030831633180130B400B600320876
:10068000B70083126822080083162108FA002008A8
:10069000840083137A18831780080319382C2108E3
:1006A000FA002008840083137A1883170008523C4C
:1006B000031C7F2B2108FA002008840083137A187A
:1006C000831720300002AE00AF000530B000831267
:1006D000412278088316AD00F8000530F700A830F5
:1006E000840083137808831238208000F80A840A73
:1006F000F70B7B2B7D2B8316722BB52B83162108D2
:10070000FA002008840083137A18831700087E3CBF
:10071000031CAF2B2108FA002008840083137A18E9
:10072000831753300002AE00AF000530B0008312D3
:10073000412278088316AD00F8000530F700A83094
:1007400084008313780883123E218000F80A840A0B
:10075000F70BAB2BAD2B8316A22BB52B8316A80161
:10076000A901AA01AB01AC01831283162108FA008A
:100770002008840083137A18831700080A3A83122A
:100780000319C62B073A0319D12BD32B0730831635
:10079000AF002208B0008312412201307807FE0723
:1007A000322CFD01322C05308316AF002208B00038
:1007B0008312412278087D077F3C0318EA2BFD0154
:1007C00007308316AF002208B000831241220130A7
:1007D0007807FE078316A4012408043C031C312C6F
:1007E000A5012508063C031C2D2CA83024078400F5
:1007F00083130008AD00F7002508F8000319042C46
:100800000310F70CF80B002C771C2B2CA6012208E8
:10081000260203182B2CA701220827020318292CD3
:1008200027087D07AD002508AF002208B00083121D
:10083000412278087E0783162607AE002D08AF00F8
:100840002E08B0002308B1008312C2228316A70A23
:100850000C2CA60A072CA50AF12BA40A2208FD07D6
:10086000EC2B83128316A00A0319A10AFD0A452B5B
:10087000831208007B088316A0007D087B072002F6
:100880000318552C7C08A1007E087C072102031860
:10089000532C2008AF002108B000B1018312C222FE
:1008A0008316A10A442CA00A3D2C8312080083164B
:1008B00006178312061F9C2C0130AE062E1C7A2CC4
:1008C000F8010B30F7006B30840083137808212285
:1008D0008000F80A840AF70B662C2230FD00FE0126
:1008E0008316A1016B30A0000130A200A300831287
:1008F00044239C2CF8010B30F7006B3084008313E9
:10090000780821228000F80A840AF70B802C223014
:10091000FD00FE018316A1016B30A0000130A20092
:10092000A30183124423FB011430FC008030FD003E
:100930002C30FE003A24A9010B108A110A1221283A
:1009400083168C1283128C1EA32C1A08AF002F085A
:10095000613C031DBD2C4230EB005430EC00ED0136
:100960006E30FD00FE018316A1016B30A000013046
:10097000A200A30083124423D12C2F08623C031D44
:10098000D12C4230EE005430EF00F0016E30FD000B
:10099000FE018316A101A0000130A200A301831271
:1009A00044238C128A110A12212828102808831641
:1009B0008700831207148316861283128612831609
:1009C0000610831206108316861083128610831673
:1009D000061183120611A7018B1BA7178B13831611
:1009E000B601C030B70083126822A71B8B17A7017E
:1009F0008B1BA7178B1301308316B600C030B700CE
:100A000083126822A71B8B17A7018B1BA7178B13B9
:100A10008316B6014030B70083126822A71B8B17DC
:100A2000A7018B1BA7178B1301308316B60040302C
:100A3000B70083126822A71B8B17A7018B1BA71770
:100A40008B138316B601B830B70083126822A71B38
:100A50008B17A7018B1BA7178B1301308316B600CA
:100A6000B830B70083126822A71B8B174B0B522D8F
:100A7000A7018B1BA7178B138316B6013F30B70056
:100A800083126822A71B8B17A7018B1BA7178B1339
:100A900001308316B6003F30B70083126822A71BCF
:100AA0008B176B2DA7018B1BA7178B138316B60112
:100AB0003E30B70083126822A71B8B17A7018B1B40
:100AC000A7178B1301308316B6003E30B700831290
:100AD0006822A71B8B17CC01CD014D08073C031CD6
:100AE000FD2D8316061183120611A7018B1BA71774
:100AF0008B138316B6014030B70083126822A71B00
:100B00008B17A7018B1BA7178B1301308316B60019
:100B10004030B70083126822A71B8B174D08B838E6
:100B2000CF00A7018B1BA7178B138316B601831267
:100B30004F088316B70083126822A71B8B174D0836
:100B4000B838CF00A7018B1BA7178B130130831672
:100B5000B60083124F088316B70083126822A71BC2
:100B60008B178316061183120615CE014E083F3CE3
:100B7000031CFB2DA7018B1BA7178B13FF308316BC
:100B8000AF0083124C088316B00083124122A71BCA
:100B90008B177808CF00A7018B1BA7178B13831621
:100BA000B601831278088316B70083126822A71B48
:100BB0008B17A7018B1BA7178B13FF308316AF0072
:100BC00083124C088316B00083124122A71B8B1797
:100BD0007808CF00A7018B1BA7178B130130831652
:100BE000B600831278088316B70083126822A71B09
:100BF0008B17CE0AB62DCD0A6D2D8A150A12132C2D
:100C00000130DB00DC00E10152085402E20062081E
:100C1000E21F0C2E6208003CFA01D9007A08DA00C3
:100C200053085502E2006208E21F182E6208003CD9
:100C3000FA01D7007A08D800520854020318222E6D
:100C4000FF30DB00530855020318282EFF30DC006C
:100C500058085A02031C802E031D322E57085902D1
:100C6000031C802E0310D70DD80D59085702F7002A
:100C70005808FA005A08031C5A0FFA027708DD00D8
:100C80007A08DE0059085D02DF005E08E0005A08BD
:100C9000031C5A0FE002DA08031D522E61085902A4
:100CA000031C7F2EA7018B1BA7178B1352088316DB
:100CB000AF00831253088316B000831256088316C0
:100CC000B1008312C222A71B8B17DE1F712E57089B
:100CD000DD0758080318580FDE075B085207D200DB
:100CE0007D2E5F08DD0760080318600FDE075B08D4
:100CF0005207D2005C085307D300E10A4B2ECD2ED9
:100D00000310D90DDA0D57085902F7005A08FA00F6
:100D10005808031C580FFA027708DD007A08DE0035
:100D200057085D02DF005E08E0005808031C580FFA
:100D3000E002D808031DA02E61085702031CCD2E27
:100D4000A7018B1BA7178B1352088316AF008312C2
:100D500053088316B000831256088316B10083121D
:100D6000C222A71B8B17DE1FBF2E5908DD075A08AA
:100D700003185A0FDE075C085307D300CB2E5F0819
:100D8000DD0760080318600FDE075B085207D2001A
:100D90005C085307D300E10A992E08008E30F70053
:100DA0004C08F8004B08F900FA01F808031DE22E80
:100DB0007908F800F9010830F702F808031DE22E5F
:100DC000F701EA2E0310F81BE92EF90DF80DF703D1
:100DD000E22EF8138A150A12722C580803195D2F97
:100DE000E0005C0803195D2FE0070318FE2E7F303A
:100DF000E002031C5D2F03195D2F022F8130E007F5
:100E000003185D2F6008F700F801F901FA0159088D
:100E1000E400E4175A08E3005B08E2001830E00041
:100E2000E101621C2B2F5F08FA07031C1D2FF90A32
:100E3000031D1D2FF80A0319E1175E08F907031CAB
:100E4000242FF80A0319E1175D08DA00DA175A08A7
:100E5000F8070318E117E10DF80CF90CFA0CE40C93
:100E6000E30CE20C0310E00B102F0130F70703181E
:100E70005D2FF81B422FE40DFA0DF90DF80DF70365
:100E800003195D2FE41F532FFA0A031D532FF90A8C
:100E9000031D532FF80A031D532FF80CF90CFA0CFD
:100EA000F70A03195D2F5908E1005D08E106E11F0B
:100EB0005B2FF817612FF813612FF701F801F90183
:100EC000FA0108004C08D3005008D306D31F6D2F39
:100ED00003110310CC1B0314A02F4C08D3004F08A0
:100EE000D4004B08D40203197B2FD31FA02F030873
:100EF000013A8300A02F5008D4004C08D4020319F3
:100F0000872FD31FA02F0308013A8300A02F510879
:100F1000D4004D08D4020319932FD31FA02F030828
:100F2000013A8300A02F5208D4004E08D4020319BE
:100F30009F2FD31FA02F0308013A8300A02F031077
:100F400008008318A62F603084008313F701F8018E
:100F5000F901FA01E001E101E201E3015F085E0449
:100F60005D045C040319E42F2030E4000310D80D65
:100F7000D90DDA0DDB0DE00DE10DE20DE30D5F089B
:100F80006302031DCD2F5E086202031DCD2F5D0895
:100F90006102031DCD2F5C086002031CDE2F5C087C
:100FA000E0025D08031C5D0FE1025E08031C5E0F9A
:100FB000E2025F08031C5F0FE3020314F70DF80D54
:100FC000F90DFA0DE40BB62F60088000840A610861
:100FD0008000840A62088000840A63088000080098
:100FE0003008840083133118831758088000840A5E
:0A0FF0008001B00A0319B10A0800DD
:101000004F080319C628DB0053080319C628DB0262
:1010100003180B2810287F30DB070318C628162872
:101020008130DB02031CC6280319C6285B08F700C1
:10103000F801F901FA01DA015008D900D91751086D
:10104000D8005208D7001930DB005608D702031821
:1010500039280130D80203183928D9020318392851
:10106000DA0203183928DA0AD90AD80A5608D70743
:101070006B285508D802031854280130D9020318E8
:101080005428DA0203185428DA0AD90A5508D8076E
:101090005608D707031C6B28D80A031D6B28D90AEA
:1010A000031D6B28DA0A6B2854088038D90203180C
:1010B0006A280130DA0203186A28DA0A54088038EC
:1010C000D9075508D807031C4828D90A031D482802
:1010D000DA0A48287A14DB0B6E2879280310D70D1A
:1010E000D80DD90DDA0D0310FA0DF90DF80DDC0D40
:1010F00025285C1C81280310F80CF90CFA0CDC0C78
:101100008428F7030319C628DC1BAD280310D70D6C
:10111000D80DD90DDA0D5608D702031899280130D9
:10112000D80203189928D90203189928DA02031C57
:10113000BC285508D8020318A4280130D902031886
:10114000A428DA02031CBC2854088038D9020318EA
:10115000AD280130DA02031CBC28FA0A031DBC28A2
:10116000F90A031DBC28F80A031DBC28F70A031955
:10117000C628F80CF90CFA0C5008DB005408DB0602
:10118000DB1FC428F817CA28F813CA28F701F8018A
:10119000F901FA018A150A12B32C0408D0004F088D
:1011A000D2000319EE284E08DB004D08DA004C0887
:1011B000D9004B08D800DF01DE012030DD0082308D
:1011C000DC008A11ED268A157A08CE007908CD0058
:1011D0007808CC007708CB00D20BD3284E08DB0070
:1011E0004D08DA004C08D9004B08D8005808B63C26
:1011F000D800FA015908DC00D9170310D90CDA0C11
:10120000DB0CFA0CF90CF80CF70CD80BFD28DC1FE2
:101210001429F709F809F909FA09F70A0319F80A6C
:101220000319F90A0319FA0A7A08CE007908CD00E1
:101230007808CC007708CB00CE1F2B29D003D0161E
:10124000CB09CC09CD09CE09CB0A0319CC0A031965
:10125000CD0A0319CE0A3B30D7009A30D600CA30E7
:10126000D500D4010A30D2004F080319D00A8314E4
:101270004B30840083134E08DB004D08DA004C0825
:10128000D9004B08D8005708DF005608DE00550883
:10129000DD005408DC008A11A1278A157808F708B8
:1012A000031D65294F0A52020319652950080319C5
:1012B00067290F39520203195F2903189F29D01B90
:1012C0009F29501B6729203099292030D005D01E36
:1012D0007729D0124F08031DD0037708D0002D3096
:1012E000D8008A11F0278A155008F700D0014F085E
:1012F0005202031D87297708D0002E30D8008A11AA
:10130000F0278A155008F7002030D0050030303023
:10131000D01E9929D0124F08031DD0037708D000A2
:101320002D30D8008A11F0278A155008F700D00117
:101330003030F7077708D8008A11F0278A15831014
:101340005708DB005608DA005508D9005408D800C1
:10135000DF01DE01DD010A30DC008A11A1278A15D8
:101360007A08D7007908D6007808D5007708D40025
:10137000D20B3729080080308318DA06DF01E0013C
:101380005608DE005A08DE0655080319AB2ADD00B0
:10139000F70059080319B42ADD020319502A031C67
:1013A0000E2A5A08E300E3175B08E2005C08E1003C
:1013B000E0010310E30CE20CE10CE00CDD0BD8299A
:1013C000DE1FE5295F14C82A5F105D105F165830D4
:1013D00084008313DD2A5F12DE1BF8295D1C032ABB
:1013E000E30CE20CE10CE00CF70A0319C32A032A10
:1013F000E31B062A0310E00DE10DE20DE30DF703F8
:101400000319C32AF8295F17702A5F135608DE00F4
:10141000DE1F0C2AE317BC2AE313BC2A5908DD009F
:10142000F7005508DD025608E300E3175708E2000D
:101430005808E100E0010310E30CE20CE10CE00CC1
:10144000DD0B1A2ADE1F272ADF14C82ADF105D10E1
:10145000DF165C3084008313DD2ADF12DE1B3A2A9C
:101460005D1C452AE30CE20CE10CE00CF70A0319C1
:10147000C32A452AE31B482A0310E00DE10DE20DC3
:10148000E30DF7030319C32A3A2ADF17702ADF1383
:101490005A08DE00DE1F4E2AE317BC2AE313BC2ADB
:1014A0005A08E300E3175B08E2005C08E100DE1F76
:1014B0005D2AE3135F15C82A5F11E0015D10583003
:1014C00084008313DD2ADE1B862A5608DE005D1C9D
:1014D000702AE30CE20CE10CE00CF70A0319C32AB2
:1014E000E01F812AE10A031D812AE20A031D812AE5
:1014F000E30A031D812AE30CE20CE10CF70A03194D
:10150000C32A5F1B052ADF1B472AA52A8030E30672
:10151000E31F8E2AC82A5A08DE009B2A5608DE00DE
:10152000E308031D9B2AE208031D9B2AE108031D13
:101530009B2AF701BC2AE31BA52A0310E00DE10D4D
:10154000E20DE30DF70B9B2AC32ADE1FA92AE3173E
:10155000BC2AE313BC2A5908F7005A08E3005B08C9
:10156000E2005C08E100BC2A5508F7005608E300D9
:101570005708E2005808E1006308F8006208F90023
:101580006108FA00FB2AF701F801F901FA01FB2AC8
:10159000E001E109E209E309E009E00A031DD62AB6
:1015A000E10A031DD62AE20A0319E30A5F18E429B7
:1015B000DF18262A5F195C2A8B2A0008E107031C22
:1015C000E72AE20A031DE72AE30A03195D148403EC
:1015D0000008E207031CEF2AE30A03195D148403E1
:1015E0000008801F803AE30703185D145F1AEB2997
:1015F000DF1A2D2A632A08008E30F7005108F702FF
:101600005208F9005308F800F917F7080319132BCB
:101610000310F908031D0F2BF8080319132BF90CFD
:10162000F80CF70B082BD21F1A2BF809F909F80A46
:101630000319F90A080001302907CF004F08803C40
:101640000318352BA7018B1BA7178B13FB01143035
:10165000FC008030FD002C30FE008A113A248A15EF
:10166000A71B8B17A9010130CF002D08DB002C0828
:10167000DA002B08D9002A08D8009A30DF00993008
:10168000DE00DD007E30DC008A11ED268A157A0846
:10169000D3007908D2007808D1007708D0008310F1
:1016A0007A08D8007908D7007808D6007708D500DE
:1016B000DC01DB015030DA008430D900BB217A082C
:1016C000D4007908D3007808D2007708D100FC2232
:1016D0007808D0004E08DB004D08DA004C08D9002D
:1016E0004B08D8009A30DF009930DE00DD007E30F4
:1016F000DC008A11ED268A157A08D4007908D30017
:101700007808D2007708D10083107A08D8007908C9
:10171000D7007808D6007708D500DC01DB0150300F
:10172000DA008430D900BB217A08D4007908D300CC
:101730007808D2007708D100FC227808D100290867
:10174000D2005008D3004F08D4007808D5000130EB
:10175000D6008A1100268A154E08AD004D08AC004F
:101760004C08AB004B08AA004F08A9008A150A12C2
:101770002F2D80080319CF2BCC010408CB004C106F
:10178000831B4C1400080C1EC32B99004B088400CB
:1017900083134C188317840A0319850AB92B8A15F9
:1017A0000A12862D4B308400831300080319E52BA1
:1017B0000230F800F701F70BDB2BF80BDA2B973030
:1017C000F700F70BE12B800BD82B8A150A12912D0D
:1017D00003081F3983000C3083169900A23098004B
:1017E000903083129800FF30A800A901AD01AC0130
:1017F000AB01AA012E10AF01B101B00183161F1475
:101800009F141F159F1183131F109F141F159F15E1
:1018100083121F179F1783169F1783121F140130FF
:10182000CB008A11D52C8A158B15C0308B04F8019A
:101830000D30F7003E308400831378088A1130227F
:101840008A158000F80A840AF70B1D2CA7018B1B50
:10185000A7178B13FD010A30FE008316A1013E304D
:10186000A0000130A200A3008A11831244238A152C
:10187000A71B8B17D2010830D3008030D40008306A
:10188000D5000130D6008A1100268A15D201133006
:10189000D3008030D4001330D5000130D6008A1137
:1018A00000268A15831606178C1683122E1C912D7E
:1018B0000030F8001F08C73978049F000630F70091
:1018C000F70B602C00001F151F19642C83161E08CF
:1018D0008312B2001E08B3003308CC003208CB00DC
:1018E0008A11CE2E8A15DB01DA012030D900813031
:1018F000D8007A08DF007908DE007808DD00770874
:10190000DC008A11ED268A157A08CE007908CD0010
:101910007808CC007708CB007A08DB007908DA0079
:101920007808D9007708D800DF01DE014830DD00F3
:101930008530DC008A11ED268A157A08CE007908F8
:10194000CD007808CC007708CB007A08D20079085F
:10195000D1007808D0007708CF00D601D501D40196
:101960008930D30000287A08B7007908B6007808D3
:10197000B5007708B4003708CE003608CD0035082A
:10198000CC003408CB002D08D2002C08D1002B0845
:10199000D0002A08CF008A1162278A150319112D59
:1019A000B801B1013830B000033084003708CE00F0
:1019B0003608CD003508CC003408CB000230CF000B
:1019C000CD20B030D8008A11F0278A154330D800D6
:1019D0008A11F0278A15A7018B1BA7178B13483094
:1019E000FB000A30FC003630FD000730FE008A1193
:1019F0003A248A15A71B8B17A7018B1BA7178B13DC
:101A00004830FD000A30FE008316A1013830A000E6
:101A10000130A200A3008A11831244238A15A71B58
:101A20008B173708CE003608CD003508CC003408B7
:101A3000CB00D201D1014830D0008430CF008A11D0
:101A400062278A150318262D031D4D2D3708CE0059
:101A50003608CD003508CC003408CB001B2B5430A1
:101A6000BE003E30BF003530C0003030C100C20182
:101A7000A7018B1BA7178B130330FD00FE018316F4
:101A8000A1013E30A0000130A200A3018A118312FF
:101A900044238A15A71B8B17722D5430BE003E308D
:101AA000BF003530C0003030C100C201A7018B1B20
:101AB000A7178B130330FD00FE018316A1013E30F2
:101AC000A0000130A200A3008A11831244238A15CA
:101AD000A71B8B173708AD003608AC003508AB00E4
:101AE0003408AA00B1013830B00003308400370850
:101AF000CE003608CD003508CC003408CB000230CB
:101B0000CF00CD20383084008313B92B0D300C1E4C
:101B1000872D99000A300C1E8B2D9900FA30CB00CE
:061B2000D22B522C6300E1
:02400E00713F00
:00000001FF
;PIC16F877
;CRC=54EF  CREATED="03-nov.-20 11:45"
