:100000000C308A00AF2C0000FF00030E8301A1001A
:100010000A08A0008A010408A2007708A300780853
:10002000A4007908A5007A08A600831383128B1D0B
:100030001B280B182C28220884002308F70024080A
:10004000F8002508F9002608FA0020088A00210E89
:100050008300FF0E7F0E09008A110A12502C0A102D
:100060008A100A11363E03188A0A820000340034CE
:10007000003400340034003400345F340034003481
:100080000034033400340334003414343E34143464
:100090003E34143424342A347F342A341234433422
:1000A00033340834663461343634493455342234B8
:1000B00050340034053403340034003400341C342C
:1000C0002234413400340034413422341C340034AE
:1000D000143408343E3408341434083408343E34BC
:1000E00008340834003450343034003400340834D8
:1000F0000834083408340834003460346034003480
:100100000034203410340834043402343E34513482
:10011000493445343E340034043402347F340034EE
:100120004234613451344934463422344134493400
:10013000493436341834143412347F3410342734AC
:1001400045344534453439343E34493449344934EE
:1001500032340134013471340934073436344934CB
:1001600049344934363426344934493449343E34E8
:1001700000343634363400340034003456343634E7
:10018000003400340834143422344134003414343C
:1001900014341434143414340034413422341434F8
:1001A0000834023401345134093406343E344134C5
:1001B000593455345E347E340934093409347E347C
:1001C0007F3449344934493436343E34413441343F
:1001D000413422347F344134413441343E347F341D
:1001E00049344934493441347F34093409340934B9
:1001F00001343E344134413449343A347F34083494
:10020000083408347F34003441347F3441340034BE
:1002100030344034403440343F347F340834143474
:10022000223441347F3440344034403440347F34CD
:1002300002340C3402347F347F3402340434083402
:100240007F343E344134413441343E347F340934C8
:100250000934093406341E342134213421345E3407
:100260007F3409340934093476340A148A100A11A7
:100270003C3E03188A0A8200263449344934493402
:100280003234013401347F34013401343F3440349A
:10029000403440343F341F342034403420341F3441
:1002A0007F342034103420347F34413422341C34E1
:1002B000223441340734083470340834073461344C
:1002C000513449344534433400347F3441340034AC
:1002D0000034023404340834103420340034003440
:1002E00041347F34003404340234013402340434A1
:1002F000403440344034403440340034013402341B
:1003000004340034203454345434543478347F3436
:100310004434443444343834383444344434443435
:10032000443438344434443444347F3438345434DA
:10033000543454341834043404347E3405340534CD
:1003400008345434543454343C347F340834043442
:1003500004347834003444347D3440340034203460
:10036000403444343D3400347F3410342834443431
:100370000034003441347F34403400347C3404345D
:100380007834043478347C340834043404347834D5
:10039000383444344434443438347C3414341434DD
:1003A0001434083408341434143414347C340034D1
:1003B0007C340834043404344834543454345434CD
:1003C0002034043404343F34443444343C34403422
:1003D000403420347C341C342034403420341C34E9
:1003E0003C344034303440343C34443428341034C9
:1003F000283444340C345034503450343C34443475
:10040000643454344C344434003408343634413485
:100410004134003400347F340034003441344134FA
:1004200036340834003402340134023404340234E3
:100430000A108A140A118207433461347034743408
:100440007534723461346E3464346F3400340A109D
:100450008A140A118207543465346D34703465345B
:100460007234613474347534723461343A34003423
:10047000F701F80183163E0803103F18F707F70C41
:10048000F80CBF18F707F70CF80C3F19F707F70C33
:10049000F80CBF19F707F70CF80C3F1AF707F70C21
:1004A000F80CBF1AF707F70CF80C3F1BF707F70C0F
:1004B000F80CBF1BF707F70CF80C8312080000308C
:1004C000831688000612831206128316C5080319C4
:1004D0006E2A861083128614712A831606108312E0
:1004E0000614722A83168801460883128800782A27
:1004F00083168612831286167D2A8316861283122D
:100500008612831606108312061083168610831235
:1005100086100800FF308316880006128312061624
:100520008316C4080319992A8610831286149C2AFC
:1005300083160610831206149D2A831686128312D0
:100540008616A22AFF3083168800831208088316B5
:10055000C5008612831286128316061083120610B7
:10056000831686108312861083164508F8008312BE
:100570000800831642103E083F3C0318C22A403050
:10058000BE0242140611831206118316BE133E17D3
:10059000003042180130C300C5003E08C600831277
:1005A0005F220030831642180130C3003F0CF70071
:1005B000F70CF70C1F30F7057708BF39B838C400BF
:1005C0004308C5004408C60083125F228316061143
:1005D000831206150030831642180130C300C40090
:1005E00083128A220030831642180130C300C400EF
:1005F00083128A2278088316C100400B0F2B3F0814
:100600000739C3000130F7004308F80003190C2B29
:100610000310F70DF80B082B7708C1041F2B3F08B8
:100620000739C3000130F7004308F80003191C2BF9
:100630000310F70DF80B182B7708FF3AC1050611C8
:10064000831206110030831642180130C300C50022
:100650003E08C60083125F22831606118312061518
:100660000030831642180130C300C5004108C6009F
:1006700083125F22080083163008FA002F088400D6
:1006800083137A18831780080319312C3008FA0075
:100690002F08840083137A1883170008523C031C28
:1006A000762B3008FA002F08840083137A188317FA
:1006B00020300002BD00BE000530BF00831238228A
:1006C00078088316BC00F8000530F700B7308400C6
:1006D0008313780883122F208000F80A840AF70B0E
:1006E000722B742B8316692BAC2B83163008FA00FF
:1006F0002F08840083137A18831700087E3C031C9C
:10070000A62B3008FA002F08840083137A18831769
:1007100053300002BD00BE000530BF0083123822F6
:1007200078088316BC00F8000530F700B730840065
:1007300083137808831235218000F80A840AF70BA6
:10074000A22BA42B8316992BAC2B8316B701B801CF
:10075000B901BA01BB01831283163008FA002F08D1
:10076000840083137A18831700080A3A8312031946
:10077000BD2B073A0319CA2BCE2B07308316BE00B8
:100780003108BF0083123822013078078316AE0784
:100790002C2C83128316AD012C2C8312053083166A
:1007A000BE003108BF0083123822780883162D0757
:1007B0007F3C0318E62BAD010730BE003108BF00B7
:1007C00083123822013078078316AE07B30133084D
:1007D000043C031C2C2CB4013408063C031C282CBC
:1007E000B7303307840083130008BC00F7003408D7
:1007F000F8000319FF2B0310F70CF80BFB2B771CE9
:10080000262CB501310835020318262CB601310813
:1008100036020318242C36082D07BC003408BE000D
:100820003108BF0083123822780883162E07350757
:10083000BD003C08BE003D08BF003208C000831266
:10084000B9228316B60A072CB50A022CB40AEC2B7F
:10085000B30A3108AD07E72BAF0A0319B00AAD0A96
:100860003C2B8312080083162B08AF002D082B07A2
:100870002F0203184E2C2C08B0002E082C07300233
:1008800003184C2C2F08BE003008BF00C001831293
:10089000B9228316B00A3D2CAF0A362C8312080009
:1008A000831606178312061F972C0130AF062F1CE4
:1008B000732CF8010B30F700A03084008313780804
:1008C00018228000F80A840AF70B5F2C2230831666
:1008D000AD00AE01B001A030AF000130B100B200F8
:1008E00083123B23972CF8010B30F700A0308400D3
:1008F0008313780818228000F80A840AF70B792CF1
:1009000022308316AD00AE01B001A030AF0001303F
:10091000B100B20183123B238316AB011430AC004B
:100920008030AD002C30AE0083123324A9010B10AF
:100930008A110A121B2828102808831687008312A0
:1009400007148316861283128612831606108312EA
:1009500006108316861083128610831606118312E2
:100960000611A7018B1BA7178B138316C501C03077
:10097000C60083125F22A71B8B17A7018B1BA7172B
:100980008B1301308316C500C030C60083125F226E
:10099000A71B8B17A7018B1BA7178B138316C501EA
:1009A0004030C60083125F22A71B8B17A7018B1B49
:1009B000A7178B1301308316C5004030C600831281
:1009C0005F22A71B8B17A7018B1BA7178B138316FF
:1009D000C501B830C60083125F22A71B8B17A70181
:1009E0008B1BA7178B1301308316C500B830C600C8
:1009F00083125F22A71B8B174F0B182DA7018B1B90
:100A0000A7178B138316C5013F30C60083125F22E0
:100A1000A71B8B17A7018B1BA7178B1301308316FE
:100A2000C5003F30C60083125F22A71B8B17312DF4
:100A3000A7018B1BA7178B138316C5013E30C60079
:100A400083125F22A71B8B17A7018B1BA7178B1382
:100A500001308316C5003E30C60083125F22A71BFB
:100A60008B17D001D1015108073C031CC32D8316FD
:100A7000061183120611A7018B1BA7178B13831670
:100A8000C5014030C60083125F22A71B8B17A70148
:100A90008B1BA7178B1301308316C5004030C6008F
:100AA00083125F22A71B8B175108B838D300A70108
:100AB0008B1BA7178B138316C5018312530883164C
:100AC000C60083125F22A71B8B175108B838D300CA
:100AD000A7018B1BA7178B1301308316C500831248
:100AE00053088316C60083125F22A71B8B17831639
:100AF000061183120615D20152083F3C031CC12D7A
:100B0000A7018B1BA7178B13FF308316BE00831220
:100B100050088316BF0083123822A71B8B17780852
:100B2000D300A7018B1BA7178B138316C501831254
:100B300078088316C60083125F22A71B8B17A701B4
:100B40008B1BA7178B13FF308316BE008312500830
:100B50008316BF0083123822A71B8B177808D30097
:100B6000A7018B1BA7178B1301308316C5008312B7
:100B700078088316C60083125F22A71B8B17D20A40
:100B80007C2DD10A332D8A150A12DB2C0130DF00AF
:100B9000E000E50156085802E6006608E61FD22D7F
:100BA0006608003CFA01DD007A08DE0057085902A9
:100BB000E6006608E61FDE2D6608003CFA01DB0051
:100BC0007A08DC00560858020318E82DFF30DF00D1
:100BD000570859020318EE2DFF30E0005C085E0252
:100BE000031C462E031DF82D5B085D02031C462ED8
:100BF0000310DB0DDC0D5D085B02F7005C08FA00FA
:100C00005E08031C5E0FFA027708E1007A08E20032
:100C10005D086102E3006208E4005E08031C5E0FE9
:100C2000E402DE08031D182E65085D02031C452E34
:100C3000A7018B1BA7178B1356088316BE008312C0
:100C400057088316BF0083125A088316C000831208
:100C5000B922A71B8B17E21F372E5B08E1075C0840
:100C600003185C0FE2075F085607D600432E63089F
:100C7000E10764080318640FE2075F085607D6000F
:100C800060085707D700E50A112E932E0310DD0DDB
:100C9000DE0D5B085D02F7005E08FA005C08031CCD
:100CA0005C0FFA027708E1007A08E2005B08610253
:100CB000E3006208E4005C08031C5C0FE402DC084B
:100CC000031D662E65085B02031C932EA7018B1B78
:100CD000A7178B1356088316BE0083125708831676
:100CE000BF0083125A088316C0008312B922A71BC3
:100CF0008B17E21F852E5D08E1075E0803185E0F63
:100D0000E20760085707D700912E6308E1076408DF
:100D10000318640FE2075F085607D60060085707FC
:100D2000D700E50A5F2E08004230D1005430D200CF
:100D3000D301A7018B1BA7178B136E308316AD0051
:100D4000AE01B0015130AF000130B1008312500844
:100D50008316B20083123B23A71B8B170800513068
:100D60008400831300080319C22E0230F800F70133
:100D7000F70BB82EF80BB72E9730F700F70BBE2EF7
:100D8000800BB52E08008E30F7005A08F80059087D
:100D9000F900FA01F808031DD72E7908F800F901C7
:100DA0000830F702F808031DD72EF701DF2E0310D5
:100DB000F81BDE2EF90DF80DF703D72EF8130800F7
:100DC0005C080319502FE40060080319502FE40752
:100DD0000318F12E7F30E402031C502F0319502F0B
:100DE000F52E8130E4070318502F6408F700F8014E
:100DF000F901FA015D08E800E8175E08E7005F08FE
:100E0000E6001830E400E501661C1E2F6308FA07AF
:100E1000031C102FF90A031D102FF80A0319E517F8
:100E20006208F907031C172FF80A0319E517610870
:100E3000DE00DE175E08F8070318E517E50DF80C6D
:100E4000F90CFA0CE80CE70CE60C0310E40B032F8A
:100E50000130F7070318502FF81B352FE80DFA0D56
:100E6000F90DF80DF7030319502FE81F462FFA0A62
:100E7000031D462FF90A031D462FF80A031D462FAE
:100E8000F80CF90CFA0CF70A0319502F5D08E5006D
:100E90006108E506E51F4E2FF817542FF813542F5D
:100EA000F701F801F901FA0108005008D7005408C9
:100EB000D706D71F602F03110310D01B0314932FE5
:100EC0005008D7005308D8004F08D80203196E2FD6
:100ED000D71F932F0308013A8300932F5408D8009B
:100EE0005008D80203197A2FD71F932F0308013A0D
:100EF0008300932F5508D8005108D8020319862F74
:100F0000D71F932F0308013A8300932F5608D80068
:100F10005208D8020319922FD71F932F0308013AC2
:100F20008300932F031008005C08B63CDC00FA0134
:100F30005D08E000DD170310DD0CDE0CDF0CFA0CA1
:100F4000F90CF80CF70CDC0B9B2FE01FB22FF70904
:100F5000F809F909FA09F70A0319F80A0319F90A4D
:100F60000319FA0A08003008840083133118831724
:100F70005C088000840A8001B00A0319B10A0800E5
:100F80008E30F7005508F7025608F9005708F800A8
:100F9000F917F7080319D72F0310F908031DD32FEA
:100FA000F8080319D72FF90CF80CF70BCC2FD61F24
:0E0FB000DE2FF809F909F80A0319F90A0800FA
:1010000053080319C628DF0057080319C628DF0252
:1010100003180B2810287F30DF070318C62816286E
:101020008130DF02031CC6280319C6285F08F700B9
:10103000F801F901FA01DE015408DD00DD17550859
:10104000DC005608DB001930DF005A08DB02031809
:1010500039280130DC0203183928DD020318392849
:10106000DE0203183928DE0ADD0ADC0A5A08DB072B
:101070006B285908DC02031854280130DD020318DC
:101080005428DE0203185428DE0ADD0A5908DC075A
:101090005A08DB07031C6B28DC0A031D6B28DD0ADA
:1010A000031D6B28DE0A6B2858088038DD02031800
:1010B0006A280130DE0203186A28DE0A58088038E0
:1010C000DD075908DC07031C4828DD0A031D4828F2
:1010D000DE0A48287A14DF0B6E2879280310DB0D0E
:1010E000DC0DDD0DDE0D0310FA0DF90DF80DE00D30
:1010F0002528601C81280310F80CF90CFA0CE00C70
:101100008428F7030319C628E01BAD280310DB0D64
:10111000DC0DDD0DDE0D5A08DB02031899280130C5
:10112000DC0203189928DD0203189928DE02031C4B
:10113000BC285908DC020318A4280130DD0203187A
:10114000A428DE02031CBC2858088038DD020318DE
:10115000AD280130DE02031CBC28FA0A031DBC289E
:10116000F90A031DBC28F80A031DBC28F70A031955
:10117000C628F80CF90CFA0C5408DF005808DF06F2
:10118000DF1FC428F817CA28F813CA28F701F80186
:10119000F901FA018A150A12A42D8318D2286430A5
:1011A00084008313F701F801F901FA01E401E50174
:1011B000E601E70163086204610460040319102971
:1011C0002030E8000310DC0DDD0DDE0DDF0DE40D39
:1011D000E50DE60DE70D63086702031DF9286208B7
:1011E0006602031DF92861086502031DF9286008DD
:1011F0006402031C0A296008E4026108031C610FF1
:10120000E5026208031C620FE6026308031C630F19
:10121000E7020314F70DF80DF90DFA0DE80BE228BB
:1012200064088000840A65088000840A66088000DB
:10123000840A6708800008000408D4005308D60018
:1012400003193D295208DF005108DE005008DD0077
:101250004F08DC00E301E2012030E1008230E000D1
:101260008A11E0268A157A08D2007908D100780818
:10127000D0007708CF00D60B22295208DF00510892
:10128000DE005008DD004F08DC008A1194278A1523
:101290007A08D2007908D1007808D0007708CF000A
:1012A000D21F5F29D403D416CF09D009D109D2099E
:1012B000CF0A0319D00A0319D10A0319D20A3B3005
:1012C000DB009A30DA00CA30D900D8010A30D600E3
:1012D00053080319D40A83144F308400831352082F
:1012E000DF005108DE005008DD004F08DC005B081D
:1012F000E3005A08E2005908E1005808E000CD2058
:101300007808F708031D9729530A560203199729ED
:101310005408031999290F39560203199129031802
:10132000D129D41BD129541B99292030CB29203015
:10133000D405D41EA929D4125308031DD403770859
:10134000D4002D30DC008A11B3278A155408F70029
:10135000D40153085602031DB9297708D4002E3052
:10136000DC008A11B3278A155408F7002030D40511
:1013700000303030D41ECB29D4125308031DD403BF
:101380007708D4002D30DC008A11B3278A15540861
:10139000F700D4013030F7077708DC008A11B32753
:1013A0008A1583105B08DF005A08DE005908DD004B
:1013B0005808DC00E301E201E1010A30E000CD2041
:1013C0007A08DB007908DA007808D9007708D800B5
:1013D000D60B6B298A150A12D12D0408D4005308A4
:1013E000D60003190E2A5208DF005108DE0050080B
:1013F000DD004F08DC00E301E2012030E100823033
:10140000E0008A11E0268A157A08D2007908D10016
:101410007808D0007708CF00D60BF3295208DF00F8
:101420005108DE005008DD004F08DC008A119427C7
:101430008A157A08D2007908D1007808D000770898
:10144000CF00D21F302AD403D416CF09D009D10936
:10145000D209CF0A0319D00A0319D10A0319D20AF3
:101460003B30DB009A30DA00CA30D900D8010A30AC
:10147000D60053080319D40A83144F308400831311
:101480005208DF005108DE005008DD004F08DC0084
:101490005B08E3005A08E2005908E1005808E00040
:1014A000CD207808F708031D682A530A560203194D
:1014B000682A540803196A2A0F3956020319622A46
:1014C00003189E2AD41B9E2A541B6A2A2030992A6C
:1014D0002030D405D41E792AD4125308031DD40316
:1014E0007708D4002D300C1E732A99005408F70099
:1014F000D40153085602031D882A7708D4002E30E1
:101500000C1E802A99005408F7002030D4050030C2
:101510003030D41E992AD4125308031DD4037708FF
:10152000D4002D300C1E922A99005408F700D401E3
:101530003030F70777080C1E9B2A990083105B0850
:10154000DF005A08DE005908DD005808DC00E3011E
:10155000E201E1010A30E000CD207A08DB007908E1
:10156000DA007808D9007708D800D60B3C2A8A150B
:101570000A12102E80308318DE06E301E4015A08B7
:10158000E2005E08E20659080319AA2BE100F70001
:101590005D080319B32BE10203194F2B031C0D2B1C
:1015A0005E08E700E7175F08E6006008E500E40171
:1015B0000310E70CE60CE50CE40CE10BD72AE21F64
:1015C000E42A6314C72B6310611063165C30840037
:1015D0008313DC2B6312E21BF72A611C022BE70C3E
:1015E000E60CE50CE40CF70A0319C22B022BE71BEF
:1015F000052B0310E40DE50DE60DE70DF7030319C8
:10160000C22BF72A63176F2B63135A08E200E21FFD
:101610000B2BE717BB2BE713BB2B5D08E100F70093
:101620005908E1025A08E700E7175B08E6005C0882
:10163000E500E4010310E70CE60CE50CE40CE10B1B
:10164000192BE21F262BE314C72BE3106110E316BE
:10165000603084008313DC2BE312E21B392B611C06
:10166000442BE70CE60CE50CE40CF70A0319C22B3B
:10167000442BE71B472B0310E40DE50DE60DE70DAA
:10168000F7030319C22B392BE3176F2BE3135E0803
:10169000E200E21F4D2BE717BB2BE713BB2B5E08C5
:1016A000E700E7175F08E6006008E500E21F5C2B33
:1016B000E7136315C72B6311E40161105C308400EC
:1016C0008313DC2BE21B852B5A08E200611C6F2B75
:1016D000E70CE60CE50CE40CF70A0319C22BE41F37
:1016E000802BE50A031D802BE60A031D802BE70AE9
:1016F000031D802BE70CE60CE50CF70A0319C22B3F
:10170000631B042BE31B462BA42B8030E706E71F4B
:101710008D2BC72B5E08E2009A2B5A08E200E708DF
:10172000031D9A2BE608031D9A2BE508031D9A2B2F
:10173000F701BB2BE71BA42B0310E40DE50DE60D11
:10174000E70DF70B9A2BC22BE21FA82BE717BB2B39
:10175000E713BB2B5D08F7005E08E7005F08E600B3
:101760006008E500BB2B5908F7005A08E7005B0842
:10177000E6005C08E5006708F8006608F9006508FF
:10178000FA00FA2BF701F801F901FA01FA2BE4014A
:10179000E509E609E709E409E40A031DD52BE50A92
:1017A000031DD52BE60A0319E70A6318E32AE31899
:1017B000252B63195B2B8A2B0008E507031CE62BFE
:1017C000E60A031DE62BE70A0319611484030008E7
:1017D000E607031CEE2BE70A0319611484030008D3
:1017E000801F803AE70703186114631AEA2AE31A94
:1017F0002C2B622B080001302907D3005308803CB2
:101800000318172CA7018B1BA7178B138316AB018B
:101810001430AC008030AD002C30AE008A11831241
:1018200033248A15A71B8B17A9010130D3002D087B
:10183000DF002C08DE002B08DD002A08DC009A30CF
:10184000E3009930E200E1007E30E0008A11E026FA
:101850008A157A08D7007908D6007808D500770865
:10186000D400DA012E08D9008A11C3268A15831004
:101870005708DC005608DB005508DA005408D90088
:101880007A08E0007908DF007808DE007708DD00DC
:10189000BA227A08D8007908D7007808D6007708E5
:1018A000D5008A11C0278A157808D4005208DF00B5
:1018B0005108DE005008DD004F08DC009A30E300DC
:1018C0009930E200E1007E30E0008A11E0268A15BE
:1018D0007A08D8007908D7007808D6007708D500AC
:1018E000DA012E08D9008A11C3268A1583105808F8
:1018F000DC005708DB005608DA005508D9007A08E2
:10190000E0007908DF007808DE007708DD00BA2201
:101910007A08D8007908D7007808D6007708D5006B
:101920008A11C0278A157808D5002908D6005408DE
:10193000D7005308D8005508D9000130DA008A11C1
:10194000C6258A155208AD005108AC005008AB00FE
:101950004F08AA005308A9008A150A12322E03085C
:101960001F3983000C3083169900A2309800903004
:1019700083129800FF30A800A901AD01AC01AB01B2
:10198000AA013430AE002F10B101B00183161F142C
:101990009F141F159F1183131F109F141F159F1550
:1019A00083121F179F1783169F1783121F1401306E
:1019B000CF008A119B2C8A158B15C0308B04F8013F
:1019C0000D30F70042308400831378088A112722F3
:1019D0008A158000F80A840AF70BE52CA7018B1BF7
:1019E000A7178B138316AD010A30AE00B001423049
:1019F000AF000130B100B2008A1183123B238A1577
:101A0000A71B8B17D6010830D7008030D8000830CC
:101A1000D9000130DA008A11C6258A15D6011330A3
:101A2000D7008030D8001330D9000130DA008A1195
:101A3000C6258A158316061783128C1E472D8C1E09
:101A40001F2D1A08CF004F08613C031D362D0130B1
:101A5000D0008A1194268A150230D000FA30D100C5
:101A60008A11AF268A15D00B2E2D472D4F08623CC8
:101A7000031D472DD0018A1194268A150230D0000B
:101A8000FA30D1008A11AF268A15D00B402D2F1CB9
:101A90007A2E0030F8001F08C73978049F000630FE
:101AA000F700F70B512D00001F151F19552D831638
:101AB0001E088312B2001E08B3003308DA00320891
:101AC000D9008A11C3268A15DF01DE012030DD002E
:101AD0008130DC007A08E3007908E2007808E10050
:101AE0007708E0008A11E0268A157A08D200790882
:101AF000D1007808D0007708CF007A08DF00790895
:101B0000DE007808DD007708DC00E301E201483000
:101B1000E1008530E0008A11E0268A157A08D200BB
:101B20007908D1007808D0007708CF007A08D6006D
:101B30007908D5007808D4007708D300DA01D901F4
:101B4000D8018930D70000287A08B7007908B60094
:101B50007808B5007708B4003708D2003608D100FD
:101B60003508D0003408CF002D08D6002C08D50049
:101B70002B08D4002A08D3008A1155278A15031987
:101B8000142EB1013830B000033084003708D20081
:101B90003608D1003508D0003408CF000230D30019
:101BA0001C29B030DC008A11B3278A154330DC00D1
:101BB0008A11B3278A15A7018B1BA7178B134830EF
:101BC0008316AB000A30AC003630AD000730AE00F3
:101BD0008A11831233248A15A71B8B17A7018B1B2D
:101BE000A7178B1348308316AD000A30AE00B00142
:101BF0003830AF000130B100B2008A1183123B23AC
:101C00008A15A71B8B17893084003708D200360845
:101C1000D1003508D0003408CF000230D300ED29C0
:101C20000D300C1E112E99003708D2003608D10055
:101C30003508D0003408CF00D601D5014830D40093
:101C40008430D3008A1155278A150318292E031DC5
:101C5000502E3708D2003608D1003508D00034089D
:101C6000CF00FB2B5430C2003E30C3003530C400DF
:101C70003030C500C601A7018B1BA7178B1303309B
:101C80008316AD00AE01B0014230AF000130B100AB
:101C9000B2018A1183123B238A15A71B8B17752E5D
:101CA0005430C2003E30C3003530C4003030C5006F
:101CB000C601A7018B1BA7178B1303308316AD003A
:101CC000AE01B0014230AF000130B100B2008A1164
:101CD00083123B238A15A71B8B173708AD003608E4
:101CE000AC003508AB003408AA006430D1008A117A
:081CF000AF268A151A2D6300CE
:02400E00713F00
:00000001FF
;PIC16F877
;CRC=7788  CREATED="30-oct.-20 18:13"
