:100000000B308A00D42B0000FF00030E8301A100F7
:100010000A08A0008A010408A2007708A300780853
:10002000A4007908A5007A08A600831383128B1D0B
:100030001B280B182C28220884002308F70024080A
:10004000F8002508F9002608FA0020088A00210E89
:100050008300FF0E7F0E09008A110A12112B0A106D
:100060008A100A11363E03188A0A820000340034CE
:10007000003400340034003400345F340034003481
:100080000034033400340334003414343E34143464
:100090003E34143424342A347F342A341234433422
:1000A00033340834663461343634493455342234B8
:1000B00050340034053403340034003400341C342C
:1000C0002234413400340034413422341C340034AE
:1000D000143408343E3408341434083408343E34BC
:1000E00008340834003450343034003400340834D8
:1000F0000834083408340834003460346034003480
:100100000034203410340834043402343E34513482
:10011000493445343E340034043402347F340034EE
:100120004234613451344934463422344134493400
:10013000493436341834143412347F3410342734AC
:1001400045344534453439343E34493449344934EE
:1001500032340134013471340934073436344934CB
:1001600049344934363426344934493449343E34E8
:1001700000343634363400340034003456343634E7
:10018000003400340834143422344134003414343C
:1001900014341434143414340034413422341434F8
:1001A0000834023401345134093406343E344134C5
:1001B000593455345E347E340934093409347E347C
:1001C0007F3449344934493436343E34413441343F
:1001D000413422347F344134413441343E347F341D
:1001E00049344934493441347F34093409340934B9
:1001F00001343E344134413449343A347F34083494
:10020000083408347F34003441347F3441340034BE
:1002100030344034403440343F347F340834143474
:10022000223441347F3440344034403440347F34CD
:1002300002340C3402347F347F3402340434083402
:100240007F343E344134413441343E347F340934C8
:100250000934093406341E342134213421345E3407
:100260007F3409340934093476340A148A100A11A7
:100270003C3E03188A0A8200263449344934493402
:100280003234013401347F34013401343F3440349A
:10029000403440343F341F342034403420341F3441
:1002A0007F342034103420347F34413422341C34E1
:1002B000223441340734083470340834073461344C
:1002C000513449344534433400347F3441340034AC
:1002D0000034023404340834103420340034003440
:1002E00041347F34003404340234013402340434A1
:1002F000403440344034403440340034013402341B
:1003000004340034203454345434543478347F3436
:100310004434443444343834383444344434443435
:10032000443438344434443444347F3438345434DA
:10033000543454341834043404347E3405340534CD
:1003400008345434543454343C347F340834043442
:1003500004347834003444347D3440340034203460
:10036000403444343D3400347F3410342834443431
:100370000034003441347F34403400347C3404345D
:100380007834043478347C340834043404347834D5
:10039000383444344434443438347C3414341434DD
:1003A0001434083408341434143414347C340034D1
:1003B0007C340834043404344834543454345434CD
:1003C0002034043404343F34443444343C34403422
:1003D000403420347C341C342034403420341C34E9
:1003E0003C344034303440343C34443428341034C9
:1003F000283444340C345034503450343C34443475
:10040000643454344C344434003408343634413485
:100410004134003400347F340034003441344134FA
:1004200036340834003402340134023404340234E3
:100430000030831688000612831206128316BD0848
:100440000319272A8610831286142A2A8316061077
:10045000831206142B2A831688013E088312880013
:10046000312A8316861283128616362A831686123E
:1004700083128612831606108312061083168610C6
:10048000831286100800FF3083168800061283123C
:1004900006168316BC080319522A86108312861486
:1004A000552A8316061083120614562A83168612BE
:1004B000831286165B2AFF30831688008312080891
:1004C0008316BD00861283128612831606108312CD
:1004D0000610831686108312861083163D08F800D6
:1004E0008312080083163A1036083F3C03187B2A13
:1004F0004030B6023A140611831206118316B61361
:10050000361700303A180130BB00BD003608BE0077
:1005100083121822003083163A180130BB00370CC2
:10052000F700F70CF70C1F30F7057708BF39B8381C
:10053000BC003B08BD003C08BE0083121822831695
:10054000061183120615003083163A180130BB00DD
:10055000BC0083124322003083163A180130BB00DE
:10056000BC008312432278088316B900380BC82ACE
:1005700037080739BB000130F7003B08F8000319C2
:10058000C52A0310F70DF80BC12A7708B904D82A39
:1005900037080739BB000130F7003B08F8000319A2
:1005A000D52A0310F70DF80BD12A7708FF3AB905C1
:1005B000061183120611003083163A180130BB0071
:1005C000BD003608BE00831218228316061183125E
:1005D0000615003083163A180130BB00BD003908FB
:1005E000BE0083121822080083163008B4003208B7
:1005F0003007340203180F2B3108B50033083107D8
:10060000350203180D2B3408B6003508B700B801C1
:10061000831272228316B50AFE2AB40AF72A8312BD
:100620000800831606178312061F212B8316B001BC
:100630001430B1008030B2002C30B3008312F422A9
:10064000AB010B108A110A121B28F701F80183165F
:10065000220803102318F707F70CF80CA318F70764
:10066000F70CF80C2319F707F70CF80CA319F70788
:10067000F70CF80C231AF707F70CF80CA31AF70776
:10068000F70CF80C231BF707F70CF80CA31BF70764
:10069000F70CF80C831208002A102A08831687002A
:1006A000831207148316861283128612831606108D
:1006B0008312061083168610831286108316061185
:1006C00083120611A7018B1BA7178B138316BD017D
:1006D000C030BE0083121822A71B8B17A7018B1BEB
:1006E000A7178B1301308316BD00C030BE008312E4
:1006F0001822A71B8B17A7018B1BA7178B13831619
:10070000BD014030BE0083121822A71B8B17A70122
:100710008B1BA7178B1301308316BD004030BE0022
:1007200083121822A71B8B17A7018B1BA7178B13EC
:100730008316BD01B830BE0083121822A71B8B1789
:10074000A7018B1BA7178B1301308316BD00B83090
:10075000BE0083121822A71B8B17610BC92BA701A0
:100760008B1BA7178B138316BD013F30BE0083126E
:100770001822A71B8B17A7018B1BA7178B13013000
:100780008316BD003F30BE0083121822A71B8B17B3
:10079000E22BA7018B1BA7178B138316BD013E30DD
:1007A000BE0083121822A71B8B17A7018B1BA7174C
:1007B0008B1301308316BD003E30BE008312182219
:1007C000A71B8B17E201E3016308073C031C682C9D
:1007D0008316061183120611A7018B1BA7178B1313
:1007E0008316BD014030BE0083121822A71B8B1751
:1007F000A7018B1BA7178B1301308316BD00403058
:10080000BE0083121822A71B8B176308B838E500B7
:10081000A7018B1BA7178B138316BD0183126508D5
:100820008316BE0083121822A71B8B176308B838E3
:10083000E500A7018B1BA7178B1301308316BD00A2
:10084000831265088316BE0083121822A71B8B171C
:100850008316061183120615E40164083F3C031C4D
:10086000662CFF308316A200831262088316A30051
:10087000831225237808E500A7018B1BA7178B138C
:100880008316BD01831278088316BE0083121822D6
:10089000A71B8B17FF308316A200831262088316F2
:1008A000A300831225237808E500A7018B1BA71757
:1008B0008B1301308316BD00831278088316BE00A7
:1008C00083121822A71B8B17E40A2D2CE30AE42BB2
:1008D0008A150A12322C6908FA006808840083130A
:1008E0007A188317800803196E2D6908FA006808C2
:1008F000840083137A1883170008523C031CA52C2C
:100900006908FA006808840083137A188317203076
:1009100000028316A100A2000530A3008312252344
:1009200078088316A000F8000530F70070308400C6
:100930008313780883122F208000F80A840AF70BAB
:10094000A22CA42C8316992CDA2C6908FA006808CA
:10095000840083137A18831700087E3C031CD52C6F
:100960006908FA006808840083137A1883175330E3
:1009700000028316A100A2000530A30083122523E4
:1009800078088316A000F8000530F7007030840066
:1009900083137808831235218000F80A840AF70B44
:1009A000D22CD42C8316C92CDA2CF001F101F201DF
:1009B000F301F4016908FA006808840083137A18C7
:1009C000831700080A3A0319E92C073A0319F62C91
:1009D000F82C07308316A20083126A088316A3003E
:1009E0008312252301307807E707692DE601692D79
:1009F00005308316A20083126A088316A3008312AF
:100A00002523780866077F3C0318132DE60107307D
:100A10008316A20083126A088316A300831225237B
:100A200001307807E707EC016C08043C031C692DD2
:100A3000ED016D08063C031C652D70306C078400C9
:100A4000831300088316A000F70083126D08F800D6
:100A500003192E2D0310F70CF80B2A2D771C632D8C
:100A6000EE016A086E020318632DEF016A086F0237
:100A70000318612D6F0866078316A00083126D08A6
:100A80008316A20083126A088316A300831225230B
:100A9000780867076E078316A1008312A7018B1BD6
:100AA000A7178B1383162008B6002108B7008312FE
:100AB0006B088316B80083127222A71B8B17EF0AEC
:100AC000362DEE0A312DED0A192DEC0A6A08E607DB
:100AD000142DE80A0319E90AE60A6B2C0800013014
:100AE000F500F6008316A00183126C086E028316CF
:100AF000A1002108A11F7E2D2108003CFA01F3006E
:100B00007A08F40083126D086F028316A100210891
:100B1000A11F8C2D2108003CFA01F1007A08F20097
:100B200083126C086E020318972DFF30F5006D08D4
:100B30006F0203189D2DFF30F60072087402031C2B
:100B4000F92D031DA72D71087302031CF92D031045
:100B5000F10DF20D73087102F7007208FA007408C3
:100B6000031C740FFA027708FB007A08FC00730874
:100B70007B02FD007C08FE007408031C740FFE025B
:100B8000F408031DC92D831620087302031CF72DDA
:100B90008312A7018B1BA7178B136C088316B60053
:100BA00083126D088316B7007008B8008312722292
:100BB000A71B8B17FC1FE62D7108FB077208031893
:100BC000720FFC0775086C07EC00F22D7D08FB071F
:100BD0007E0803187E0FFC0775086C07EC0076088A
:100BE0006D07ED008316A00A8312C02D8316492ECF
:100BF00083120310F30DF40D71087302F7007408EB
:100C0000FA007208031C720FFA027708FB007A08D8
:100C1000FC0071087B02FD007C08FE007208031CCA
:100C2000720FFE02F208031D1B2E831620087102AC
:100C3000031C492E8312A7018B1BA7178B136C086B
:100C40008316B60083126D088316B7007008B800CB
:100C500083127222A71B8B17FC1F382E7308FB0709
:100C600074080318740FFC0776086D07ED00442E16
:100C70007D08FB077E0803187E0FFC0775086C07CC
:100C8000EC0076086D07ED008316A00A8312122E81
:100C900083168312080072080319CA2E8316A00057
:100CA0007B08031D552E8312CA2EA0070318632E3E
:100CB0007F30A00203185E2E8312CA2E031D622EFF
:100CC0008312CA2E692E8130A007031C692E83125D
:100CD000CA2E2008F700F801F901FA017308A400F0
:100CE000A4177408A3007508A2001830A000A10181
:100CF000221C922E7E08FA07031C842EF90A031D7B
:100D0000842EF80A0319A1177D08F907031C8B2EFE
:100D1000F80A0319A1177C08F400F4177408F807FF
:100D20000318A117A10DF80CF90CFA0CA40CA30CD4
:100D3000A20C0310A00B772E0130F707031CA22E84
:100D40008312CA2EF81BAC2EA40DFA0DF90DF80D66
:100D5000F70BAC2E8312CA2EA41FBF2EFA0A031D56
:100D6000BF2EF90A031DBF2EF80A031DBF2EF80C73
:100D7000F90CFA0CF70A031DBF2E8312CA2E730852
:100D8000A1007C08A106A11FC72EF817CF2EF813CB
:100D9000CF2E8312F701F801F901FA0183168312AD
:100DA00008007208B63CF200FA017308F600F31767
:100DB0000310F30CF40CF50CFA0CF90CF80CF70C0E
:100DC000F20BD82EF61FEF2EF709F809F909FA09E8
:100DD000F70A0319F80A0319F90A0319FA0A0800AD
:100DE0008318F52EA03084008313F701F801F90170
:100DF000FA018316A001A101A201A3017E087D04CE
:100E00007C047B040319342F2030A4000310F20D5E
:100E1000F30DF40DF50DA00DA10DA20DA30D7E088F
:100E20002302031D1D2F7D082202031D1D2F7C0898
:100E30002102031D1D2F7B082002031C2E2F7B087F
:100E4000A0027C08031C7C0FA1027D08031C7D0FFF
:100E5000A2027E08031C7E0FA3020314F70DF80DF7
:100E6000F90DFA0DA40B062F20088000840A210832
:100E70008000840A22088000840A230880008312EC
:100E800008002F088400831330188317720880002D
:100E9000840A8001AF0A0319B00A08006208E4005E
:100EA0006108E3006408FA006308840083137A1879
:100EB000831780080319602FE30A0319E40A522FED
:100EC00061086302F7006408FA006208031C620FFD
:100ED000FA027708F80008008E30F7007008F80072
:100EE0006F08F900FA01F808031D802F7908F8004F
:100EF000F9010830F702F808031D802FF701882F49
:100F00000310F81B872FF90DF80DF703802FF81346
:100F100008008E30F7006B08F7026C08F9006D08C6
:100F2000F800F917F7080319A02F0310F908031D9B
:100F30009C2FF8080319A02FF90CF80CF70B952F2C
:100F4000EC1FA72FF809F909F80A0319F90A080094
:100F500063308400831300080319BB2F0230F800AC
:100F6000F701F70BB12FF80BB02F9730F700F70B05
:100F7000B72F800BAE2F08004230E3005430E4005E
:100F8000E5016E30E600E701E9016330E800013079
:0A0F9000EA006208EB006B24080081
:101000000408EA006908EC00031921286808F500C3
:101010006708F4006608F3006508F200FE01FD01B0
:101020002030FC008230FB008A114B268A157A089A
:10103000E8007908E7007808E6007708E500EC0B9F
:1010400006286808F5006708F4006608F3006508DC
:10105000F2008A11D1268A157A08E8007908E7009B
:101060007808E6007708E500E81F4328EA03EA1657
:10107000E509E609E709E809E50A0319E60A03199B
:10108000E70A0319E80A3B30F1009A30F000CA3051
:10109000EF00EE010A30EC0069080319EA0A831434
:1010A0006530840083136808F5006708F40066085B
:1010B000F3006508F2007108FE007008FD006F087B
:1010C000FC006E08FB008A11F0268A157808F708E4
:1010D000031D7D28690A6C0203197D286A0803191B
:1010E0007F280F396C02031977280318B728EA1BE9
:1010F000B7286A1B7F282030B1282030EA05EA1E75
:101100008F28EA126908031DEA037708EA002D30E8
:10111000F2008A1141278A156A08F700EA01690876
:101120006C02031D9F287708EA002E30F2008A1116
:1011300041278A156A08F7002030EA050030303070
:10114000EA1EB128EA126908031DEA037708EA00DB
:101150002D30F2008A1141278A156A08F700EA014A
:101160003030F7077708F2008A1141278A1583107B
:101170007108F5007008F4006F08F3006E08F200C3
:10118000FE01FD01FC010A30FB008A11F0268A15E0
:101190007A08F1007908F0007808EF007708EE008F
:1011A000EC0B4F288A150A12832C80308318F40622
:1011B0008316A201A3017008A1007408A10683127E
:1011C0006F080319CB298316A000F70073080319D1
:1011D000D529A00203196F29031C2B297408A60026
:1011E000A6177508A5007608A400A3010310A60C95
:1011F000A50CA40CA30CA00BF528A11F02292214F6
:10120000EB29221020102216723084008313002A4A
:101210002212A11B1529201C2029A60CA50CA40C08
:10122000A30CF70A0319E6292029A61B232903107A
:10123000A30DA40DA50DA60DF7030319E629152985
:1012400022178F2922137008A100A11F2929A61790
:10125000DF29A613DF297308A000F70083126F08A7
:101260008316A0027008A600A6177108A5007208D0
:10127000A400A3010310A60CA50CA40CA30CA00BA6
:101280003929A11F4629A214EB29A2102010A21669
:10129000763084008313002AA212A11B5929201C36
:1012A0006429A60CA50CA40CA30CF70A0319E629C3
:1012B0006429A61B67290310A30DA40DA50DA60D77
:1012C000F7030319E6295929A2178F29A2137408D5
:1012D000A100A11F6D29A617DF29A613DF29740815
:1012E000A600A6177508A5007608A400A11F7C29F2
:1012F000A6132215EB292211A301201072308400BD
:101300008313002AA11BA5297008A100201C8F2986
:10131000A60CA50CA40CA30CF70A0319E629A31F1D
:10132000A029A40A031DA029A50A031DA029A60A15
:10133000031DA029A60CA50CA40CF70A0319E62985
:10134000221B2229A21B6629C4298030A606A61FBB
:10135000AD29EB297408A100BA297008A100A608DC
:10136000031DBA29A508031DBA29A408031DBA291B
:10137000F701DF29A61BC4290310A30DA40DA50D99
:10138000A60DF70BBA29E629A11FC829A617DF2940
:10139000A613DF2983127308F70074088316A600CA
:1013A0007508A5007608A400DF2983126F08F700EE
:1013B00070088316A6007108A5007208A40026080C
:1013C000F8002508F9002408FA001E2AF701F801A0
:1013D000F901FA011E2AA301A409A509A609A30976
:1013E000A30A031DF929A40A031DF929A50A031953
:1013F000A60A22180129A218452922197B29AA29FF
:101400000008A407031C0A2AA50A031D0A2AA60A23
:101410000319201484030008A507031C122AA60A36
:101420000319201484030008801F803AA6070318BC
:101430002014221A0829A21A4C2982298312080092
:1014400002302B07E9006908803C03183C2AA701F9
:101450008B1BA7178B138316B0011430B10080309B
:10146000B2002C30B3008A118312F4228A15A71B14
:101470008B17AB010230E9002D08EB002C08EA00C5
:101480008E30F7006B08F8006A08F900FA01EB1FCC
:101490004E2AF809F909F90A0319F80AF808031D90
:1014A0005B2A7908F800F9010830F702F808031DF3
:1014B0005B2AF701642A0310F81B622AF90DF80D64
:1014C000F7035B2AEB1FF8137A08F5007908F4009C
:1014D0007808F3007708F200CD30FE00CC30FD0034
:1014E000FC007C30FB008A114B268A157A08ED003F
:1014F0007908EC007808EB007708EA00F0012E0884
:10150000EF008A116C278A1583106D08F2006C08B1
:10151000F1006B08F0006A08EF007A08F60079081D
:10152000F5007808F4007708F300D5207A08EE007B
:101530007908ED007808EC007708EB008A1189271C
:101540008A157808EA006808F5006708F40066085C
:10155000F3006508F200CD30FE00CC30FD00FC0049
:101560007C30FB008A114B268A157A08EE00790838
:10157000ED007808EC007708EB00F0012E08EF0092
:101580008A116C278A1583106E08F2006D08F1002D
:101590006C08F0006B08EF007A08F6007908F50097
:1015A0007808F4007708F300D5207A08EE0079086F
:1015B000ED007808EC007708EB008A1189278A157E
:1015C0007808EB002B08EC006A08ED006908EE00D3
:1015D0006B08EF000130F0008A116F258A1568084A
:1015E000EE006708ED006608EC006508EB008A1164
:1015F00089278A157908AD007808AC006908AB0026
:101600008A150A12EA2C0408EA006908EC0003199A
:10161000242B6808F5006708F4006608F3006508E5
:10162000F200FE01FD012030FC008230FB008A1137
:101630004B268A157A08E8007908E7007808E60062
:101640007708E500EC0B092B6808F5006708F40043
:101650006608F3006508F2008A11D1268A157A0817
:10166000E8007908E7007808E6007708E500E81F59
:10167000462BEA03EA16E509E609E709E809E50A5F
:101680000319E60A0319E70A0319E80A3B30F100D7
:101690009A30F000CA30EF00EE010A30EC00690821
:1016A0000319EA0A83146530840083136808F5007F
:1016B0006708F4006608F3006508F2007108FE0090
:1016C0007008FD006F08FC006E08FB008A11F02610
:1016D0008A157808F708031D802B690A6C02031924
:1016E000802B6A080319822B0F396C0203197A2B9D
:1016F0000318B62BEA1BB62B6A1B822B2030B12BAA
:101700002030EA05EA1E912BEA126908031DEA035C
:101710007708EA002D300C1E8B2B99006A08F70021
:10172000EA0169086C02031DA02B7708EA002E303D
:101730000C1E982B99006A08F7002030EA0500304B
:101740003030EA1EB12BEA126908031DEA0377085C
:10175000EA002D300C1EAA2B99006A08F700EA0156
:101760003030F70777080C1EB32B990083107108EF
:10177000F5007008F4006F08F3006E08F200FE0137
:10178000FD01FC010A30FB008A11F0268A157A0857
:10179000F1007908F0007808EF007708EE00EC0B14
:1017A000522B8A150A120B2D03081F3983000C30A7
:1017B00083169900A2309800903083129800FF3071
:1017C000AA00AB01AD01AC013430AE00B001AF01F5
:1017D00083161F149F141F159F1183138312A801D2
:1017E000A9015430BB006530BC006D30BD007030C5
:1017F000BE006530BF007230C0006130C10074307F
:10180000C2007530C3007230C4006130C5003A3088
:10181000C600C7018430C8001430C900CA01CB011A
:101820008430CC001230CD00CE01CF018430D00006
:101830001830D100D201D3018430D400DC30D5007F
:10184000D601D7018630D8001630D900DA01DB0185
:101850008330DC007030DD00DE01DF010130E100AB
:101860008A114C2B8A158B15C0308B04E6010A3087
:10187000E700E9013B30E8000130EA00EB008A11A3
:101880006B248A15EC010830ED008030EE00083042
:10189000EF000130F0008A116F258A15EC0113303A
:1018A000ED008030EE001330EF000130F0008A11BF
:1018B0006F258A15E0016008093C031C162D600D98
:1018C000F700F70DFC30F7057708483E84008313D6
:1018D0000008E100840A0008E200840A0008E3002E
:1018E000840A0008E400B0013130AF000330840006
:1018F0006408E8006308E7006208E6006108E500A4
:101900000230E9000028B030F2008A1141278A1520
:101910004330F2008A1141278A15E2013B30E10091
:101920008A114E278A1578088316A2000630A30074
:101930008A11831225238A157808E100A7018B1BE1
:10194000A7178B1361088316B0000A30B100363038
:10195000B2000730B3008A118312F4228A15A71B44
:101960008B17E2013B30E1008A114E278A15780877
:101970008316A2000630A3008A11831225238A153C
:101980007808E100E6000A30E700E9013130E800BC
:101990000130EA00EB008A116B248A15600DF70014
:1019A000F70DFC30F7057708483E840083130008E4
:1019B000E100840A0008E200840A0008E300840AC7
:1019C0000008E400E8006308E7006208E600610838
:1019D000E500202A600DF700F70DFC30F7057708C9
:1019E000483E840083130008E100840A0008E200F6
:1019F000840A0008E300840A0008E40089308400B7
:101A00006408E8006308E7006208E6006108E50092
:101A10000230E900032B0D300C1E0C2D9900C8304C
:101A2000E3008A11A8278A15E00A5B2C83160617A3
:101A300083128C1E432D8C1E1B2D1A08E100610899
:101A4000613C031D322D0130E2008A11BC278A154A
:101A50000230E200FA30E3008A11A8278A15E20B6F
:101A60002A2D432D6108623C031D432DE2018A119A
:101A7000BC278A150230E200FA30E3008A11A82759
:0A1A80008A15E20B3C2D162D6300C1
:02400E00713F00
:00000001FF
;PIC16F877
;CRC=643D  CREATED="29-oct.-20 12:07"
