:0400000031EF0CF0E0
:08000800046ED8CF05F0E0CF33
:1000100006F00001E9CF0CF0EACF07F0E1CF08F0DD
:10002000E2CF09F0D9CF0AF0DACF0BF0F3CF12F01C
:10003000F4CF13F0FACF14F0F5CF15F0F6CF16F099
:10004000F7CF17F000C00EF001C00FF002C010F0A3
:1000500003C011F0F2AA30EF00F0F2B4A5EF01F006
:100060009DA036EF00F09EB06FEF03F0F2A63CEFDC
:1000700000F0F2B081EF06F09DAA42EF00F09EBAC8
:1000800068EF07F00EC000F00FC001F010C002F0E2
:1000900011C003F00CC0E9FF07C0EAFF078E08C0DB
:1000A000E1FF09C0E2FF0AC0D9FF0BC0DAFF12C0AE
:1000B000F3FF13C0F4FF14C0FAFF15C0F5FF16C01C
:1000C000F6FF17C0F7FF045006C0E0FF05C0D8FFD9
:1000D0001000F76AE20FF66E000EF7220900F550E5
:1000E0001200000000000000005F00000003000399
:1000F00000143E143E14242A7F2A124333086661FA
:1001000036495522500005030000001C2241000022
:1001100041221C0014083E081408083E080800503C
:10012000300000080808080800606000002010087F
:1001300004023E5149453E0004027F00426151499C
:100140004622414949361814127F10274545453942
:100150003E49494932010171090736494949362664
:100160004949493E00363600000056360000081462
:1001700022410014141414140041221408020151E5
:1001800009063E4159555E7E0909097E7F49494964
:10019000363E414141227F4141413E7F49494941EB
:1001A0007F090909013E4141493A7F0808087F005B
:1001B000417F4100304040403F7F081422417F4052
:1001C0004040407F020C027F7F0204087F3E414195
:1001D000413E7F090909061E2121215E7F09090987
:1001E0007600F76AF20FF66E010EF7220900F5505D
:1001F0001200264949493201017F01013F40404038
:100200003F1F2040201F7F2010207F41221C2241C1
:1002100007087008076151494543007F410000020B
:10022000040810200000417F000402010204404045
:10023000404040000102040020545454787F44445C
:1002400044383844444444384444447F3854545433
:100250001804047E0505085454543C7F08040478AF
:1002600000447D40002040443D007F1028440000B1
:10027000417F40007C047804787C0804047838448A
:100280004444387C14141408081414147C007C08AA
:100290000404485454542004043F44443C40402047
:1002A0007C1C2040201C3C4030403C44281028440A
:1002B0000C5050503C4464544C44000836414100BA
:1002C000007F000041413608000201020402F76A83
:1002D000DE0FF66E020EF7220900F55012004361A0
:1002E00070747572616E646F0000F76AFA0FF66ED3
:1002F000020EF7220900F55012004C696D70696119
:100300006E646F00F76A140FF66E030EF722090091
:10031000F550120054656D70657261747572613AC2
:100320000000040EEA6EBE0EE96EEF500DE0020E04
:10033000016E006A002EFED7012EFBD7970E006ECD
:10034000002EFED7EF2EF3D71200750775530BE181
:100350000A0E756F93968A96320E0401BE6F0001E5
:10036000E0DF93968A86D76A400ED66EF29442EF0B
:1003700000F00401E951D8B471D0006EED51D8B449
:100380006DD0002604E3810E002668E204D07F0EC3
:10039000005E64E363E0EAC4F1F4EE51F11BEA8F1E
:1003A000EE8FEC51F003F4CFF3F4EB51EF03F4CF05
:1003B00003F0F3CFF2F4F003F350F327F450F223F9
:1003C000000E0322EC51EF03F350F327F450F22315
:1003D000000E026A03220222EA51F003F350F227D0
:1003E000F4500322000E0222EA51EF03F3500326D9
:1003F000F4500222000E016A0122EC51EE03F35088
:10040000F227F4500322000E02220122EB51EE03E8
:10041000F3500326F4500222000E0122EA51EE03AB
:10042000F3500226F4500122002A01BE05D0F23713
:100430000336023601360006000EF2AF0AD0032A58
:1004400002220122015005E1025003E1035001E1C3
:10045000002AF1BF018EF1AF019E04D0006A016A4B
:10046000026A036A000112000401E951B608E96F4B
:10047000036AEAC4EDF4EA8FD890EA33EB33EC3345
:100480000332023201320032E92FF6D7EDAF0BD042
:10049000001E011E021E031E002AD8B4012AD8B471
:1004A000022AD8B4032A00011200D8B204D0040EE4
:1004B000EA6EF10EE96E006A016A026A036A0401DB
:1004C000F16BF26BF36BF46BF051EF11EE11ED1178
:1004D0002CE0200EF56FD890E937EA37EB37EC3790
:1004E000F137F237F337F437F051F45D08E1EF51AB
:1004F000F35D05E1EE51F25D02E1ED51F15D0FE3D7
:10050000ED51F15FEE51D8A0EE3DF25FEF51D8A072
:10051000EF3DF35FF051D8A0F03DF45FD880003696
:10052000013602360336F52FD6D7F1C4EFFFF2C4F9
:10053000ECFFF3C4ECFFF4C4ECFF00011200E9503F
:100540000401C96FC851CB6F1BE0C7C4ECF4C6C42B
:10055000EBF4C5C4EAF4C4C4E9F4F06BEF6B200E0D
:10056000EE6F820EED6F000104DF03C0C7F402C01E
:10057000C6F401C0C5F400C0C4F40401CB2FE5D714
:10058000C7C4ECF4C6C4EBF4C5C4EAF4C4C4E9F4CB
:1005900000016ADF03C0C7F402C0C6F401C0C5F49D
:1005A00000C0C4F40401C7AF0DD0C907C98BC41F74
:1005B000C51FC61FC71FC42BD8B4C52BD8B4C62BA4
:1005C000D8B4C72B3B0ED06F9A0ECF6FCA0ECE6F2A
:1005D000CD6B0A0ECB6FC851D8B4C92BD882040E8C
:1005E000EA6EC40EE96EC7C4ECF4C6C4EBF4C5C42D
:1005F000EAF4C4C4E9F4D0C4F0F4CFC4EFF4CEC438
:10060000EEF4CDC4EDF4000150DF0150005213E1CF
:100610000401C829CB5DD8A402D000010CD0C95177
:100620000DE00F0BCB5D01E03CE2C9BF3AD0C9BD84
:1006300005D0200E31D0200E0401C917C9AB0DD052
:10064000C99BC851D8A4C9070050C96F2D0E9EA8D8
:10065000FED7AD6EC951006EC96BC851CB5D0BE1C1
:100660000050C96F2E0E9EA8FED7AD6EC951006E08
:10067000200EC917000E300EC9AB0ED0C99BC85151
:10068000D8A4C9070050C96F2D0E9EA8FED7AD6E25
:10069000C951006EC96B300E002600509EA8FED7CF
:1006A000AD6ED892D0C4ECF4CFC4EBF4CEC4EAF46F
:1006B000CDC4E9F4F06BEF6BEE6B0A0EED6F000149
:1006C000F4DE03C0D0F402C0CFF401C0CEF400C009
:1006D000CDF40401CB2F82D70001D0EF03F07607D1
:1006E000765366E1060E766F0401BE6BBE511208AA
:1006F00034E3BE51040DF350036A230F016E000E64
:10070000032201C0C0F403C0C1F4010EBE25040DD4
:10071000F350036A230FE96E000E0320EA6EEFCF59
:1007200000F0ECCF01F0ECCF02F0ECCF03F003C00F
:10073000C5F402C0C4F401C0C3F400C0C2F4C1C413
:10074000EAFFC0C4E9FF00C0EFFF01C0ECFF02C038
:10075000ECFF03C0ECFFBE2BC9D722C072F021C052
:1007600071F020C070F01FC06FF0BF6BBF51130855
:100770001EE3BF51040DF350036A230FE96E000E10
:100780000320EA6EEFCFC4F4ECCFC5F4ECCFC6F48F
:10079000ECCFC7F4030EE96E020EC86F0001CFD68E
:1007A000200E9EA8FED7AD6E0401BF2BDFD700013F
:1007B0000B0ECF6EDC0ECE6E9E9042EF00F0040169
:1007C000F56BF031F46FF433F4331F0EF417F43794
:1007D000F537F437F537F437F537F437F537F437BD
:1007E000F537F437F537C00EF417EF51F427000E44
:1007F000F523EF513F080DE2870EF425F66F020E48
:10080000F521F76F400EF65DF26F000EF759F36FAA
:1008100006D0870EF425F26F000EF521F36FF15329
:1008200015E0F3C403F0F2C4E9FF03C0EAFFF0519E
:10083000070BF66F010E006EF651016E04E0D890C2
:100840000036012EFCD70050EF1215D0F3C403F090
:10085000F2C4E9FF03C0EAFFF051070BF66F010E87
:10086000006EF651016E04E0D8900036012EFCD7E0
:100870000050FF0AEF1600011200E1C403F004016A
:10088000E0C4E9FF03C0EAFFEF52D8B4C5D0E1C429
:1008900003F0E0C4E9FF03C0EAFFEF50520821E390
:1008A000E1C403F0E0C4E9FF03C0EAFF200EEF5CFF
:1008B000050DF350036AED6F040EEA6EE80EE96E63
:1008C000F16BEDC4F0F4050E016EF76AED51000115
:1008D00000DC0A000900F5CFEEFF012EFBD731D076
:1008E0000401E1C403F0E0C4E9FF03C0EAFFEF50F4
:1008F0007E0821E3E1C403F0E0C4E9FF03C0EAFF9E
:10090000530EEF5C050DF350036AED6F040EEA6EB3
:10091000E80EE96EF16BEDC4F0F4050E016EF76AB6
:10092000ED5100015EDC0A000900F5CFEEFF012E5B
:10093000FBD707D00401E86BE96BEA6BEB6BEC6B60
:100940000001E1C403F00401E051E96E03C0EAFFD5
:10095000EF500A0A000103E0070A09E00CD0040185
:10096000E251070DF350010FDF274FD000010401C2
:10097000DE6B4BD000010401E251050DF350DE2582
:100980007F0806E2DE6BE251070DF350010FDF270F
:10099000E46BE451040839E3E56BE551060831E303
:1009A000036AE451E80FE96E040E0320EA6EEFCF0C
:1009B00000F0E551016E04E0D8900032012EFCD722
:1009C00000A01DD0E66BE251E65D19E2E76BE25153
:1009D000E75D13E2E751DE25ED6FE551E203F350E9
:1009E000DF25E625EE6FEDC4EFF4F06FE3C4F1F41C
:1009F0000001E5DE0401E72BEAD7E62BE4D7E52B7F
:100A0000CCD7E42BE251DE27C4D7E02BD8B4E12BBE
:100A1000DE2B000132D704010001120078C0EAFF8A
:100A200077C0E9FF0401E9C4EFFFE92AD8B4EA2A54
:100A3000EF6A0001772BD8B4782B1200E95004013B
:100A4000E16FE051E36F1BE0DFC4ECF4DEC4EBF4D4
:100A5000DDC4EAF4DCC4E9F4F06BEF6B200EEE6F5A
:100A6000820EED6F000185DC03C0DFF402C0DEF40E
:100A700001C0DDF400C0DCF40401E32FE5D7DFC4DE
:100A8000ECF4DEC4EBF4DDC4EAF4DCC4E9F4000108
:100A9000EBDC03C0DFF402C0DEF401C0DDF400C013
:100AA000DCF40401DFAF0DD0E107E18BDC1FDD1FBB
:100AB000DE1FDF1FDC2BD8B4DD2BD8B4DE2BD8B47F
:100AC000DF2B3B0EE86F9A0EE76FCA0EE66FE56B01
:100AD0000A0EE36FE051D8B4E12BD882040EEA6E1F
:100AE000DC0EE96EDFC4ECF4DEC4EBF4DDC4EAF442
:100AF000DCC4E9F4E8C4F0F4E7C4EFF4E6C4EEF4CF
:100B0000E5C4EDF40001D1DC0150005213E1040111
:100B1000E029E35DD8A402D000010CD0E1510DE042
:100B20000F0BE35D01E040E2E1BF3ED0E1BD05D047
:100B3000200E34D0200E0401E117E1AB0ED0E19B72
:100B4000E051D8A4E1070050E16F2D0EE96F0001DC
:100B500065DF0401E151006EE16BE051E35D0CE102
:100B60000050E16F2E0EE96F000158DF0401E151E2
:100B7000006E200EE117000E300EE1AB0FD0E19BAE
:100B8000E051D8A4E1070050E16F2D0EE96F00019C
:100B900045DF0401E151006EE16B300E002600C01C
:100BA000E9F400013BDF0401D892E8C4ECF4E7C4A7
:100BB000EBF4E6C4EAF4E5C4E9F4F06BEF6BEE6B3A
:100BC0000A0EED6F000171DC03C0E8F402C0E7F427
:100BD00001C0E6F400C0E5F40401E32F7ED7000174
:100BE0001200000E956E93988A980401E95303E071
:100BF00093928A8202D093908A8000D0956AEAC448
:100C00008CFF00D0939A8A8A00D0939A8A9A939004
:100C10008A9093928A92000112000401E56B870E7C
:100C2000E46F020EE76F870EE66FE26BE251070892
:100C30004AE393948A94E96B400EEA6F0001D1DF96
:100C4000010E0401E96F400EEA6F0001CADF0401E2
:100C5000E251B809E86FE96BEA6F0001C2DF0401F5
:100C6000E251B809E86F010EE96FE8C4EAF4000147
:100C7000B8DF93948A840401E36BE3513F0821E3D6
:100C8000E5C403F0E451E42BD8B4E52BE96E03C0CE
:100C9000EAFFEFCFEAF4E96B0001A3DF0401E7C448
:100CA00003F0E651E62BD8B4E72BE96E03C0EAFF68
:100CB000EFCFEAF4010EE96F000193DF0401E32BAB
:100CC000DCD7E22BB3D700011200DCC4E0F404014E
:100CD000DE51DC25E05D12E2DDC4E1F4DF51DD250B
:100CE000E15D0AE2E0C4EFF4E1C4F0F4F16B00016D
:100CF00066DD0401E12BF2D7E02BEAD700018DDF9E
:100D00001200938C81ACE1D07371F29A73A14ED032
:100D1000040EEA6EC60EE96E0B0E016EF76A000E47
:100D200067EC01F00A000900F5CFEEFF012EFBD7BA
:100D3000220E0401DE6FDF6B040EE16FC60EE06F62
:100D4000010EE26FE36F000198DD040E786FBE0EB6
:100D5000776F030EE96E1EC0DFF41DC0DEF41CC009
:100D6000DDF41BC0DCF4020E0401E06F000166DE5E
:100D70003F0E0401E96F000151DE430E0401E96FEB
:100D800000014CDE480E0401DE6F0A0EDF6F040E18
:100D9000E16FBE0EE06F010EE26FE36F00016DDDEB
:100DA0009D800B0ECF6EDC0ECE6E8DD0040EEA6EE3
:100DB000D10EE96E0B0E016EF76A000E67EC01F0C2
:100DC0000A000900F5CFEEFF012EFBD7220E040129
:100DD000DE6FDF6B040EE16FD10EE06F010EE26F8C
:100DE000E36B00014ADD040EEA6ED10EE96E0A0ED5
:100DF000016EF76A000E75EC01F00A000900F5CFEC
:100E0000EEFF012EFBD7220E0401DE6FDF6B040E16
:100E1000E16FD10EE06F010EE26FE36F00012DDD97
:100E20000401DC6B140EDD6F800EDE6F2C0EDF6FA5
:100E300000014BDF040EEA6ED10EE96E0A0E016E60
:100E4000F76A000E75EC01F00A000900F5CFEEFF1D
:100E5000012EFBD7220E0401DE6FDF6B040EE16F63
:100E6000D10EE06F010EE26FE36B000106DD040EB0
:100E7000786FBE0E776F030EE96E22C0DFF421C0DB
:100E8000DEF420C0DDF41FC0DCF4020E0401E06FCC
:100E90000001D4DD3F0E0401E96F0001BFDD430E08
:100EA0000401E96F0001BADD480E0401DE6F0A0E8D
:100EB000DF6F040EE16FBE0EE06F010EE26FE36BB9
:100EC0000001DBDC9D901A6AA8DEF29042EF00F090
:100ED0009EAAFED7AECF74F07451610813E1420EA2
:100EE0000401BE6F540EBF6FC06B6E0EDE6FDF6B02
:100EF000040EE16FBE0EE06F010EE26FE36F0001C2
:100F0000BCDC15D07451620812E1420E0401BE6FC0
:100F1000540EBF6FC06B6E0EDE6FDF6B040EE16FA1
:100F2000BE0EE06F010EE26FE36B0001A6DC75DE22
:100F30009E9A42EF00F00401A26B870EA16F020E91
:100F4000A46F870EA36F9F51FF0DF3CFA0F4A66B84
:100F5000A56BA65101081AE3A2C403F0A151A12B6D
:100F6000D8B4A22BE96E03C0EAFFA0C4EFFFA4C46B
:100F700003F0A351A32BD8B4A42BE96E03C0EAFF5E
:100F8000A0C4EFFFA52BD8B4A62BE3D7000157EFE1
:100F900008F094908B80939A8A9A93908A90939277
:100FA0008A9293948A94196AF2BE198EF29E040171
:100FB000E96BC00EEA6F000114DE19BEF28E196AE9
:100FC000F2BE198EF29E010E0401E96FC00EEA6FA7
:100FD000000107DE19BEF28E196AF2BE198EF29E6A
:100FE0000401E96B400EEA6F0001FBDD19BEF28ED1
:100FF000196AF2BE198EF29E010E0401E96F400ECD
:10100000EA6F0001EEDD19BEF28E196AF2BE198E8A
:10101000F29E0401E96BB80EEA6F0001E2DD19BE31
:10102000F28E196AF2BE198EF29E010E0401E96F6A
:10103000B80EEA6F0001D5DD19BEF28E04019E2DB7
:101040001AD0196AF2BE198EF29EE96B3F0EEA6F52
:101050000001C7DD19BEF28E196AF2BE198EF29E2A
:10106000010E0401E96F3F0EEA6F0001BADD19BEFF
:10107000F28E19D00401196AF2BE198EF29EE96B44
:101080003E0EEA6F0001ADDD19BEF28E196AF2BEA6
:10109000198EF29E010E0401E96F3E0EEA6F000107
:1010A000A0DD19BEF28E04019F6B000144D7196ABE
:1010B000F2BE198EF29EB1DD19BEF28E67EF0CF012
:1010C000010E0401AE6FAF6FB46BA551A75DB56F94
:1010D000B551B5AF03D0000ED880B555036AAC6FDB
:1010E00003C0ADF4A651A85DB56FB551B5AF03D03F
:1010F000000ED880B555036AAA6F03C0ABF4A551A2
:10110000A75D01E2AE69A651A85D01E2AF69AB51EE
:10111000AD5D41E303E1AA51AC5D3DE3D890AA3750
:10112000AB37AC51AA5D006EAD51AB5900C0B0F405
:10113000B16FAC51B05DB26FAD51B159B36FAD533A
:1011400003E1B451AC5D26E3196AF2BE198EF29E3A
:10115000A5C4EFF4A6C4F0F4A9C4F1F40001DFECD7
:1011600003F019BEF28E0401B1AF08D0AA51B02726
:10117000AB51B123AE51A525A56F0AD0B251B0270E
:10118000B351B123AE51A525A56FAF51A625A66FCA
:10119000B42BD5D73CD0D890AC37AD37AA51AC5D85
:1011A000006EAB51AD5900C0B0F4B16FAA51B05D43
:1011B000B26FAB51B159B36FAB5303E1B451AA5DF8
:1011C00026E3196AF2BE198EF29EA5C4EFF4A6C4F6
:1011D000F0F4A9C4F1F40001DFEC03F019BEF28EC3
:1011E0000401B1AF08D0AC51B027AD51B123AF511C
:1011F000A625A66F0AD0B251B027B351B123AE5184
:10120000A525A56FAF51A625A66FB42BD5D7000194
:1012100012008E0E006E9FC401F09EC402F0036A9D
:10122000015209E102C001F0026A080E005E01529B
:1012300002E1006A08D0D89001BE04D0023601361F
:101240000006F9D7019E12000401A251D8B4A5D01E
:10125000AE6FA651D8B4A1D0AE5F05E37F0EAE2726
:10126000D8B09BD006D0810EAE5FD8A096D0D8B4AF
:1012700094D0AEC400F0016A026A036AAD6BA3C4E5
:10128000ACF4AC8FA4C4ABF4A5C4AAF4190EAE6F31
:10129000A951AA5F0DE2010EAB5F0AE2AC5F08E262
:1012A000AD5F06E2AD2BAC2BAB2BA951AA2728D002
:1012B000A851AB5F12E2010EAC5F0FE2AD5F0DE231
:1012C000AD2BAC2BA851AB27A951AA2719E3AB2B07
:1012D00017E1AC2B15E1AD2B13D0A7518009AC5F02
:1012E0000EE2010EAD5F0BE2AD2BA7518009AC27DA
:1012F000A851AB27E9E3AC2BE7E1AD2BE5D70380A1
:10130000AE2F01D00BD0D890AA37AB37AC37AD3762
:10131000D890033602360136AF37BAD7AFA106D020
:10132000D890013202320332AF3302D0000635E0EA
:10133000AFBF1ED0D890AA37AB37AC37AD37A95165
:10134000AA5F07E2010EAB5F04E2AC5F02E2AD5FB1
:101350001AE3A851AB5F05E2010EAC5F02E2AD5F9C
:1013600012E3A7518009AC5F03E2010EAD5F0BE30E
:10137000032A09E1022A07E1012A05E1002A0DE01A
:10138000013202320332A3C4AEF4A751AE1BAEAF9A
:1013900002D0018E06D0019E04D0006A016A026A62
:1013A000036A000112009FC4A6F40401A351A61B06
:1013B000A6AF05D0D894D8909FBFD8802FD09FC417
:1013C000A6F4A2C4A7F49E51A75F06E0A6AF26D05C
:1013D000D850010AD86E22D0A3C4A7F49F51A75FAA
:1013E00006E0A6AF1BD0D850010AD86E17D0A4C40F
:1013F000A7F4A051A75F06E0A6AF10D0D850010A0D
:10140000D86E0CD0A5C4A7F4A151A75F06E0A6AF83
:1014100005D0D850010AD86E01D0D8900001120032
:10142000800ED8A202D00401AD1B0401B26BB36BD5
:10143000A9C4B1F4AD51B11BA851D8B4DFD0B06F7D
:10144000006EAC51D8B4E3D0B05FD8B483D03EE3E3
:10145000ADC4B6F4B68FAEC4B5F4AFC4B4F4B36BD8
:10146000D890B633B533B433B333B02FF8D7B1AF68
:1014700003D0B281E0D0B291B091B289040EEA6E8D
:10148000AB0EE96EEBD0B299B1BF0AD0B0A113D0C8
:10149000B633B533B433B333002AD8B4C7D00BD086
:1014A000B6BF0CD0D890B337B437B537B6370006CF
:1014B000D8B4BCD0F5D7B28D6DD0B29DA9C4B1F46B
:1014C000A9AF02D0B68FABD0B69FA9D0ACC4B0F450
:1014D000ACC400F0A851B05FA9C4B6F4B68FAAC4DA
:1014E000B5F4ABC4B4F4B36BD890B633B533B433FE
:1014F000B333B02FF8D7B1AF03D0B2839CD0B2933F
:10150000B091B28B040EEA6EAF0EE96EA7D0B29B1B
:10151000B1BF0AD0B0A113D0B633B533B433B333AF
:10152000002AD8B483D00BD0B6BF0CD0D890B33734
:10153000B437B537B6370006D8B478D0F5D7B28F00
:1015400029D0B29FADC4B1F4ADAF02D0B68F67D091
:10155000B69F65D0ADC4B6F4B68FAEC4B5F4AFC413
:10156000B4F4B1AF04D0B69FB28565D0B295B36B79
:10157000B091040EEA6EAB0EE96E70D0B1BF1CD014
:10158000A9C4B1F4B0A106D0B633B533B433B33384
:10159000002A4CE0B3AF0BD0B42B09E1B52B07E127
:1015A000B62B05E1B633B533B433002A3FE0B2BD04
:1015B00084D7B2BFC6D71CD0800EB61BB6AF04D03E
:1015C0003AD0ADC4B1F40AD0A9C4B1F4B65306E11F
:1015D000B55304E1B45302E1006A21D0B6BF08D08C
:1015E000D890B337B437B537B637002EF7D71ED0FB
:1015F000B1AF02D0B68F13D0B69F11D0ACC400F0FB
:10160000ADC4B6F4AEC4B5F4AFC4B4F408D0A8C445
:1016100000F0A9C4B6F4AAC4B5F4ABC4B4F4B6C41B
:1016200001F0B5C402F0B4C403F034D0006A016A1A
:10163000026A036A2FD0B36BB41FB51FB61FB31F66
:10164000B32B05E1B42B03E1B52B01E1B62BB2B10D
:1016500012D7B2B354D7B2B589D7B3D7EF50B427A6
:1016600005E3B52B03E1B62BD8B4B081ED52EF50B2
:10167000B52703E3B62BD8B4B081ED52EF50EFBEDF
:1016800001D0800AB627D8B0B081B2B9FCD6B2BBBF
:101690003ED774D7000112008E0E006E0401A451D3
:1016A000005EA5C402F0A6C401F0028E005209E05B
:1016B000D890025202E1015204E002320132002EBF
:1016C000F7D7A5AF05D0011E021E012AD8B4022A01
:1016D00000011200010E1A240401A26FA2517F081A
:1016E00014E2196AF2BE198EF29EDC6B140EDD6FE5
:1016F000800EDE6F2C0EDF6F000165EC06F019BE68
:10170000F28E1A6A010E0401A26F196AF2BE198ED6
:10171000F29E1EC0ECF41DC0EBF41CC0EAF41BC02A
:10172000E9F4F06BEF6B800EEE6FED6F0001B9EC3A
:1017300001F019BEF28E03C0A6F402C0A5F401C0E8
:10174000A4F400C0A3F4D89203C0ABF402C0AAF47E
:1017500001C0A9F400C0A8F40401AF6BAE6B700E19
:10176000AD6F850EAC6F00015BDE03C0A7F402C055
:10177000A6F401C0A5F400C0A4F48EDF01C0A3F458
:10178000196AF2BE198EF29EA1C4ECF4A0C4EBF467
:101790009FC4EAF49EC4E9F40401F06BEF6B800E81
:1017A000EE6FED6F0001B9EC01F019BEF28E03C0CF
:1017B000A7F402C0A6F401C0A5F400C0A4F4D89216
:1017C00003C0ABF402C0AAF401C0A9F400C0A8F49D
:1017D0000401AF6BAE6B700EAD6F850EAC6F000188
:1017E0001FDE03C0A7F402C0A6F401C0A5F400C028
:1017F000A4F452DF01C0A4F41AC0A5F4A3C4A6F453
:10180000A2C4A7F401C0A8F4010E0401A96F00014D
:1018100057DC196AF2BE198EF29E0DEC06F019BE65
:10182000F28EA1C41EF0A0C41DF09FC41CF09EC483
:101830001BF0A2C41AF0CCEF0EF0EF5210E0EACF8A
:101840009FF4E9CF9EF4EF509EA8FED7AD6E9FC4E3
:10185000EAFF9EC4E9FFE92AD8B4EA2AEED7ADEF41
:101860000FF0F86AD09E078EB8960C0EAF6EA20EDF
:10187000AC6E900EAB6E1A6A7391746B0A0E756F34
:10188000060E766F786B776BC150C00B0F09C16E77
:10189000070EB46E400E866FC150C00B0E09C16EAC
:1018A000C050C00B0709C06EC08EC280C70ED56E77
:1018B000B50ECD6ED76A400ED66E0B0ECF6EDC0E17
:1018C000CE6E010E04019E6F0001C9EF07F0F28693
:1018D0009D8AC00EF212040EEA6E910EE96E0D0E94
:1018E000016EF76A000E82EC01F00A000900F5CFE4
:1018F000EEFF012EFBD7196AF2BE198EF29E04018B
:10190000DE6B0A0EDF6F040EE16F910EE06F010EC9
:10191000E26FE36F00013DEC04F019BEF28E0401AA
:10192000A56B080EA66F800EA76F080EA86F010E9C
:10193000A96F000160EC08F00401A56B130EA66FFF
:10194000800EA76F130EA86F010EA96F000160EC47
:1019500008F0196AF2BE198EF29E0DEC06F019BE5F
:10196000F28E000E016EC250C30B0110C26E0D0E3E
:10197000006E002EFED7C282C2B2FED7C4CF88F45A
:101980000401C3CF87F488C49FF487C49EF4000188
:1019900040DC196AF2BE198EF29E0401EC6BEB6B0F
:1019A000200EEA6F810EE96F03C0F0F402C0EFF47D
:1019B00001C0EEF400C0EDF40001B9EC01F019BE75
:1019C000F28E03C0A1F402C0A0F401C09FF400C0D5
:1019D0009EF4196AF2BE198EF29E03C0ECF402C0A6
:1019E000EBF401C0EAF400C0E9F40401F06BEF6B22
:1019F000480EEE6F850EED6F0001B9EC01F019BED7
:101A0000F28E03C0A1F402C0A0F401C09FF400C094
:101A10009EF403C0A5F402C0A4F401C0A3F400C066
:101A2000A2F40401A96BA86BA76B890EA66F000135
:101A30000BDC03C01EF002C01DF001C01CF000C092
:101A40001BF0196AF2BE198EF29EFA0E0401BE6FE7
:101A5000000191EC01F019BEF28E73A192D2000E3A
:101A6000016EC250C30B0110C26E060E006E002E36
:101A7000FED70000C282C2B2FED7C4CF88F40401F0
:101A8000C3CF87F488C49FF487C49EF4000109EC97
:101A900009F0196AF2BE198EF29E0401EC6BEB6B31
:101AA000200EEA6F810EE96F03C0F0F402C0EFF47C
:101AB00001C0EEF400C0EDF40001B9EC01F019BE74
:101AC000F28E03C0A1F402C0A0F401C09FF400C0D4
:101AD0009EF4196AF2BE198EF29E03C0ECF402C0A5
:101AE000EBF401C0EAF400C0E9F40401F06BEF6B21
:101AF000480EEE6F850EED6F0001B9EC01F019BED6
:101B0000F28E03C0A1F402C0A0F401C09FF400C093
:101B10009EF403C0A5F402C0A4F401C0A3F400C065
:101B2000A2F40401A96BA86BA76B890EA66F000134
:101B300024EC09F003C022F002C021F001C020F023
:101B400000C01FF022C0A1F421C0A0F420C09FF467
:101B50001FC09EF41EC0A5F41DC0A4F41CC0A3F4B5
:101B60001BC0A2F420DCD8B496D0040E786F890E86
:101B7000776F030EE96E196AF2BE198EF29E1EC0CF
:101B8000DFF41DC0DEF41CC0DDF41BC0DCF4020E6B
:101B90000401E06F00011EEC05F019BEF28E196A17
:101BA000F2BE198EF29E3F0E0401E96F00010EECA9
:101BB00005F019BEF28E196AF2BE198EF29E430E1E
:101BC0000401E96F00010EEC05F019BEF28E196AEE
:101BD000F2BE198EF29E480E0401DE6F0A0EDF6F10
:101BE000040EE16F890EE06F010EE26FE36B0001FE
:101BF0003DEC04F019BEF28E040E786F890E776FFB
:101C0000030EE96E196AF2BE198EF29E22C0DFF44D
:101C100021C0DEF420C0DDF41FC0DCF4020E04019C
:101C2000E06F00011EEC05F019BEF28E196AF2BEDB
:101C3000198EF29E3F0E0401E96F00010EEC05F0D3
:101C400019BEF28E196AF2BE198EF29E430E04017D
:101C5000E96F00010EEC05F019BEF28E196AF2BEB2
:101C6000198EF29E480E0401DE6F0A0EDF6F040E1D
:101C7000E16F890EE06F010EE26FE36F00013DEC52
:101C800004F019BEF28E196AF2BE198EF29E0DECA6
:101C900006F019BEF28E22C0A1F421C0A0F420C02B
:101CA0009FF41FC09EF40401A56BA46B200EA36FCC
:101CB000840EA26F0001D3EC09F001E215E10401EA
:101CC000A16BA06B0C0E9F6F840E9E6F22C0A5F4BB
:101CD00021C0A4F420C0A3F41FC0A2F40001D3ECDF
:101CE00009F001E201E1F29A0401A16BA06B200E60
:101CF0009F6F840E9E6F22C0A5F421C0A4F420C063
:101D0000A3F41FC0A2F40001D3EC09F013E222C037
:101D1000A1F421C0A0F420C09FF41FC09EF40401D0
:101D2000A56BA46B0C0EA36F840EA26F0001D3EC05
:101D300009F001E3F28A22C0A1F421C0A0F420C07E
:101D40009FF41FC09EF40401A56BA46B480EA36F03
:101D5000840EA26F0001D3EC09F001E25FE10401FF
:101D6000A16BA06B600E9F6F830E9E6F22C0A5F4C7
:101D700021C0A4F420C0A3F41FC0A2F40001D3EC3E
:101D800009F001E24BE122C0A1F421C0A0F420C07F
:101D90009FF41FC09EF49ED4540E0401916F3E0E1A
:101DA000926F350E936F300E946F956B196AF2BE79
:101DB000198EF29E030EDE6FDF6B040EE16F910E43
:101DC000E06F010EE26FE36B00013DEC04F019BE21
:101DD000F28E540E0401916F3C0E926F320E936F8F
:101DE000380E946F956B196AF2BE198EF29E030E2F
:101DF000DE6FDF6B040EE16F910EE06F010EE26F9C
:101E0000E36B00013DEC04F019BEF28E196AF2BEDC
:101E1000198EF29E0DEC06F019BEF28E0401A16B34
:101E2000A06B480E9F6F840E9E6F22C0A5F421C048
:101E3000A4F420C0A3F41FC0A2F40001D3EC09F065
:101E40002DE3540E0401916F3E0E926F350E936F89
:101E5000300E946F956B196AF2BE198EF29E030EC6
:101E6000DE6FDF6B040EE16F910EE06F010EE26F2B
:101E7000E36F00013DEC04F019BEF28E196AF2BE68
:101E8000198EF29E0DEC06F019BEF28E22C01EF0E5
:101E900021C01DF020C01CF01FC01BF022C0A1F407
:101EA00021C0A0F420C09FF41FC09EF40401A56BC4
:101EB000A46B600EA36F830EA26F0001D3EC09F038
:101EC0002DE3540E0401916F3C0E926F320E936F0E
:101ED000380E946F956B196AF2BE198EF29E030E3E
:101EE000DE6FDF6B040EE16F910EE06F010EE26FAB
:101EF000E36F00013DEC04F019BEF28E196AF2BEE8
:101F0000198EF29E0DEC06F019BEF28E22C01EF064
:101F100021C01DF020C01CF01FC01BF0040E786F04
:101F2000890E776F030EE96E196AF2BE198EF29E62
:101F300022C0DFF421C0DEF420C0DDF41FC0DCF4D9
:101F4000020E0401E06F00011EEC05F019BEF28ED6
:101F5000040EEA6E890EE96E70D40D0E9EA8FED7AF
:101F6000AD6E0A0E9EA8FED7AD6E196AF2BE198E2E
:101F7000F29EFA0E0401BE6F000191EC01F019BE51
:061F8000F28E6BD5030098
:020000040030CA
:0E00000001CC3E1E0087A1000FC00FE00F4094
:00000001FF
;PIC18F4550
;CRC=DEE4  CREATED="14-nov.-20 10:23"
